{
    "contractName": "Validator",
    "abi": [
        {
            "constant": true,
            "inputs": [],
            "name": "name",
            "outputs": [
                {
                    "internalType": "string",
                    "name": "",
                    "type": "string"
                }
            ],
            "payable": false,
            "stateMutability": "view",
            "type": "function"
        },
        {
            "constant": true,
            "inputs": [
                {
                    "internalType": "uint256",
                    "name": "",
                    "type": "uint256"
                }
            ],
            "name": "coinbases",
            "outputs": [
                {
                    "internalType": "address",
                    "name": "",
                    "type": "address"
                }
            ],
            "payable": false,
            "stateMutability": "view",
            "type": "function"
        },
        {
            "constant": true,
            "inputs": [],
            "name": "totalSupply",
            "outputs": [
                {
                    "internalType": "uint256",
                    "name": "",
                    "type": "uint256"
                }
            ],
            "payable": false,
            "stateMutability": "view",
            "type": "function"
        },
        {
            "constant": true,
            "inputs": [
                {
                    "internalType": "uint256",
                    "name": "",
                    "type": "uint256"
                }
            ],
            "name": "premineAddresses",
            "outputs": [
                {
                    "internalType": "address",
                    "name": "",
                    "type": "address"
                }
            ],
            "payable": false,
            "stateMutability": "view",
            "type": "function"
        },
        {
            "constant": true,
            "inputs": [
                {
                    "internalType": "address",
                    "name": "_validator",
                    "type": "address"
                }
            ],
            "name": "rewardOf",
            "outputs": [
                {
                    "internalType": "uint256",
                    "name": "",
                    "type": "uint256"
                }
            ],
            "payable": false,
            "stateMutability": "view",
            "type": "function"
        },
        {
            "constant": true,
            "inputs": [],
            "name": "getPremineSum",
            "outputs": [
                {
                    "internalType": "uint256",
                    "name": "",
                    "type": "uint256"
                }
            ],
            "payable": false,
            "stateMutability": "view",
            "type": "function"
        },
        {
            "constant": true,
            "inputs": [
                {
                    "internalType": "address",
                    "name": "",
                    "type": "address"
                }
            ],
            "name": "unlockedAt",
            "outputs": [
                {
                    "internalType": "uint256",
                    "name": "",
                    "type": "uint256"
                }
            ],
            "payable": false,
            "stateMutability": "view",
            "type": "function"
        },
        {
            "constant": true,
            "inputs": [],
            "name": "decimals",
            "outputs": [
                {
                    "internalType": "uint8",
                    "name": "",
                    "type": "uint8"
                }
            ],
            "payable": false,
            "stateMutability": "view",
            "type": "function"
        },
        {
            "constant": true,
            "inputs": [],
            "name": "ROYALTY_STACK_LIMIT",
            "outputs": [
                {
                    "internalType": "uint256",
                    "name": "",
                    "type": "uint256"
                }
            ],
            "payable": false,
            "stateMutability": "view",
            "type": "function"
        },
        {
            "constant": true,
            "inputs": [],
            "name": "getCpt",
            "outputs": [
                {
                    "internalType": "uint256",
                    "name": "",
                    "type": "uint256"
                }
            ],
            "payable": false,
            "stateMutability": "view",
            "type": "function"
        },
        {
            "constant": true,
            "inputs": [],
            "name": "ZERO_ADDRESS",
            "outputs": [
                {
                    "internalType": "address",
                    "name": "",
                    "type": "address"
                }
            ],
            "payable": false,
            "stateMutability": "view",
            "type": "function"
        },
        {
            "constant": true,
            "inputs": [],
            "name": "getTime",
            "outputs": [
                {
                    "internalType": "uint256",
                    "name": "",
                    "type": "uint256"
                }
            ],
            "payable": false,
            "stateMutability": "view",
            "type": "function"
        },
        {
            "constant": true,
            "inputs": [
                {
                    "internalType": "address",
                    "name": "account",
                    "type": "address"
                }
            ],
            "name": "balanceOf",
            "outputs": [
                {
                    "internalType": "uint256",
                    "name": "",
                    "type": "uint256"
                }
            ],
            "payable": false,
            "stateMutability": "view",
            "type": "function"
        },
        {
            "constant": true,
            "inputs": [
                {
                    "internalType": "uint256",
                    "name": "",
                    "type": "uint256"
                }
            ],
            "name": "premineBalances",
            "outputs": [
                {
                    "internalType": "uint256",
                    "name": "",
                    "type": "uint256"
                }
            ],
            "payable": false,
            "stateMutability": "view",
            "type": "function"
        },
        {
            "constant": true,
            "inputs": [
                {
                    "internalType": "address",
                    "name": "",
                    "type": "address"
                }
            ],
            "name": "coinbaseValidators",
            "outputs": [
                {
                    "internalType": "address",
                    "name": "",
                    "type": "address"
                }
            ],
            "payable": false,
            "stateMutability": "view",
            "type": "function"
        },
        {
            "constant": true,
            "inputs": [],
            "name": "getPremineAddressesCount",
            "outputs": [
                {
                    "internalType": "uint256",
                    "name": "",
                    "type": "uint256"
                }
            ],
            "payable": false,
            "stateMutability": "view",
            "type": "function"
        },
        {
            "constant": true,
            "inputs": [],
            "name": "symbol",
            "outputs": [
                {
                    "internalType": "string",
                    "name": "",
                    "type": "string"
                }
            ],
            "payable": false,
            "stateMutability": "view",
            "type": "function"
        },
        {
            "constant": true,
            "inputs": [
                {
                    "internalType": "address",
                    "name": "_validator",
                    "type": "address"
                }
            ],
            "name": "statusOf",
            "outputs": [
                {
                    "internalType": "enum Lock.ValidatorStatus",
                    "name": "",
                    "type": "uint8"
                }
            ],
            "payable": false,
            "stateMutability": "view",
            "type": "function"
        },
        {
            "constant": true,
            "inputs": [
                {
                    "internalType": "address",
                    "name": "_validator",
                    "type": "address"
                }
            ],
            "name": "getFrozenBalance",
            "outputs": [
                {
                    "internalType": "uint256",
                    "name": "",
                    "type": "uint256"
                }
            ],
            "payable": false,
            "stateMutability": "view",
            "type": "function"
        },
        {
            "constant": true,
            "inputs": [],
            "name": "premineSum",
            "outputs": [
                {
                    "internalType": "uint256",
                    "name": "",
                    "type": "uint256"
                }
            ],
            "payable": false,
            "stateMutability": "view",
            "type": "function"
        },
        {
            "constant": true,
            "inputs": [],
            "name": "VALIDATOR_STAKE_RATE",
            "outputs": [
                {
                    "internalType": "uint256",
                    "name": "",
                    "type": "uint256"
                }
            ],
            "payable": false,
            "stateMutability": "view",
            "type": "function"
        },
        {
            "constant": true,
            "inputs": [],
            "name": "lastJoinLeaveBlock",
            "outputs": [
                {
                    "internalType": "uint256",
                    "name": "",
                    "type": "uint256"
                }
            ],
            "payable": false,
            "stateMutability": "view",
            "type": "function"
        },
        {
            "constant": true,
            "inputs": [],
            "name": "CPT_ZOOM",
            "outputs": [
                {
                    "internalType": "uint256",
                    "name": "",
                    "type": "uint256"
                }
            ],
            "payable": false,
            "stateMutability": "view",
            "type": "function"
        },
        {
            "constant": true,
            "inputs": [
                {
                    "internalType": "uint256",
                    "name": "i",
                    "type": "uint256"
                }
            ],
            "name": "getPremineAccount",
            "outputs": [
                {
                    "internalType": "address",
                    "name": "",
                    "type": "address"
                },
                {
                    "internalType": "uint256",
                    "name": "",
                    "type": "uint256"
                }
            ],
            "payable": false,
            "stateMutability": "view",
            "type": "function"
        },
        {
            "constant": true,
            "inputs": [
                {
                    "internalType": "address",
                    "name": "",
                    "type": "address"
                }
            ],
            "name": "coinbasePosition",
            "outputs": [
                {
                    "internalType": "uint256",
                    "name": "",
                    "type": "uint256"
                }
            ],
            "payable": false,
            "stateMutability": "view",
            "type": "function"
        },
        {
            "constant": true,
            "inputs": [],
            "name": "BLOCKS_PER_ROYALTY",
            "outputs": [
                {
                    "internalType": "uint256",
                    "name": "",
                    "type": "uint256"
                }
            ],
            "payable": false,
            "stateMutability": "view",
            "type": "function"
        },
        {
            "constant": true,
            "inputs": [],
            "name": "getMinThreshold",
            "outputs": [
                {
                    "internalType": "uint256",
                    "name": "",
                    "type": "uint256"
                }
            ],
            "payable": false,
            "stateMutability": "view",
            "type": "function"
        },
        {
            "constant": true,
            "inputs": [],
            "name": "SLASHED_BLOCK",
            "outputs": [
                {
                    "internalType": "uint256",
                    "name": "",
                    "type": "uint256"
                }
            ],
            "payable": false,
            "stateMutability": "view",
            "type": "function"
        },
        {
            "constant": true,
            "inputs": [
                {
                    "internalType": "address",
                    "name": "",
                    "type": "address"
                }
            ],
            "name": "validatorCoinbases",
            "outputs": [
                {
                    "internalType": "address",
                    "name": "",
                    "type": "address"
                }
            ],
            "payable": false,
            "stateMutability": "view",
            "type": "function"
        },
        {
            "constant": true,
            "inputs": [
                {
                    "internalType": "address",
                    "name": "_miningKey",
                    "type": "address"
                },
                {
                    "internalType": "address",
                    "name": "_voterMiningKey",
                    "type": "address"
                }
            ],
            "name": "isValidatorAlreadyVoted",
            "outputs": [
                {
                    "internalType": "bool",
                    "name": "",
                    "type": "bool"
                }
            ],
            "payable": false,
            "stateMutability": "view",
            "type": "function"
        },
        {
            "constant": true,
            "inputs": [],
            "name": "JOINING_PARAM",
            "outputs": [
                {
                    "internalType": "uint256",
                    "name": "",
                    "type": "uint256"
                }
            ],
            "payable": false,
            "stateMutability": "view",
            "type": "function"
        },
        {
            "inputs": [
                {
                    "internalType": "address[]",
                    "name": "_genesisValidators",
                    "type": "address[]"
                },
                {
                    "internalType": "address[]",
                    "name": "_genesisCoinbases",
                    "type": "address[]"
                },
                {
                    "internalType": "uint256[]",
                    "name": "_genesisRVSBalances",
                    "type": "uint256[]"
                },
                {
                    "internalType": "string",
                    "name": "name",
                    "type": "string"
                },
                {
                    "internalType": "string",
                    "name": "symbol",
                    "type": "string"
                },
                {
                    "internalType": "uint8",
                    "name": "decimals",
                    "type": "uint8"
                },
                {
                    "internalType": "address[]",
                    "name": "_premineAddresses",
                    "type": "address[]"
                },
                {
                    "internalType": "uint256[]",
                    "name": "_premineBalances",
                    "type": "uint256[]"
                }
            ],
            "payable": false,
            "stateMutability": "nonpayable",
            "type": "constructor"
        },
        {
            "anonymous": false,
            "inputs": [
                {
                    "indexed": true,
                    "internalType": "address",
                    "name": "_validator",
                    "type": "address"
                },
                {
                    "indexed": true,
                    "internalType": "address",
                    "name": "_coinbase",
                    "type": "address"
                },
                {
                    "indexed": false,
                    "internalType": "uint256",
                    "name": "_stake",
                    "type": "uint256"
                }
            ],
            "name": "Joined",
            "type": "event"
        },
        {
            "anonymous": false,
            "inputs": [
                {
                    "indexed": true,
                    "internalType": "address",
                    "name": "_validator",
                    "type": "address"
                },
                {
                    "indexed": true,
                    "internalType": "address",
                    "name": "_coinbase",
                    "type": "address"
                }
            ],
            "name": "Left",
            "type": "event"
        },
        {
            "anonymous": false,
            "inputs": [
                {
                    "indexed": true,
                    "internalType": "address",
                    "name": "_validator",
                    "type": "address"
                },
                {
                    "indexed": false,
                    "internalType": "uint256",
                    "name": "_amount",
                    "type": "uint256"
                }
            ],
            "name": "Penalized",
            "type": "event"
        },
        {
            "anonymous": false,
            "inputs": [
                {
                    "indexed": true,
                    "internalType": "address",
                    "name": "_validator",
                    "type": "address"
                }
            ],
            "name": "ProofSubmitted",
            "type": "event"
        },
        {
            "anonymous": false,
            "inputs": [
                {
                    "indexed": true,
                    "internalType": "address",
                    "name": "_validator",
                    "type": "address"
                },
                {
                    "indexed": false,
                    "internalType": "uint256",
                    "name": "_point",
                    "type": "uint256"
                }
            ],
            "name": "PointUpdated",
            "type": "event"
        },
        {
            "anonymous": false,
            "inputs": [
                {
                    "indexed": true,
                    "internalType": "address",
                    "name": "_validator",
                    "type": "address"
                }
            ],
            "name": "StartTimer",
            "type": "event"
        },
        {
            "anonymous": false,
            "inputs": [
                {
                    "indexed": true,
                    "internalType": "address",
                    "name": "_validator",
                    "type": "address"
                },
                {
                    "indexed": false,
                    "internalType": "uint256",
                    "name": "_amount",
                    "type": "uint256"
                },
                {
                    "indexed": false,
                    "internalType": "uint256",
                    "name": "_frozenBalance",
                    "type": "uint256"
                }
            ],
            "name": "FrozenIncreased",
            "type": "event"
        },
        {
            "anonymous": false,
            "inputs": [
                {
                    "indexed": true,
                    "internalType": "address",
                    "name": "_validator",
                    "type": "address"
                },
                {
                    "indexed": false,
                    "internalType": "uint256",
                    "name": "_amount",
                    "type": "uint256"
                },
                {
                    "indexed": false,
                    "internalType": "uint256",
                    "name": "_frozenBalance",
                    "type": "uint256"
                }
            ],
            "name": "FrozenDecreased",
            "type": "event"
        },
        {
            "anonymous": false,
            "inputs": [
                {
                    "indexed": true,
                    "internalType": "address",
                    "name": "_validator",
                    "type": "address"
                },
                {
                    "indexed": false,
                    "internalType": "uint256",
                    "name": "_amount",
                    "type": "uint256"
                },
                {
                    "indexed": false,
                    "internalType": "uint256",
                    "name": "_frozenBalance",
                    "type": "uint256"
                }
            ],
            "name": "Cashout",
            "type": "event"
        },
        {
            "anonymous": false,
            "inputs": [
                {
                    "indexed": true,
                    "internalType": "address",
                    "name": "_validator",
                    "type": "address"
                },
                {
                    "indexed": false,
                    "internalType": "uint256",
                    "name": "_amount",
                    "type": "uint256"
                },
                {
                    "indexed": false,
                    "internalType": "uint256",
                    "name": "_stake",
                    "type": "uint256"
                }
            ],
            "name": "Staked",
            "type": "event"
        },
        {
            "anonymous": false,
            "inputs": [
                {
                    "indexed": true,
                    "internalType": "address",
                    "name": "_validator",
                    "type": "address"
                },
                {
                    "indexed": false,
                    "internalType": "uint256",
                    "name": "_amount",
                    "type": "uint256"
                },
                {
                    "indexed": false,
                    "internalType": "uint256",
                    "name": "_stake",
                    "type": "uint256"
                }
            ],
            "name": "Unstaked",
            "type": "event"
        },
        {
            "anonymous": false,
            "inputs": [
                {
                    "indexed": true,
                    "internalType": "address",
                    "name": "_validator",
                    "type": "address"
                },
                {
                    "indexed": false,
                    "internalType": "uint256",
                    "name": "_amount",
                    "type": "uint256"
                }
            ],
            "name": "Claimed",
            "type": "event"
        },
        {
            "anonymous": false,
            "inputs": [
                {
                    "indexed": true,
                    "internalType": "uint256",
                    "name": "_cpt",
                    "type": "uint256"
                }
            ],
            "name": "CptUpdated",
            "type": "event"
        },
        {
            "anonymous": false,
            "inputs": [
                {
                    "indexed": true,
                    "internalType": "address",
                    "name": "_validator",
                    "type": "address"
                },
                {
                    "indexed": true,
                    "internalType": "uint256",
                    "name": "_credit",
                    "type": "uint256"
                }
            ],
            "name": "CreditUpdated",
            "type": "event"
        },
        {
            "anonymous": false,
            "inputs": [
                {
                    "indexed": true,
                    "internalType": "uint256",
                    "name": "_lastBalance",
                    "type": "uint256"
                }
            ],
            "name": "LastBalanceUpdated",
            "type": "event"
        },
        {
            "anonymous": false,
            "inputs": [
                {
                    "indexed": true,
                    "internalType": "address",
                    "name": "from",
                    "type": "address"
                },
                {
                    "indexed": true,
                    "internalType": "address",
                    "name": "to",
                    "type": "address"
                },
                {
                    "indexed": false,
                    "internalType": "uint256",
                    "name": "value",
                    "type": "uint256"
                }
            ],
            "name": "Transfer",
            "type": "event"
        },
        {
            "anonymous": false,
            "inputs": [
                {
                    "indexed": true,
                    "internalType": "address",
                    "name": "_validator",
                    "type": "address"
                }
            ],
            "name": "Slashed",
            "type": "event"
        },
        {
            "anonymous": false,
            "inputs": [
                {
                    "indexed": true,
                    "internalType": "address",
                    "name": "_validator",
                    "type": "address"
                },
                {
                    "indexed": true,
                    "internalType": "uint256",
                    "name": "_unlockedAt",
                    "type": "uint256"
                }
            ],
            "name": "Locked",
            "type": "event"
        },
        {
            "anonymous": false,
            "inputs": [
                {
                    "indexed": true,
                    "internalType": "address",
                    "name": "_validator",
                    "type": "address"
                }
            ],
            "name": "MetadataUpdated",
            "type": "event"
        },
        {
            "constant": false,
            "inputs": [],
            "name": "submitProof",
            "outputs": [],
            "payable": false,
            "stateMutability": "nonpayable",
            "type": "function"
        },
        {
            "constant": false,
            "inputs": [
                {
                    "internalType": "address",
                    "name": "_royalValidator",
                    "type": "address"
                },
                {
                    "internalType": "address",
                    "name": "_reportedValidator",
                    "type": "address"
                }
            ],
            "name": "report",
            "outputs": [],
            "payable": false,
            "stateMutability": "nonpayable",
            "type": "function"
        },
        {
            "constant": false,
            "inputs": [],
            "name": "stake",
            "outputs": [],
            "payable": true,
            "stateMutability": "payable",
            "type": "function"
        },
        {
            "constant": false,
            "inputs": [
                {
                    "internalType": "address",
                    "name": "_validator",
                    "type": "address"
                }
            ],
            "name": "stake",
            "outputs": [],
            "payable": true,
            "stateMutability": "payable",
            "type": "function"
        },
        {
            "constant": false,
            "inputs": [
                {
                    "internalType": "address",
                    "name": "_coinbase",
                    "type": "address"
                }
            ],
            "name": "join",
            "outputs": [],
            "payable": true,
            "stateMutability": "payable",
            "type": "function"
        },
        {
            "constant": false,
            "inputs": [],
            "name": "leave",
            "outputs": [],
            "payable": false,
            "stateMutability": "nonpayable",
            "type": "function"
        },
        {
            "constant": false,
            "inputs": [],
            "name": "claim",
            "outputs": [],
            "payable": false,
            "stateMutability": "nonpayable",
            "type": "function"
        },
        {
            "constant": false,
            "inputs": [
                {
                    "internalType": "uint256",
                    "name": "_amount",
                    "type": "uint256"
                }
            ],
            "name": "unstake",
            "outputs": [],
            "payable": false,
            "stateMutability": "nonpayable",
            "type": "function"
        },
        {
            "constant": false,
            "inputs": [
                {
                    "internalType": "uint256",
                    "name": "_amount",
                    "type": "uint256"
                }
            ],
            "name": "cashout",
            "outputs": [],
            "payable": false,
            "stateMutability": "nonpayable",
            "type": "function"
        },
        {
            "constant": true,
            "inputs": [
                {
                    "internalType": "address",
                    "name": "_validator",
                    "type": "address"
                }
            ],
            "name": "isValidator",
            "outputs": [
                {
                    "internalType": "bool",
                    "name": "",
                    "type": "bool"
                }
            ],
            "payable": false,
            "stateMutability": "view",
            "type": "function"
        },
        {
            "constant": true,
            "inputs": [
                {
                    "internalType": "address",
                    "name": "_coinbase",
                    "type": "address"
                }
            ],
            "name": "isCoinbase",
            "outputs": [
                {
                    "internalType": "bool",
                    "name": "",
                    "type": "bool"
                }
            ],
            "payable": false,
            "stateMutability": "view",
            "type": "function"
        },
        {
            "constant": true,
            "inputs": [],
            "name": "count",
            "outputs": [
                {
                    "internalType": "uint256",
                    "name": "",
                    "type": "uint256"
                }
            ],
            "payable": false,
            "stateMutability": "view",
            "type": "function"
        },
        {
            "constant": true,
            "inputs": [],
            "name": "lockRange",
            "outputs": [
                {
                    "internalType": "uint256",
                    "name": "",
                    "type": "uint256"
                }
            ],
            "payable": false,
            "stateMutability": "view",
            "type": "function"
        },
        {
            "constant": true,
            "inputs": [],
            "name": "safeRange",
            "outputs": [
                {
                    "internalType": "uint256",
                    "name": "",
                    "type": "uint256"
                }
            ],
            "payable": false,
            "stateMutability": "view",
            "type": "function"
        },
        {
            "constant": true,
            "inputs": [],
            "name": "penalizedBase",
            "outputs": [
                {
                    "internalType": "uint256",
                    "name": "",
                    "type": "uint256"
                }
            ],
            "payable": false,
            "stateMutability": "view",
            "type": "function"
        },
        {
            "constant": true,
            "inputs": [],
            "name": "stakeRequired",
            "outputs": [
                {
                    "internalType": "uint256",
                    "name": "",
                    "type": "uint256"
                }
            ],
            "payable": false,
            "stateMutability": "view",
            "type": "function"
        },
        {
            "constant": true,
            "inputs": [],
            "name": "burned",
            "outputs": [
                {
                    "internalType": "uint256",
                    "name": "",
                    "type": "uint256"
                }
            ],
            "payable": false,
            "stateMutability": "view",
            "type": "function"
        },
        {
            "constant": true,
            "inputs": [],
            "name": "coinSupply",
            "outputs": [
                {
                    "internalType": "uint256",
                    "name": "",
                    "type": "uint256"
                }
            ],
            "payable": false,
            "stateMutability": "view",
            "type": "function"
        },
        {
            "constant": true,
            "inputs": [],
            "name": "getValidators",
            "outputs": [
                {
                    "internalType": "address[]",
                    "name": "",
                    "type": "address[]"
                }
            ],
            "payable": false,
            "stateMutability": "view",
            "type": "function"
        },
        {
            "constant": true,
            "inputs": [
                {
                    "internalType": "address",
                    "name": "_coinbase",
                    "type": "address"
                }
            ],
            "name": "getValidatorName",
            "outputs": [
                {
                    "internalType": "bytes32",
                    "name": "firstName",
                    "type": "bytes32"
                },
                {
                    "internalType": "bytes32",
                    "name": "lastName",
                    "type": "bytes32"
                }
            ],
            "payable": false,
            "stateMutability": "view",
            "type": "function"
        },
        {
            "constant": true,
            "inputs": [
                {
                    "internalType": "address",
                    "name": "_coinbase",
                    "type": "address"
                }
            ],
            "name": "validators",
            "outputs": [
                {
                    "internalType": "bytes32",
                    "name": "firstName",
                    "type": "bytes32"
                },
                {
                    "internalType": "bytes32",
                    "name": "lastName",
                    "type": "bytes32"
                },
                {
                    "internalType": "bytes32",
                    "name": "licenseId",
                    "type": "bytes32"
                },
                {
                    "internalType": "string",
                    "name": "fullAddress",
                    "type": "string"
                },
                {
                    "internalType": "bytes32",
                    "name": "state",
                    "type": "bytes32"
                },
                {
                    "internalType": "bytes32",
                    "name": "zipcode",
                    "type": "bytes32"
                },
                {
                    "internalType": "uint256",
                    "name": "expirationDate",
                    "type": "uint256"
                },
                {
                    "internalType": "uint256",
                    "name": "createdDate",
                    "type": "uint256"
                },
                {
                    "internalType": "uint256",
                    "name": "updatedDate",
                    "type": "uint256"
                },
                {
                    "internalType": "uint256",
                    "name": "minThreshold",
                    "type": "uint256"
                },
                {
                    "internalType": "bytes32",
                    "name": "contactEmail",
                    "type": "bytes32"
                },
                {
                    "internalType": "bool",
                    "name": "isCompany",
                    "type": "bool"
                }
            ],
            "payable": false,
            "stateMutability": "view",
            "type": "function"
        },
        {
            "constant": false,
            "inputs": [
                {
                    "internalType": "bytes32",
                    "name": "_firstName",
                    "type": "bytes32"
                },
                {
                    "internalType": "bytes32",
                    "name": "_lastName",
                    "type": "bytes32"
                },
                {
                    "internalType": "bytes32",
                    "name": "_licenseId",
                    "type": "bytes32"
                },
                {
                    "internalType": "string",
                    "name": "_fullAddress",
                    "type": "string"
                },
                {
                    "internalType": "bytes32",
                    "name": "_state",
                    "type": "bytes32"
                },
                {
                    "internalType": "bytes32",
                    "name": "_zipcode",
                    "type": "bytes32"
                },
                {
                    "internalType": "uint256",
                    "name": "_expirationDate",
                    "type": "uint256"
                },
                {
                    "internalType": "uint256",
                    "name": "_createdDate",
                    "type": "uint256"
                },
                {
                    "internalType": "uint256",
                    "name": "_updatedDate",
                    "type": "uint256"
                },
                {
                    "internalType": "uint256",
                    "name": "_minThreshold",
                    "type": "uint256"
                },
                {
                    "internalType": "bytes32",
                    "name": "_contactEmail",
                    "type": "bytes32"
                },
                {
                    "internalType": "bool",
                    "name": "_isCompany",
                    "type": "bool"
                }
            ],
            "name": "updateMetadata",
            "outputs": [],
            "payable": false,
            "stateMutability": "nonpayable",
            "type": "function"
        }
    ],
    "bytecode": "0x6080604052600a600c556003600d5560016015556103e86016553480156200002657600080fd5b506040516200623a3803806200623a83398181016040526101008110156200004d57600080fd5b81019080805160405193929190846401000000008211156200006e57600080fd5b838201915060208201858111156200008557600080fd5b8251866020820283011164010000000082111715620000a357600080fd5b8083526020830192505050908051906020019060200280838360005b83811015620000dc578082015181840152602081019050620000bf565b50505050905001604052602001805160405193929190846401000000008211156200010657600080fd5b838201915060208201858111156200011d57600080fd5b82518660208202830111640100000000821117156200013b57600080fd5b8083526020830192505050908051906020019060200280838360005b838110156200017457808201518184015260208101905062000157565b50505050905001604052602001805160405193929190846401000000008211156200019e57600080fd5b83820191506020820185811115620001b557600080fd5b8251866020820283011164010000000082111715620001d357600080fd5b8083526020830192505050908051906020019060200280838360005b838110156200020c578082015181840152602081019050620001ef565b50505050905001604052602001805160405193929190846401000000008211156200023657600080fd5b838201915060208201858111156200024d57600080fd5b82518660018202830111640100000000821117156200026b57600080fd5b8083526020830192505050908051906020019080838360005b83811015620002a157808201518184015260208101905062000284565b50505050905090810190601f168015620002cf5780820380516001836020036101000a031916815260200191505b5060405260200180516040519392919084640100000000821115620002f357600080fd5b838201915060208201858111156200030a57600080fd5b82518660018202830111640100000000821117156200032857600080fd5b8083526020830192505050908051906020019080838360005b838110156200035e57808201518184015260208101905062000341565b50505050905090810190601f1680156200038c5780820380516001836020036101000a031916815260200191505b506040526020018051906020019092919080516040519392919084640100000000821115620003ba57600080fd5b83820191506020820185811115620003d157600080fd5b8251866020820283011164010000000082111715620003ef57600080fd5b8083526020830192505050908051906020019060200280838360005b83811015620004285780820151818401526020810190506200040b565b50505050905001604052602001805160405193929190846401000000008211156200045257600080fd5b838201915060208201858111156200046957600080fd5b82518660208202830111640100000000821117156200048757600080fd5b8083526020830192505050908051906020019060200280838360005b83811015620004c0578082015181840152602081019050620004a3565b505050509050016040525050508484848282828282828260029080519060200190620004ee9291906200159b565b508160039080519060200190620005079291906200159b565b5080600460006101000a81548160ff021916908360ff1602179055505050505050505050506000806000808a51905060008090505b81811015620005bc578b81815181106200055257fe5b602002602001015194508c81815181106200056957fe5b602002602001015193508a81815181106200058057fe5b602002602001015192506200059c84846200062b60201b60201c565b620005ae8486620006f460201b60201c565b80806001019150506200053c565b508551905060008090505b8181101562000618576200060a878281518110620005e157fe5b6020026020010151878381518110620005f657fe5b602002602001015162000a6460201b60201c565b8080600101915050620005c7565b505050505050505050505050506200164a565b62000640816009540162000b0a60201b60201c565b6200065062000b4160201b60201c565b6000620006638362000c3b60201b60201c565b905062000677838362000d2060201b60201c565b62000689838262000eec60201b60201c565b8273ffffffffffffffffffffffffffffffffffffffff167f1449c6dd7851abc30abf37f57715f492010519147cc2652fbc38202c18a6ee9083620006d3866200101160201b60201c565b604051808381526020018281526020019250505060405180910390a2505050565b8162000706816200105a60201b60201c565b156200077a576040517f08c379a000000000000000000000000000000000000000000000000000000000815260040180806020018281038252601d8152602001807f53656e64657220697320616c726561647920612076616c696461746f7200000081525060200191505060405180910390fd5b816200078c81620010f260201b60201c565b1562000800576040517f08c379a00000000000000000000000000000000000000000000000000000000081526004018080602001828103825260158152602001807f436f696e6261736520616c72656164792075736564000000000000000000000081525060200191505060405180910390fd5b620008106200118a60201b60201c565b601860008573ffffffffffffffffffffffffffffffffffffffff1673ffffffffffffffffffffffffffffffffffffffff1681526020019081526020016000208190555060178390806001815401808255809150509060018203906000526020600020016000909192909190916101000a81548173ffffffffffffffffffffffffffffffffffffffff021916908373ffffffffffffffffffffffffffffffffffffffff1602179055505082601a60008673ffffffffffffffffffffffffffffffffffffffff1673ffffffffffffffffffffffffffffffffffffffff16815260200190815260200160002060006101000a81548173ffffffffffffffffffffffffffffffffffffffff021916908373ffffffffffffffffffffffffffffffffffffffff16021790555083601960008573ffffffffffffffffffffffffffffffffffffffff1673ffffffffffffffffffffffffffffffffffffffff16815260200190815260200160002060006101000a81548173ffffffffffffffffffffffffffffffffffffffff021916908373ffffffffffffffffffffffffffffffffffffffff1602179055508273ffffffffffffffffffffffffffffffffffffffff168473ffffffffffffffffffffffffffffffffffffffff167fd12045cbb824dccd3bf8edffc06c251eca57b57aa8af4b78ab2f2653007c808c62000a15876200101160201b60201c565b6040518082815260200191505060405180910390a362000a4d844362000a406200119760201b60201c565b01620011b160201b60201c565b62000a5e84620012b360201b60201c565b50505050565b60138290806001815401808255809150509060018203906000526020600020016000909192909190916101000a81548173ffffffffffffffffffffffffffffffffffffffff021916908373ffffffffffffffffffffffffffffffffffffffff160217905550506014819080600181540180825580915050906001820390600052602060002001600090919290919091505550806012600082825401925050819055505050565b80600981905550807f555b5773a6e2f40d63f33ea8ac35afd7cabd75d29c852e7362faa31676fed7a260405160405180910390a250565b6009543073ffffffffffffffffffffffffffffffffffffffff16311162000b685762000c39565b60006009543073ffffffffffffffffffffffffffffffffffffffff163103905080600a60008282540192505081905550600062000baa6200133d60201b60201c565b62000bca65010000000000846200134760201b620027881790919060201c565b8162000bd257fe5b04905062000bf181600854620013d260201b620045ea1790919060201c565b60088190555062000c076200145b60201b60201c565b6008547f48f8bdfe8a3b1a47754e147e370713fa5cee7be4f2971581513349a1964cf7a160405160405180910390a250505b565b6000806501000000000062000c7160085462000c5d866200101160201b60201c565b6200134760201b620027881790919060201c565b8162000c7957fe5b049050600760008473ffffffffffffffffffffffffffffffffffffffff1673ffffffffffffffffffffffffffffffffffffffff1681526020019081526020016000205481101562000ccf57600091505062000d1b565b6000600760008573ffffffffffffffffffffffffffffffffffffffff1673ffffffffffffffffffffffffffffffffffffffff168152602001908152602001600020548203905080925050505b919050565b600073ffffffffffffffffffffffffffffffffffffffff168273ffffffffffffffffffffffffffffffffffffffff16141562000dc4576040517f08c379a000000000000000000000000000000000000000000000000000000000815260040180806020018281038252601f8152602001807f45524332303a206d696e7420746f20746865207a65726f20616464726573730081525060200191505060405180910390fd5b62000de081600654620013d260201b620045ea1790919060201c565b60068190555062000e3f81600560008573ffffffffffffffffffffffffffffffffffffffff1673ffffffffffffffffffffffffffffffffffffffff16815260200190815260200160002054620013d260201b620045ea1790919060201c565b600560008473ffffffffffffffffffffffffffffffffffffffff1673ffffffffffffffffffffffffffffffffffffffff168152602001908152602001600020819055508173ffffffffffffffffffffffffffffffffffffffff16600073ffffffffffffffffffffffffffffffffffffffff167fddf252ad1be2c89b69c2b068fc378daa952ba7f163c4a11628f55a4df523b3ef836040518082815260200191505060405180910390a35050565b60006501000000000062000f2160085462000f0d866200101160201b60201c565b6200134760201b620027881790919060201c565b8162000f2957fe5b04905062000f4682826200148560201b620045a01790919060201c565b600760008573ffffffffffffffffffffffffffffffffffffffff1673ffffffffffffffffffffffffffffffffffffffff16815260200190815260200160002081905550600760008473ffffffffffffffffffffffffffffffffffffffff1673ffffffffffffffffffffffffffffffffffffffff168152602001908152602001600020548373ffffffffffffffffffffffffffffffffffffffff167fb8b17c68dbe6cd120dd338473bf86b84c67e766feac2b583d29be17f3259599a60405160405180910390a3505050565b6000600560008373ffffffffffffffffffffffffffffffffffffffff1673ffffffffffffffffffffffffffffffffffffffff168152602001908152602001600020549050919050565b60008073ffffffffffffffffffffffffffffffffffffffff16601a60008473ffffffffffffffffffffffffffffffffffffffff1673ffffffffffffffffffffffffffffffffffffffff16815260200190815260200160002060009054906101000a900473ffffffffffffffffffffffffffffffffffffffff1673ffffffffffffffffffffffffffffffffffffffff1614159050919050565b60008073ffffffffffffffffffffffffffffffffffffffff16601960008473ffffffffffffffffffffffffffffffffffffffff1673ffffffffffffffffffffffffffffffffffffffff16815260200190815260200160002060009054906101000a900473ffffffffffffffffffffffffffffffffffffffff1673ffffffffffffffffffffffffffffffffffffffff1614159050919050565b6000601780549050905090565b6000620011a96200118a60201b60201c565b600a02905090565b43811162001227576040517f08c379a00000000000000000000000000000000000000000000000000000000081526004018080602001828103825260168152602001807f696e76616c696420756e6c6f636b656420626c6f636b0000000000000000000081525060200191505060405180910390fd5b80600160008473ffffffffffffffffffffffffffffffffffffffff1673ffffffffffffffffffffffffffffffffffffffff16815260200190815260200160002081905550808273ffffffffffffffffffffffffffffffffffffffff167f9f1ec8c880f76798e7b793325d625e9b60e4082a553c98f42b6cda368dd6000860405160405180910390a35050565b43600e60008373ffffffffffffffffffffffffffffffffffffffff1673ffffffffffffffffffffffffffffffffffffffff168152602001908152602001600020819055508073ffffffffffffffffffffffffffffffffffffffff167f3d364b4503e0f292c41ea2af3eea2464e1e89d01f1a7d6519063a7342ab8652260405160405180910390a250565b6000600654905090565b6000808314156200135c5760009050620013cc565b60008284029050828482816200136e57fe5b0414620013c7576040517f08c379a0000000000000000000000000000000000000000000000000000000008152600401808060200182810382526021815260200180620062196021913960400191505060405180910390fd5b809150505b92915050565b60008082840190508381101562001451576040517f08c379a000000000000000000000000000000000000000000000000000000000815260040180806020018281038252601b8152602001807f536166654d6174683a206164646974696f6e206f766572666c6f77000000000081525060200191505060405180910390fd5b8091505092915050565b620014833073ffffffffffffffffffffffffffffffffffffffff163162000b0a60201b60201c565b565b6000620014cf83836040518060400160405280601e81526020017f536166654d6174683a207375627472616374696f6e206f766572666c6f770000815250620014d760201b60201c565b905092915050565b600083831115829062001588576040517f08c379a00000000000000000000000000000000000000000000000000000000081526004018080602001828103825283818151815260200191508051906020019080838360005b838110156200154c5780820151818401526020810190506200152f565b50505050905090810190601f1680156200157a5780820380516001836020036101000a031916815260200191505b509250505060405180910390fd5b5060008385039050809150509392505050565b828054600181600116156101000203166002900490600052602060002090601f016020900481019282601f10620015de57805160ff19168380011785556200160f565b828001600101855582156200160f579182015b828111156200160e578251825591602001919060010190620015f1565b5b5090506200161e919062001622565b5090565b6200164791905b808211156200164357600081600090555060010162001629565b5090565b90565b614bbf806200165a6000396000f3fe60806040526004361061031a5760003560e01c80638a97dc97116101ab578063cadba0d1116100f7578063eacc521011610095578063fa52c7d81161006f578063fa52c7d81461120e578063facd743b14611329578063fc20cc9014611392578063fd519fc7146113bd5761031a565b8063eacc5210146110c9578063f0fe5ac3146110f4578063f73294b8146111855761031a565b8063d66d9e19116100d1578063d66d9e1914611031578063dc49f0dc14611048578063e6bbe9dd14611073578063e70659631461109e5761031a565b8063cadba0d114610f1f578063d091afdc14610f4a578063d12616b814610fcc5761031a565b8063a9e732bb11610164578063af2e2da91161013e578063af2e2da914610e05578063b7ab4db514610e71578063bbc0951914610edd578063c201be2314610f085761031a565b8063a9e732bb14610c66578063aae505e614610ca1578063ad8490f614610ccc5761031a565b80638a97dc9714610a1757806393337f3a14610aa857806395d89b4114610ad357806397a5d5b514610b635780639f2cfaf114610bd6578063a6231cf014610c3b5761031a565b80632e17de781161026a5780634e71d92d116102235780636a00f42e116101fd5780636a00f42e146108c757806370a082311461093857806373f425611461099d57806386d7b2bb146109c85761031a565b80634e71d92d1461082e578063538ba4f914610845578063557ed1ba1461089c5761031a565b80632e17de7814610737578063313ce5671461077257806331f170c2146107a35780633494e267146107ce5780633a4b66f1146107f95780633dda0347146108035761031a565b80631afa8d29116102d757806326476204116102b1578063264762041461061f57806328b8f3861461066357806328ffe6c81461068e5780632cf5db13146106d25761031a565b80631afa8d29146105145780631d62ebd91461058f57806325de9cc6146105f45761031a565b8063050101051461031f57806306661abd1461034a57806306fdde03146103755780630d8754ac146104055780630ebf0de71461046e57806318160ddd146104e9575b600080fd5b34801561032b57600080fd5b506103346113e8565b6040518082815260200191505060405180910390f35b34801561035657600080fd5b5061035f611402565b6040518082815260200191505060405180910390f35b34801561038157600080fd5b5061038a61140f565b6040518080602001828103825283818151815260200191508051906020019080838360005b838110156103ca5780820151818401526020810190506103af565b50505050905090810190601f1680156103f75780820380516001836020036101000a031916815260200191505b509250505060405180910390f35b34801561041157600080fd5b506104546004803603602081101561042857600080fd5b81019080803573ffffffffffffffffffffffffffffffffffffffff1690602001909291905050506114b1565b604051808215151515815260200191505060405180910390f35b34801561047a57600080fd5b506104a76004803603602081101561049157600080fd5b8101908080359060200190929190505050611549565b604051808273ffffffffffffffffffffffffffffffffffffffff1673ffffffffffffffffffffffffffffffffffffffff16815260200191505060405180910390f35b3480156104f557600080fd5b506104fe611585565b6040518082815260200191505060405180910390f35b34801561052057600080fd5b5061054d6004803603602081101561053757600080fd5b810190808035906020019092919050505061158f565b604051808273ffffffffffffffffffffffffffffffffffffffff1673ffffffffffffffffffffffffffffffffffffffff16815260200191505060405180910390f35b34801561059b57600080fd5b506105de600480360360208110156105b257600080fd5b81019080803573ffffffffffffffffffffffffffffffffffffffff1690602001909291905050506115cb565b6040518082815260200191505060405180910390f35b34801561060057600080fd5b506106096116a3565b6040518082815260200191505060405180910390f35b6106616004803603602081101561063557600080fd5b81019080803573ffffffffffffffffffffffffffffffffffffffff1690602001909291905050506116cc565b005b34801561066f57600080fd5b506106786117ee565b6040518082815260200191505060405180910390f35b6106d0600480360360208110156106a457600080fd5b81019080803573ffffffffffffffffffffffffffffffffffffffff1690602001909291905050506117f8565b005b3480156106de57600080fd5b50610721600480360360208110156106f557600080fd5b81019080803573ffffffffffffffffffffffffffffffffffffffff1690602001909291905050506119fd565b6040518082815260200191505060405180910390f35b34801561074357600080fd5b506107706004803603602081101561075a57600080fd5b8101908080359060200190929190505050611a15565b005b34801561077e57600080fd5b50610787611ab2565b604051808260ff1660ff16815260200191505060405180910390f35b3480156107af57600080fd5b506107b8611ac9565b6040518082815260200191505060405180910390f35b3480156107da57600080fd5b506107e3611aea565b6040518082815260200191505060405180910390f35b610801611af0565b005b34801561080f57600080fd5b50610818611c0a565b6040518082815260200191505060405180910390f35b34801561083a57600080fd5b50610843611c64565b005b34801561085157600080fd5b5061085a611cff565b604051808273ffffffffffffffffffffffffffffffffffffffff1673ffffffffffffffffffffffffffffffffffffffff16815260200191505060405180910390f35b3480156108a857600080fd5b506108b1611d04565b6040518082815260200191505060405180910390f35b3480156108d357600080fd5b50610936600480360360408110156108ea57600080fd5b81019080803573ffffffffffffffffffffffffffffffffffffffff169060200190929190803573ffffffffffffffffffffffffffffffffffffffff169060200190929190505050611d0c565b005b34801561094457600080fd5b506109876004803603602081101561095b57600080fd5b81019080803573ffffffffffffffffffffffffffffffffffffffff169060200190929190505050611e62565b6040518082815260200191505060405180910390f35b3480156109a957600080fd5b506109b2611eab565b6040518082815260200191505060405180910390f35b3480156109d457600080fd5b50610a01600480360360208110156109eb57600080fd5b8101908080359060200190929190505050611eca565b6040518082815260200191505060405180910390f35b348015610a2357600080fd5b50610a6660048036036020811015610a3a57600080fd5b81019080803573ffffffffffffffffffffffffffffffffffffffff169060200190929190505050611eeb565b604051808273ffffffffffffffffffffffffffffffffffffffff1673ffffffffffffffffffffffffffffffffffffffff16815260200191505060405180910390f35b348015610ab457600080fd5b50610abd611f1e565b6040518082815260200191505060405180910390f35b348015610adf57600080fd5b50610ae8611f2b565b6040518080602001828103825283818151815260200191508051906020019080838360005b83811015610b28578082015181840152602081019050610b0d565b50505050905090810190601f168015610b555780820380516001836020036101000a031916815260200191505b509250505060405180910390f35b348015610b6f57600080fd5b50610bb260048036036020811015610b8657600080fd5b81019080803573ffffffffffffffffffffffffffffffffffffffff169060200190929190505050611fcd565b60405180826002811115610bc257fe5b60ff16815260200191505060405180910390f35b348015610be257600080fd5b50610c2560048036036020811015610bf957600080fd5b81019080803573ffffffffffffffffffffffffffffffffffffffff169060200190929190505050612060565b6040518082815260200191505060405180910390f35b348015610c4757600080fd5b50610c506120a9565b6040518082815260200191505060405180910390f35b348015610c7257600080fd5b50610c9f60048036036020811015610c8957600080fd5b81019080803590602001909291905050506120af565b005b348015610cad57600080fd5b50610cb6612166565b6040518082815260200191505060405180910390f35b348015610cd857600080fd5b50610e036004803603610180811015610cf057600080fd5b8101908080359060200190929190803590602001909291908035906020019092919080359060200190640100000000811115610d2b57600080fd5b820183602082011115610d3d57600080fd5b80359060200191846001830284011164010000000083111715610d5f57600080fd5b91908080601f016020809104026020016040519081016040528093929190818152602001838380828437600081840152601f19601f8201169050808301925050505050505091929192908035906020019092919080359060200190929190803590602001909291908035906020019092919080359060200190929190803590602001909291908035906020019092919080351515906020019092919050505061216c565b005b348015610e1157600080fd5b50610e5460048036036020811015610e2857600080fd5b81019080803573ffffffffffffffffffffffffffffffffffffffff169060200190929190505050612210565b604051808381526020018281526020019250505060405180910390f35b348015610e7d57600080fd5b50610e8661228a565b6040518080602001828103825283818151815260200191508051906020019060200280838360005b83811015610ec9578082015181840152602081019050610eae565b505050509050019250505060405180910390f35b348015610ee957600080fd5b50610ef2612318565b6040518082815260200191505060405180910390f35b348015610f1457600080fd5b50610f1d61231e565b005b348015610f2b57600080fd5b50610f34612394565b6040518082815260200191505060405180910390f35b348015610f5657600080fd5b50610f8360048036036020811015610f6d57600080fd5b810190808035906020019092919050505061239e565b604051808373ffffffffffffffffffffffffffffffffffffffff1673ffffffffffffffffffffffffffffffffffffffff1681526020018281526020019250505060405180910390f35b348015610fd857600080fd5b5061101b60048036036020811015610fef57600080fd5b81019080803573ffffffffffffffffffffffffffffffffffffffff1690602001909291905050506123fa565b6040518082815260200191505060405180910390f35b34801561103d57600080fd5b50611046612412565b005b34801561105457600080fd5b5061105d6125ac565b6040518082815260200191505060405180910390f35b34801561107f57600080fd5b506110886125b2565b6040518082815260200191505060405180910390f35b3480156110aa57600080fd5b506110b36125bb565b6040518082815260200191505060405180910390f35b3480156110d557600080fd5b506110de6125df565b6040518082815260200191505060405180910390f35b34801561110057600080fd5b506111436004803603602081101561111757600080fd5b81019080803573ffffffffffffffffffffffffffffffffffffffff1690602001909291905050506125f1565b604051808273ffffffffffffffffffffffffffffffffffffffff1673ffffffffffffffffffffffffffffffffffffffff16815260200191505060405180910390f35b34801561119157600080fd5b506111f4600480360360408110156111a857600080fd5b81019080803573ffffffffffffffffffffffffffffffffffffffff169060200190929190803573ffffffffffffffffffffffffffffffffffffffff169060200190929190505050612624565b604051808215151515815260200191505060405180910390f35b34801561121a57600080fd5b5061125d6004803603602081101561123157600080fd5b81019080803573ffffffffffffffffffffffffffffffffffffffff169060200190929190505050612630565b604051808d81526020018c81526020018b8152602001806020018a81526020018981526020018881526020018781526020018681526020018581526020018481526020018315151515815260200182810382528b818151815260200191508051906020019080838360005b838110156112e35780820151818401526020810190506112c8565b50505050905090810190601f1680156113105780820380516001836020036101000a031916815260200191505b509d505050505050505050505050505060405180910390f35b34801561133557600080fd5b506113786004803603602081101561134c57600080fd5b81019080803573ffffffffffffffffffffffffffffffffffffffff1690602001909291905050506126d8565b604051808215151515815260200191505060405180910390f35b34801561139e57600080fd5b506113a7612770565b6040518082815260200191505060405180910390f35b3480156113c957600080fd5b506113d2612782565b6040518082815260200191505060405180910390f35b60006016546113f5611ac9565b816113fc57fe5b04905090565b6000601780549050905090565b606060028054600181600116156101000203166002900480601f0160208091040260200160405190810160405280929190818152602001828054600181600116156101000203166002900480156114a75780601f1061147c576101008083540402835291602001916114a7565b820191906000526020600020905b81548152906001019060200180831161148a57829003601f168201915b5050505050905090565b60008073ffffffffffffffffffffffffffffffffffffffff16601960008473ffffffffffffffffffffffffffffffffffffffff1673ffffffffffffffffffffffffffffffffffffffff16815260200190815260200160002060009054906101000a900473ffffffffffffffffffffffffffffffffffffffff1673ffffffffffffffffffffffffffffffffffffffff1614159050919050565b6017818154811061155657fe5b906000526020600020016000915054906101000a900473ffffffffffffffffffffffffffffffffffffffff1681565b6000600654905090565b6013818154811061159c57fe5b906000526020600020016000915054906101000a900473ffffffffffffffffffffffffffffffffffffffff1681565b600080650100000000006115f76115e0611c0a565b6115e986611e62565b61278890919063ffffffff16565b816115fe57fe5b049050600760008473ffffffffffffffffffffffffffffffffffffffff1673ffffffffffffffffffffffffffffffffffffffff1681526020019081526020016000205481101561165257600091505061169e565b6000600760008573ffffffffffffffffffffffffffffffffffffffff1673ffffffffffffffffffffffffffffffffffffffff168152602001908152602001600020548203905080925050505b919050565b6000600a6116af611402565b6116b7611585565b816116be57fe5b04816116c657fe5b04905090565b6116d5336126d8565b611747576040517f08c379a00000000000000000000000000000000000000000000000000000000081526004018080602001828103825260178152602001807f53656e646572206973206e6f742076616c696461746f7200000000000000000081525060200191505060405180910390fd5b60028081111561175357fe5b61175c33611fcd565b600281111561176757fe5b14156117db576040517f08c379a00000000000000000000000000000000000000000000000000000000081526004018080602001828103825260148152602001807f76616c696461746f7220697320736c617368656400000000000000000000000081525060200191505060405180910390fd5b60003490506117ea828261280e565b5050565b6000601254905090565b60028081111561180457fe5b61180d33611fcd565b600281111561181857fe5b141561188c576040517f08c379a00000000000000000000000000000000000000000000000000000000081526004018080602001828103825260148152602001807f76616c696461746f7220697320736c617368656400000000000000000000000081525060200191505060405180910390fd5b43611895611402565b60155402601b5401106118f3576040517f08c379a0000000000000000000000000000000000000000000000000000000008152600401808060200182810382526029815260200180614aaf6029913960400191505060405180910390fd5b43601b54141561194e576040517f08c379a0000000000000000000000000000000000000000000000000000000008152600401808060200182810382526024815260200180614ad86024913960400191505060405180910390fd5b60003390506000349050611962828261280e565b61196a6113e8565b61197383611e62565b10156119e7576040517f08c379a00000000000000000000000000000000000000000000000000000000081526004018080602001828103825260108152602001807f7374616b65206e6f7420656e6f7567680000000000000000000000000000000081525060200191505060405180910390fd5b6119f182846128a7565b43601b81905550505050565b60016020528060005260406000206000915090505481565b611a1e336126d8565b611a90576040517f08c379a00000000000000000000000000000000000000000000000000000000081526004018080602001828103825260178152602001807f53656e646572206973206e6f742076616c696461746f7200000000000000000081525060200191505060405180910390fd5b60003390506000611aa18284612bdd565b9050611aad8282612c70565b505050565b6000600460009054906101000a900460ff16905090565b6000611ad3611eab565b611adb612c91565b611ae36117ee565b0103905090565b600d5481565b611af9336126d8565b611b6b576040517f08c379a00000000000000000000000000000000000000000000000000000000081526004018080602001828103825260178152602001807f53656e646572206973206e6f742076616c696461746f7200000000000000000081525060200191505060405180910390fd5b600280811115611b7757fe5b611b8033611fcd565b6002811115611b8b57fe5b1415611bff576040517f08c379a00000000000000000000000000000000000000000000000000000000081526004018080602001828103825260148152602001807f76616c696461746f7220697320736c617368656400000000000000000000000081525060200191505060405180910390fd5b611c08336116cc565b565b6000806009543073ffffffffffffffffffffffffffffffffffffffff16310390506000611c35611585565b611c4e650100000000008461278890919063ffffffff16565b81611c5557fe5b04905080600854019250505090565b611c6d336126d8565b611cdf576040517f08c379a00000000000000000000000000000000000000000000000000000000081526004018080602001828103825260178152602001807f53656e646572206973206e6f742076616c696461746f7200000000000000000081525060200191505060405180910390fd5b60003390506000611cef82612ce5565b9050611cfb8282612c70565b5050565b600081565b600042905090565b80611d16816126d8565b611d6b576040517f08c379a0000000000000000000000000000000000000000000000000000000008152600401808060200182810382526023815260200180614afc6023913960400191505060405180910390fd5b43601b541415611dc6576040517f08c379a0000000000000000000000000000000000000000000000000000000008152600401808060200182810382526024815260200180614ad86024913960400191505060405180910390fd5b6000611de28484611dd5612770565b611ddd6116a3565b612d5e565b90506000611df08483613054565b9050611dfc84826130df565b611e06848261320d565b8373ffffffffffffffffffffffffffffffffffffffff167fce6324a0bfd5e264b9b4039aeeab1620f460c269fa080cbd889681a37aaadc65826040518082815260200191505060405180910390a243601b819055505050505050565b6000600560008373ffffffffffffffffffffffffffffffffffffffff1673ffffffffffffffffffffffffffffffffffffffff168152602001908152602001600020549050919050565b60008073ffffffffffffffffffffffffffffffffffffffff1631905090565b60148181548110611ed757fe5b906000526020600020016000915090505481565b60196020528060005260406000206000915054906101000a900473ffffffffffffffffffffffffffffffffffffffff1681565b6000601380549050905090565b606060038054600181600116156101000203166002900480601f016020809104026020016040519081016040528092919081815260200182805460018160011615610100020316600290048015611fc35780601f10611f9857610100808354040283529160200191611fc3565b820191906000526020600020905b815481529060010190602001808311611fa657829003601f168201915b5050505050905090565b600080600160008473ffffffffffffffffffffffffffffffffffffffff1673ffffffffffffffffffffffffffffffffffffffff1681526020019081526020016000205490504381101561202457600091505061205b565b7f8000000000000000000000000000000000000000000000000000000000000000811461205557600191505061205b565b60029150505b919050565b6000600b60008373ffffffffffffffffffffffffffffffffffffffff1673ffffffffffffffffffffffffffffffffffffffff168152602001908152602001600020549050919050565b601c5481565b600060028111156120bc57fe5b6120c533611fcd565b60028111156120d057fe5b14612143576040517f08c379a000000000000000000000000000000000000000000000000000000000815260040180806020018281038252601e8152602001807f76616c696461746f72206973206c6f636b6564206f7220736c6173686564000081525060200191505060405180910390fd5b61214b613339565b600033905061215a8183613412565b6121626134fc565b5050565b60165481565b612175336126d8565b6121e7576040517f08c379a00000000000000000000000000000000000000000000000000000000081526004018080602001828103825260178152602001807f53656e646572206973206e6f742076616c696461746f7200000000000000000081525060200191505060405180910390fd5b6000339050612201818e8e8e8e8e8e8e8e8e8e8e8e61351e565b50505050505050505050505050565b6000806000601960008573ffffffffffffffffffffffffffffffffffffffff1673ffffffffffffffffffffffffffffffffffffffff16815260200190815260200160002060009054906101000a900473ffffffffffffffffffffffffffffffffffffffff169050612280816136aa565b9250925050915091565b6060601780548060200260200160405190810160405280929190818152602001828054801561230e57602002820191906000526020600020905b8160009054906101000a900473ffffffffffffffffffffffffffffffffffffffff1673ffffffffffffffffffffffffffffffffffffffff16815260200190600101908083116122c4575b5050505050905090565b601b5481565b60004190506000601960008373ffffffffffffffffffffffffffffffffffffffff1673ffffffffffffffffffffffffffffffffffffffff16815260200190815260200160002060009054906101000a900473ffffffffffffffffffffffffffffffffffffffff16905061239081613703565b5050565b6501000000000081565b600080601383815481106123ae57fe5b9060005260206000200160009054906101000a900473ffffffffffffffffffffffffffffffffffffffff16601484815481106123e657fe5b906000526020600020015491509150915091565b60186020528060005260406000206000915090505481565b61241b336126d8565b61248d576040517f08c379a00000000000000000000000000000000000000000000000000000000081526004018080602001828103825260178152602001807f53656e646572206973206e6f742076616c696461746f7200000000000000000081525060200191505060405180910390fd5b6000600281111561249a57fe5b6124a333611fcd565b60028111156124ae57fe5b14612521576040517f08c379a000000000000000000000000000000000000000000000000000000000815260040180806020018281038252601e8152602001807f76616c696461746f72206973206c6f636b6564206f7220736c6173686564000081525060200191505060405180910390fd5b43601b54141561257c576040517f08c379a0000000000000000000000000000000000000000000000000000000008152600401808060200182810382526024815260200180614ad86024913960400191505060405180910390fd5b6000339050600061258c826138b2565b90506125988282612c70565b6125a1826138d8565b43601b819055505050565b600c5481565b60006008905090565b7f800000000000000000000000000000000000000000000000000000000000000081565b60006125e9611402565b600a02905090565b601a6020528060005260406000206000915054906101000a900473ffffffffffffffffffffffffffffffffffffffff1681565b60006001905092915050565b600080600060606000806000806000806000806000601960008f73ffffffffffffffffffffffffffffffffffffffff1673ffffffffffffffffffffffffffffffffffffffff16815260200190815260200160002060009054906101000a900473ffffffffffffffffffffffffffffffffffffffff1690506126b081613a8c565b9c509c509c509c509c509c509c509c509c509c509c509c505091939597999b5091939597999b565b60008073ffffffffffffffffffffffffffffffffffffffff16601a60008473ffffffffffffffffffffffffffffffffffffffff1673ffffffffffffffffffffffffffffffffffffffff16815260200190815260200160002060009054906101000a900473ffffffffffffffffffffffffffffffffffffffff1673ffffffffffffffffffffffffffffffffffffffff1614159050919050565b600061277a611402565b600202905090565b60155481565b60008083141561279b5760009050612808565b60008284029050828482816127ac57fe5b0414612803576040517f08c379a0000000000000000000000000000000000000000000000000000000008152600401808060200182810382526021815260200180614b1f6021913960400191505060405180910390fd5b809150505b92915050565b61281b8160095401613bea565b612823613339565b600061282e83613c21565b905061283a8383613cf4565b6128448382613eb1565b8273ffffffffffffffffffffffffffffffffffffffff167f1449c6dd7851abc30abf37f57715f492010519147cc2652fbc38202c18a6ee908361288686611e62565b604051808381526020018281526020019250505060405180910390a2505050565b816128b1816126d8565b15612924576040517f08c379a000000000000000000000000000000000000000000000000000000000815260040180806020018281038252601d8152602001807f53656e64657220697320616c726561647920612076616c696461746f7200000081525060200191505060405180910390fd5b8161292e816114b1565b156129a1576040517f08c379a00000000000000000000000000000000000000000000000000000000081526004018080602001828103825260158152602001807f436f696e6261736520616c72656164792075736564000000000000000000000081525060200191505060405180910390fd5b6129a9611402565b601860008573ffffffffffffffffffffffffffffffffffffffff1673ffffffffffffffffffffffffffffffffffffffff1681526020019081526020016000208190555060178390806001815401808255809150509060018203906000526020600020016000909192909190916101000a81548173ffffffffffffffffffffffffffffffffffffffff021916908373ffffffffffffffffffffffffffffffffffffffff1602179055505082601a60008673ffffffffffffffffffffffffffffffffffffffff1673ffffffffffffffffffffffffffffffffffffffff16815260200190815260200160002060006101000a81548173ffffffffffffffffffffffffffffffffffffffff021916908373ffffffffffffffffffffffffffffffffffffffff16021790555083601960008573ffffffffffffffffffffffffffffffffffffffff1673ffffffffffffffffffffffffffffffffffffffff16815260200190815260200160002060006101000a81548173ffffffffffffffffffffffffffffffffffffffff021916908373ffffffffffffffffffffffffffffffffffffffff1602179055508273ffffffffffffffffffffffffffffffffffffffff168473ffffffffffffffffffffffffffffffffffffffff167fd12045cbb824dccd3bf8edffc06c251eca57b57aa8af4b78ab2f2653007c808c612ba687611e62565b6040518082815260200191505060405180910390a3612bce8443612bc86125df565b01613fbf565b612bd7846140c0565b50505050565b600080612be984612ce5565b9050612bf5848461414a565b612c00846000613eb1565b600083820190508473ffffffffffffffffffffffffffffffffffffffff167f7fc4727e062e336010f2c282598ef5f14facb3de68cf8195c2f23e1454b2b74e85612c4988611e62565b604051808381526020018281526020019250505060405180910390a2809250505092915050565b612c7a8282614304565b612c8d8243612c876125df565b01613fbf565b5050565b6000806009543073ffffffffffffffffffffffffffffffffffffffff163111612cbb576000612cd8565b6009543073ffffffffffffffffffffffffffffffffffffffff1631035b905080600a540191505090565b6000612cef613339565b6000612cfa83613c21565b9050612d07836000613eb1565b8273ffffffffffffffffffffffffffffffffffffffff167fd8138f8a3f377c5259ca548e70e4c2de94f129f5a11036a15b69513cba2b426a826040518082815260200191505060405180910390a280915050919050565b600083836000600e60008473ffffffffffffffffffffffffffffffffffffffff1673ffffffffffffffffffffffffffffffffffffffff1681526020019081526020016000205411612e17576040517f08c379a00000000000000000000000000000000000000000000000000000000081526004018080602001828103825260118152602001807f74696d6572206e6f74207374617274656400000000000000000000000000000081525060200191505060405180910390fd5b4381600e60008573ffffffffffffffffffffffffffffffffffffffff1673ffffffffffffffffffffffffffffffffffffffff168152602001908152602001600020540110612ecd576040517f08c379a000000000000000000000000000000000000000000000000000000000815260040180806020018281038252601a8152602001807f746f6f206561726c7920746f6f2062652070656e616c697a656400000000000081525060200191505060405180910390fd5b612ed687614432565b612edf866140c0565b601160008773ffffffffffffffffffffffffffffffffffffffff1673ffffffffffffffffffffffffffffffffffffffff16815260200190815260200160002060008154809291906001019190505550601160008773ffffffffffffffffffffffffffffffffffffffff1673ffffffffffffffffffffffffffffffffffffffff16815260200190815260200160002054600f60008873ffffffffffffffffffffffffffffffffffffffff1673ffffffffffffffffffffffffffffffffffffffff1681526020019081526020016000205410612fbb5783925061304a565b6000600f60008873ffffffffffffffffffffffffffffffffffffffff1673ffffffffffffffffffffffffffffffffffffffff16815260200190815260200160002054601160008973ffffffffffffffffffffffffffffffffffffffff1673ffffffffffffffffffffffffffffffffffffffff168152602001908152602001600020540390508060020a85029350505b5050949350505050565b600080829050600061306585612060565b90508181101561309357600061307a86612ce5565b90506130868682612c70565b61308f86612060565b9150505b818110156130c85760006130a6866138b2565b90506130b28682612c70565b6130bb866138d8565b6130c486612060565b9150505b818110156130d4578091505b819250505092915050565b61313181600b60008573ffffffffffffffffffffffffffffffffffffffff1673ffffffffffffffffffffffffffffffffffffffff168152602001908152602001600020546145a090919063ffffffff16565b600b60008473ffffffffffffffffffffffffffffffffffffffff1673ffffffffffffffffffffffffffffffffffffffff168152602001908152602001600020819055508173ffffffffffffffffffffffffffffffffffffffff167f366703a486081d66a8ef7d8a544aa1f2a91b5f4906e9d5807c3f3ce27ee2d59082600b60008673ffffffffffffffffffffffffffffffffffffffff1673ffffffffffffffffffffffffffffffffffffffff16815260200190815260200160002054604051808381526020018281526020019250505060405180910390a25050565b600061321883611e62565b613220611585565b03905060008114156132aa576000613236611585565b61324f650100000000008561278890919063ffffffff16565b8161325657fe5b04905061326e816008546145ea90919063ffffffff16565b6008819055506008547f48f8bdfe8a3b1a47754e147e370713fa5cee7be4f2971581513349a1964cf7a160405160405180910390a25050613335565b6000816132c6650100000000008561278890919063ffffffff16565b816132cd57fe5b04905060006132db85613c21565b90506132f2826008546145ea90919063ffffffff16565b6008819055506133028582613eb1565b6008547f48f8bdfe8a3b1a47754e147e370713fa5cee7be4f2971581513349a1964cf7a160405160405180910390a25050505b5050565b6009543073ffffffffffffffffffffffffffffffffffffffff16311161335e57613410565b60006009543073ffffffffffffffffffffffffffffffffffffffff163103905080600a600082825401925050819055506000613398611585565b6133b1650100000000008461278890919063ffffffff16565b816133b857fe5b0490506133d0816008546145ea90919063ffffffff16565b6008819055506133de6134fc565b6008547f48f8bdfe8a3b1a47754e147e370713fa5cee7be4f2971581513349a1964cf7a160405160405180910390a250505b565b61341c82826130df565b8173ffffffffffffffffffffffffffffffffffffffff166108fc829081150290604051600060405180830381858888f19350505050158015613462573d6000803e3d6000fd5b508173ffffffffffffffffffffffffffffffffffffffff167f4f32a1005fcf45a64a68bc4258b4e0f5522b7aa6a06506781aa4e6c6395c48d082600b60008673ffffffffffffffffffffffffffffffffffffffff1673ffffffffffffffffffffffffffffffffffffffff16815260200190815260200160002054604051808381526020018281526020019250505060405180910390a25050565b61351c3073ffffffffffffffffffffffffffffffffffffffff1631613bea565b565b6040518061018001604052808d81526020018c81526020018b81526020018a81526020018981526020018881526020018781526020018681526020018581526020018481526020018381526020018215158152506000808f73ffffffffffffffffffffffffffffffffffffffff1673ffffffffffffffffffffffffffffffffffffffff16815260200190815260200160002060008201518160000155602082015181600101556040820151816002015560608201518160030190805190602001906135ea9291906149bb565b506080820151816004015560a0820151816005015560c0820151816006015560e082015181600701556101008201518160080155610120820151816009015561014082015181600a015561016082015181600b0160006101000a81548160ff0219169083151502179055509050508c73ffffffffffffffffffffffffffffffffffffffff167fe08224dc11618a1e23016c28d3fb80e30630f4df34d9f95890fe9ce89a85d07e60405160405180910390a250505050505050505050505050565b60008060008060008573ffffffffffffffffffffffffffffffffffffffff1673ffffffffffffffffffffffffffffffffffffffff1681526020019081526020016000209050806000015492508060010154915050915091565b43600e60008373ffffffffffffffffffffffffffffffffffffffff1673ffffffffffffffffffffffffffffffffffffffff16815260200190815260200160002054106137b7576040517f08c379a00000000000000000000000000000000000000000000000000000000081526004018080602001828103825260108152602001807f616c7265616479207375626d697465640000000000000000000000000000000081525060200191505060405180910390fd5b6137c0816140c0565b601060008273ffffffffffffffffffffffffffffffffffffffff1673ffffffffffffffffffffffffffffffffffffffff168152602001908152602001600020600081548092919060010191905055506000600c54601060008473ffffffffffffffffffffffffffffffffffffffff1673ffffffffffffffffffffffffffffffffffffffff168152602001908152602001600020548161385b57fe5b06141561386c5761386b81614432565b5b8073ffffffffffffffffffffffffffffffffffffffff167f87dc06121a3dc1ab46683cb20422ce8b605fd9a4369ad5128f0dc2a49283e84c60405160405180910390a250565b6000806138be83611e62565b905060006138cc8483612bdd565b90508092505050919050565b6000601a60008373ffffffffffffffffffffffffffffffffffffffff1673ffffffffffffffffffffffffffffffffffffffff16815260200190815260200160002060009054906101000a900473ffffffffffffffffffffffffffffffffffffffff16905061394581614672565b6000601a60008473ffffffffffffffffffffffffffffffffffffffff1673ffffffffffffffffffffffffffffffffffffffff16815260200190815260200160002060006101000a81548173ffffffffffffffffffffffffffffffffffffffff021916908373ffffffffffffffffffffffffffffffffffffffff1602179055506139cd82614830565b8073ffffffffffffffffffffffffffffffffffffffff168273ffffffffffffffffffffffffffffffffffffffff167f4b9ee4dd061ba088b22898a02491f3896a4a580c6cda8783ca579ee159f8e8c560405160405180910390a36003613a31611402565b1015613a88576040517f08c379a000000000000000000000000000000000000000000000000000000000815260040180806020018281038252602a815260200180614b61602a913960400191505060405180910390fd5b5050565b6000806000606060008060008060008060008060008060008f73ffffffffffffffffffffffffffffffffffffffff1673ffffffffffffffffffffffffffffffffffffffff168152602001908152602001600020905080600001549c5080600101549b5080600201549a50806003018054600181600116156101000203166002900480601f016020809104026020016040519081016040528092919081815260200182805460018160011615610100020316600290048015613b8e5780601f10613b6357610100808354040283529160200191613b8e565b820191906000526020600020905b815481529060010190602001808311613b7157829003601f168201915b5050505050995080600401549850806005015497508060060154965080600701549550806008015494508060090154935080600a0154925080600b0160009054906101000a900460ff1691505091939597999b5091939597999b565b80600981905550807f555b5773a6e2f40d63f33ea8ac35afd7cabd75d29c852e7362faa31676fed7a260405160405180910390a250565b60008065010000000000613c48600854613c3a86611e62565b61278890919063ffffffff16565b81613c4f57fe5b049050600760008473ffffffffffffffffffffffffffffffffffffffff1673ffffffffffffffffffffffffffffffffffffffff16815260200190815260200160002054811015613ca3576000915050613cef565b6000600760008573ffffffffffffffffffffffffffffffffffffffff1673ffffffffffffffffffffffffffffffffffffffff168152602001908152602001600020548203905080925050505b919050565b600073ffffffffffffffffffffffffffffffffffffffff168273ffffffffffffffffffffffffffffffffffffffff161415613d97576040517f08c379a000000000000000000000000000000000000000000000000000000000815260040180806020018281038252601f8152602001807f45524332303a206d696e7420746f20746865207a65726f20616464726573730081525060200191505060405180910390fd5b613dac816006546145ea90919063ffffffff16565b600681905550613e0481600560008573ffffffffffffffffffffffffffffffffffffffff1673ffffffffffffffffffffffffffffffffffffffff168152602001908152602001600020546145ea90919063ffffffff16565b600560008473ffffffffffffffffffffffffffffffffffffffff1673ffffffffffffffffffffffffffffffffffffffff168152602001908152602001600020819055508173ffffffffffffffffffffffffffffffffffffffff16600073ffffffffffffffffffffffffffffffffffffffff167fddf252ad1be2c89b69c2b068fc378daa952ba7f163c4a11628f55a4df523b3ef836040518082815260200191505060405180910390a35050565b600065010000000000613ed7600854613ec986611e62565b61278890919063ffffffff16565b81613ede57fe5b049050613ef482826145a090919063ffffffff16565b600760008573ffffffffffffffffffffffffffffffffffffffff1673ffffffffffffffffffffffffffffffffffffffff16815260200190815260200160002081905550600760008473ffffffffffffffffffffffffffffffffffffffff1673ffffffffffffffffffffffffffffffffffffffff168152602001908152602001600020548373ffffffffffffffffffffffffffffffffffffffff167fb8b17c68dbe6cd120dd338473bf86b84c67e766feac2b583d29be17f3259599a60405160405180910390a3505050565b438111614034576040517f08c379a00000000000000000000000000000000000000000000000000000000081526004018080602001828103825260168152602001807f696e76616c696420756e6c6f636b656420626c6f636b0000000000000000000081525060200191505060405180910390fd5b80600160008473ffffffffffffffffffffffffffffffffffffffff1673ffffffffffffffffffffffffffffffffffffffff16815260200190815260200160002081905550808273ffffffffffffffffffffffffffffffffffffffff167f9f1ec8c880f76798e7b793325d625e9b60e4082a553c98f42b6cda368dd6000860405160405180910390a35050565b43600e60008373ffffffffffffffffffffffffffffffffffffffff1673ffffffffffffffffffffffffffffffffffffffff168152602001908152602001600020819055508073ffffffffffffffffffffffffffffffffffffffff167f3d364b4503e0f292c41ea2af3eea2464e1e89d01f1a7d6519063a7342ab8652260405160405180910390a250565b600073ffffffffffffffffffffffffffffffffffffffff168273ffffffffffffffffffffffffffffffffffffffff1614156141d0576040517f08c379a0000000000000000000000000000000000000000000000000000000008152600401808060200182810382526021815260200180614b406021913960400191505060405180910390fd5b61423c81604051806060016040528060228152602001614a8d60229139600560008673ffffffffffffffffffffffffffffffffffffffff1673ffffffffffffffffffffffffffffffffffffffff168152602001908152602001600020546148fb9092919063ffffffff16565b600560008473ffffffffffffffffffffffffffffffffffffffff1673ffffffffffffffffffffffffffffffffffffffff16815260200190815260200160002081905550614294816006546145a090919063ffffffff16565b600681905550600073ffffffffffffffffffffffffffffffffffffffff168273ffffffffffffffffffffffffffffffffffffffff167fddf252ad1be2c89b69c2b068fc378daa952ba7f163c4a11628f55a4df523b3ef836040518082815260200191505060405180910390a35050565b61435681600b60008573ffffffffffffffffffffffffffffffffffffffff1673ffffffffffffffffffffffffffffffffffffffff168152602001908152602001600020546145ea90919063ffffffff16565b600b60008473ffffffffffffffffffffffffffffffffffffffff1673ffffffffffffffffffffffffffffffffffffffff168152602001908152602001600020819055508173ffffffffffffffffffffffffffffffffffffffff167faf1eabfa68d345ba5007d2f3fae9c6f58e9a9d3fe16c21e651bd00f9bac4ad4d82600b60008673ffffffffffffffffffffffffffffffffffffffff1673ffffffffffffffffffffffffffffffffffffffff16815260200190815260200160002054604051808381526020018281526020019250505060405180910390a25050565b600d54601160008373ffffffffffffffffffffffffffffffffffffffff1673ffffffffffffffffffffffffffffffffffffffff1681526020019081526020016000205401600f60008373ffffffffffffffffffffffffffffffffffffffff1673ffffffffffffffffffffffffffffffffffffffff16815260200190815260200160002054106144c05761459d565b600f60008273ffffffffffffffffffffffffffffffffffffffff1673ffffffffffffffffffffffffffffffffffffffff168152602001908152602001600020600081548092919060010191905055508073ffffffffffffffffffffffffffffffffffffffff167f88a501824285cc7436ca02dbfc2953e94f577c28429dec36bac9c7782699a9d8600f60008473ffffffffffffffffffffffffffffffffffffffff1673ffffffffffffffffffffffffffffffffffffffff168152602001908152602001600020546040518082815260200191505060405180910390a25b50565b60006145e283836040518060400160405280601e81526020017f536166654d6174683a207375627472616374696f6e206f766572666c6f7700008152506148fb565b905092915050565b600080828401905083811015614668576040517f08c379a000000000000000000000000000000000000000000000000000000000815260040180806020018281038252601b8152602001807f536166654d6174683a206164646974696f6e206f766572666c6f77000000000081525060200191505060405180910390fd5b8091505092915050565b6000601860008373ffffffffffffffffffffffffffffffffffffffff1673ffffffffffffffffffffffffffffffffffffffff1681526020019081526020016000205490506000601760016146c4611402565b03815481106146cf57fe5b9060005260206000200160009054906101000a900473ffffffffffffffffffffffffffffffffffffffff16905081601860008373ffffffffffffffffffffffffffffffffffffffff1673ffffffffffffffffffffffffffffffffffffffff16815260200190815260200160002081905550806017838154811061474e57fe5b9060005260206000200160006101000a81548173ffffffffffffffffffffffffffffffffffffffff021916908373ffffffffffffffffffffffffffffffffffffffff16021790555060178054809190600190036147ab9190614a3b565b506000601960008573ffffffffffffffffffffffffffffffffffffffff1673ffffffffffffffffffffffffffffffffffffffff16815260200190815260200160002060006101000a81548173ffffffffffffffffffffffffffffffffffffffff021916908373ffffffffffffffffffffffffffffffffffffffff160217905550505050565b6000600e60008373ffffffffffffffffffffffffffffffffffffffff1673ffffffffffffffffffffffffffffffffffffffff16815260200190815260200160002081905550601160008273ffffffffffffffffffffffffffffffffffffffff1673ffffffffffffffffffffffffffffffffffffffff16815260200190815260200160002054600f60008373ffffffffffffffffffffffffffffffffffffffff1673ffffffffffffffffffffffffffffffffffffffff1681526020019081526020016000208190555050565b60008383111582906149a8576040517f08c379a00000000000000000000000000000000000000000000000000000000081526004018080602001828103825283818151815260200191508051906020019080838360005b8381101561496d578082015181840152602081019050614952565b50505050905090810190601f16801561499a5780820380516001836020036101000a031916815260200191505b509250505060405180910390fd5b5060008385039050809150509392505050565b828054600181600116156101000203166002900490600052602060002090601f016020900481019282601f106149fc57805160ff1916838001178555614a2a565b82800160010185558215614a2a579182015b82811115614a29578251825591602001919060010190614a0e565b5b509050614a379190614a67565b5090565b815481835581811115614a6257818360005260206000209182019101614a619190614a67565b5b505050565b614a8991905b80821115614a85576000816000905550600101614a6d565b5090565b9056fe45524332303a206275726e20616d6f756e7420657863656564732062616c616e63656a6f696e696e6720746f6f20717569636b20636f756c642064657374726f7920636f6e63656e7375736f6e6c79206f6e6520616374696f6e206a6f696e2f6c656176652070657220626c6f636b7265706f727465642061646472657373206973206e6f7420612076616c696461746f72536166654d6174683a206d756c7469706c69636174696f6e206f766572666c6f7745524332303a206275726e2066726f6d20746865207a65726f2061646472657373636f6e63656e73757320776f726b732077697468206174206c6561737420332076616c696461746f7273a265627a7a723158202949b5a07d2fa4c1151e38cf4d3203e66df8d6ad65ec9b6ec8b51eb84eb2d30764736f6c634300050b0032536166654d6174683a206d756c7469706c69636174696f6e206f766572666c6f77",
    "source": "pragma solidity ^0.5.0;\r\n\r\nimport \"./openzeppelin/SafeMath.sol\";\r\nimport \"./Frozen.sol\";\r\nimport \"./Staking.sol\";\r\nimport \"./Lock.sol\";\r\nimport \"./Penalize.sol\";\r\nimport \"./ValidatorMetadata.sol\";\r\nimport \"./Premine.sol\";\r\n\r\n/**\r\n * @title drkchain validators smart contract\r\n */\r\ncontract Validator is ValidatorMetadata, Lock, Staking, Frozen, Penalize, Premine {\r\n    using SafeMath for uint;\r\n\r\n    event Joined(address indexed _validator, address indexed _coinbase, uint _stake);\r\n    event Left(address indexed _validator, address indexed _coinbase);\r\n    event Penalized(address indexed _validator, uint _amount);\r\n\r\n    modifier onlyValidator() {\r\n        require(isValidator(msg.sender), \"Sender is not validator\");\r\n        _;\r\n    }\r\n\r\n    modifier onlyNotValidator(address _validator) {\r\n        require(!isValidator(_validator), \"Sender is already a validator\");\r\n        _;\r\n    }\r\n\r\n    modifier onlyNotCoinbase(address _coinbase) {\r\n        require(!isCoinbase(_coinbase), \"Coinbase already used\");\r\n        _;\r\n    }\r\n\r\n    modifier joinable() {\r\n        require(lastJoinLeaveBlock + JOINING_PARAM * count() < block.number, \"joining too quick could destroy concensus\");\r\n        _;\r\n    }\r\n\r\n    modifier reportable(address _reportedValidator) {\r\n        require(isValidator(_reportedValidator), \"reported address is not a validator\");\r\n        _;\r\n    }\r\n\r\n    modifier noJoinLeaveBefore() {\r\n        require(lastJoinLeaveBlock != block.number, \"only one action join/leave per block\");\r\n        _;\r\n    }\r\n\r\n    // zero address\r\n    address constant public ZERO_ADDRESS = address(0x0);\r\n\r\n    // the next joinable block is lastJoinedBlock + JOINING_PARAM * Number of current Validators\r\n    uint public JOINING_PARAM = 1;\r\n\r\n    // part of coinSupply to stake and become a validator\r\n    uint public VALIDATOR_STAKE_RATE = 1000;\r\n\r\n    // coinbases list\r\n    address[] public coinbases;\r\n\r\n    // pairing 1:1 validator and coinbase\r\n    mapping(address => uint) public coinbasePosition;\r\n\r\n    // validator's address of a coinbase\r\n    mapping(address => address) public coinbaseValidators;\r\n    // coinbase of a validator\r\n    mapping(address => address) public validatorCoinbases;\r\n\r\n    // last block leave or join action triggered\r\n    uint public lastJoinLeaveBlock;\r\n\r\n    // premine from genesis block\r\n    uint public premineSum;\r\n\r\n    /**\r\n    * contract initialize\r\n    */\r\n    constructor(\r\n        address[] memory _genesisValidators,\r\n        address[] memory _genesisCoinbases,\r\n        uint[] memory _genesisRVSBalances,\r\n        string memory name,\r\n        string memory symbol,\r\n        uint8 decimals,\r\n        address[] memory _premineAddresses,\r\n        uint[] memory _premineBalances\r\n    )\r\n        public\r\n        Staking(name, symbol, decimals)\r\n    {\r\n        // Require: arrays got same length, concensus takes care of this\r\n        address _coinbase;\r\n        address _validator;\r\n        uint _RVSBalance;\r\n        uint n = _genesisCoinbases.length;\r\n        for (uint i = 0; i < n; i++) {\r\n            _coinbase = _genesisCoinbases[i];\r\n            _validator = _genesisValidators[i];\r\n            _RVSBalance = _genesisRVSBalances[i];\r\n            _stake(_validator, _RVSBalance);\r\n            _addValidator(_validator, _coinbase);\r\n        }\r\n        // Require: arrays got same length, concensus takes care of this\r\n        n = _premineAddresses.length;\r\n        for (uint i = 0; i < n; i++) {\r\n            _addPremine(_premineAddresses[i], _premineBalances[i]);\r\n        }\r\n    }\r\n\r\n    // Penalize Process\r\n\r\n    // Miners should add tx to call this public function,\r\n    // else their work wont be counted and got trouble with reports in future\r\n    function submitProof(\r\n    )\r\n        public\r\n    {\r\n        address _coinbase = block.coinbase;\r\n        address _validator = coinbaseValidators[_coinbase];\r\n        _submitProof(_validator);\r\n    }\r\n\r\n    function preparePenalize(\r\n        address _reportedValidator,\r\n        uint _expectedPenalizedAmount\r\n    )\r\n        internal\r\n        returns(uint)\r\n    {\r\n        uint penalizedAmount = _expectedPenalizedAmount;\r\n        uint frozenBalance = getFrozenBalance(_reportedValidator);\r\n        // forced withdraw all reward balance\r\n        if (frozenBalance < penalizedAmount) {\r\n            uint toFrozenAmount = _claim(_reportedValidator);\r\n            _pushToFrozen(_reportedValidator, toFrozenAmount);\r\n            frozenBalance = getFrozenBalance(_reportedValidator);\r\n        }\r\n\r\n        // forced leave, if frozen doesnt have enough\r\n        if (frozenBalance < penalizedAmount) {\r\n            uint toFrozenAmount = _leave(_reportedValidator);\r\n            _pushToFrozen(_reportedValidator, toFrozenAmount);\r\n            _removeValidator(_reportedValidator);\r\n            frozenBalance = getFrozenBalance(_reportedValidator);\r\n        }\r\n\r\n        // if penalizedAmount > whole locked balance of _reportedValidator\r\n        if (frozenBalance < penalizedAmount) {\r\n            penalizedAmount = frozenBalance;\r\n        }\r\n        return penalizedAmount;\r\n    }\r\n\r\n    // Any coinbase can report inactive validators and get royal points,\r\n    // which reduce their penalized amount, if they face a report in future\r\n    function report(\r\n        address _royalValidator,\r\n        address _reportedValidator\r\n    )\r\n        public\r\n        reportable(_reportedValidator)\r\n        noJoinLeaveBefore()\r\n    {\r\n        uint expectedPenalizedAmount = _report(_royalValidator, _reportedValidator, safeRange(), penalizedBase());\r\n        uint penalizedAmount = preparePenalize(_reportedValidator, expectedPenalizedAmount);\r\n        // penalizedAmount from frozen will be  distributed to sealers\r\n        _reduceFrozenBalance(_reportedValidator, penalizedAmount);\r\n        _distributePenalize(_reportedValidator, penalizedAmount);\r\n\r\n        emit Penalized(_reportedValidator, penalizedAmount);\r\n        lastJoinLeaveBlock = block.number;\r\n    }\r\n\r\n    // Validator's Actions\r\n\r\n    // stake coin and received RVS Token with rate 1:1\r\n    // more RVS Token means more reward shared\r\n    function stake(\r\n        address _validator\r\n    )\r\n        public\r\n        payable\r\n        onlyValidator()\r\n        isNotSlashed()\r\n    {\r\n        uint _amount = msg.value;\r\n        _stake(_validator, _amount);\r\n    }\r\n\r\n    // stake direct from validator's wallet\r\n    function stake()\r\n        public\r\n        payable\r\n        onlyValidator()\r\n        isNotSlashed()\r\n    {\r\n        stake(msg.sender);\r\n    }\r\n\r\n    function join(\r\n        address _coinbase\r\n    )\r\n        public\r\n        payable\r\n        isNotSlashed()\r\n        joinable()\r\n        noJoinLeaveBefore()\r\n    {\r\n        address _validator = msg.sender;\r\n        uint _amount = msg.value;\r\n        _stake(_validator, _amount);\r\n        require(balanceOf(_validator) >= stakeRequired(), \"stake not enough\");\r\n        _addValidator(_validator, _coinbase);\r\n        lastJoinLeaveBlock = block.number;\r\n    }\r\n\r\n    function leave()\r\n        public\r\n        onlyValidator()\r\n        notLocked()\r\n        noJoinLeaveBefore()\r\n    {\r\n        address _validator = msg.sender;\r\n        uint toFrozenAmount = _leave(_validator);\r\n        _pushToFrozen(_validator, toFrozenAmount);\r\n        _removeValidator(_validator);\r\n        lastJoinLeaveBlock = block.number;\r\n    }\r\n\r\n    function claim(\r\n    )\r\n        public\r\n        onlyValidator()\r\n    {\r\n        address _validator = msg.sender;\r\n        uint toFrozenAmount = _claim(_validator);\r\n        _pushToFrozen(_validator, toFrozenAmount);\r\n    }\r\n\r\n    function unstake(\r\n        uint _amount\r\n    )\r\n        public\r\n        onlyValidator()\r\n    {\r\n        address _validator = msg.sender;\r\n        uint toFrozenAmount = _unstake(_validator, _amount);\r\n        _pushToFrozen(_validator, toFrozenAmount);\r\n    }\r\n\r\n    function cashout(\r\n        uint _amount\r\n    )\r\n        public\r\n        notLocked()\r\n    {\r\n        _distribute();\r\n        address payable _validator = msg.sender;\r\n        _cashout(_validator, _amount);\r\n        _updateLastBalance();\r\n    }\r\n\r\n    // Internal Functions\r\n\r\n    function _addValidator(\r\n        address _validator,\r\n        address _coinbase\r\n    )\r\n        internal\r\n        onlyNotValidator(_validator)\r\n        onlyNotCoinbase(_coinbase)\r\n    {\r\n        coinbasePosition[_coinbase] = count();\r\n\r\n        coinbases.push(_coinbase);\r\n        validatorCoinbases[_validator] = _coinbase;\r\n        coinbaseValidators[_coinbase] = _validator;\r\n        emit Joined(_validator, _coinbase, balanceOf(_validator));\r\n        _lock(_validator, lockRange() + block.number);\r\n        _startTimer(_validator);\r\n    }\r\n\r\n    function _removeCoinbase(\r\n        address _coinbase\r\n    )\r\n        internal\r\n    {\r\n        uint pos = coinbasePosition[_coinbase];\r\n        address lastCoinbase = coinbases[count() - 1];\r\n        coinbasePosition[lastCoinbase] = pos;\r\n        coinbases[pos] = lastCoinbase;\r\n        coinbases.length--;\r\n        coinbaseValidators[_coinbase] = ZERO_ADDRESS;\r\n    }\r\n\r\n    function _removeValidator(\r\n        address _validator\r\n    )\r\n        internal\r\n    {\r\n        address _coinbase = validatorCoinbases[_validator];\r\n        _removeCoinbase(_coinbase);\r\n        validatorCoinbases[_validator] = ZERO_ADDRESS;\r\n        _resetTimer(_validator);\r\n        emit Left(_validator, _coinbase);\r\n        require(count() >= 3, \"concensus works with at least 3 validators\");\r\n    }\r\n\r\n    function _pushToFrozen(\r\n        address _validator,\r\n        uint _amount\r\n    )\r\n        internal\r\n    {\r\n        _addFrozenBalance(_validator, _amount);\r\n        _lock(_validator, lockRange() + block.number);\r\n    }\r\n\r\n    // View Functions\r\n\r\n    function isValidator(\r\n        address _validator\r\n    )\r\n        public\r\n        view\r\n        returns(bool)\r\n    {\r\n        return validatorCoinbases[_validator] != ZERO_ADDRESS;\r\n    }\r\n\r\n    function isCoinbase(\r\n        address _coinbase\r\n    )\r\n        public\r\n        view\r\n        returns(bool)\r\n    {\r\n        return coinbaseValidators[_coinbase] != ZERO_ADDRESS;\r\n    }\r\n\r\n    function count()\r\n        public\r\n        view\r\n        returns(uint)\r\n    {\r\n        return coinbases.length;\r\n    }\r\n\r\n    function lockRange()\r\n        public\r\n        view\r\n        returns(uint)\r\n    {\r\n        return 10 * count();\r\n    }\r\n\r\n    function safeRange()\r\n        public\r\n        view\r\n        returns(uint)\r\n    {\r\n        return 2 * count();\r\n    }\r\n\r\n    function penalizedBase()\r\n        public\r\n        view\r\n        returns(uint)\r\n    {\r\n        return totalSupply() / count() / 10;\r\n    }\r\n\r\n    function stakeRequired()\r\n        public\r\n        view\r\n        returns(uint)\r\n    {\r\n        return coinSupply() / VALIDATOR_STAKE_RATE;\r\n    }\r\n\r\n    /*\r\n        RCOIN SUPPLY\r\n    */\r\n    function burned()\r\n        public\r\n        view\r\n        returns(uint)\r\n    {\r\n        return address(0x0).balance;\r\n    }\r\n    function coinSupply(\r\n    )\r\n        public\r\n        view\r\n        returns(uint)\r\n    {\r\n        return getPremineSum() + _coinSupplyExcludedPremine() - burned();\r\n    }\r\n\r\n    /*\r\n        Explorer's functions\r\n    */\r\n\r\n    function getValidators()\r\n        public\r\n        view\r\n        returns(address[] memory)\r\n    {\r\n        // blockscout queries with coinbases instead of validators\r\n        return coinbases;\r\n    }\r\n\r\n    function getValidatorName(\r\n        address _coinbase\r\n    )\r\n        public\r\n        view\r\n        returns(\r\n            bytes32 firstName,\r\n            bytes32 lastName\r\n        )\r\n    {\r\n        address _validator = coinbaseValidators[_coinbase];\r\n        return _getValidatorName(_validator);\r\n    }\r\n\r\n    function validators(\r\n        address _coinbase\r\n    )\r\n        public\r\n        view\r\n        returns (\r\n            bytes32 firstName,\r\n            bytes32 lastName,\r\n            bytes32 licenseId,\r\n            string memory fullAddress,\r\n            bytes32 state,\r\n            bytes32 zipcode,\r\n            uint expirationDate,\r\n            uint createdDate,\r\n            uint updatedDate,\r\n            uint minThreshold,\r\n            bytes32 contactEmail,\r\n            bool isCompany\r\n        )\r\n    {\r\n        address _validator = coinbaseValidators[_coinbase];\r\n        return _validators(_validator);\r\n    }\r\n\r\n    function updateMetadata(\r\n        bytes32 _firstName,\r\n        bytes32 _lastName,\r\n        bytes32 _licenseId,\r\n        string memory _fullAddress,\r\n        bytes32 _state,\r\n        bytes32 _zipcode,\r\n        uint _expirationDate,\r\n        uint _createdDate,\r\n        uint _updatedDate,\r\n        uint _minThreshold,\r\n        bytes32 _contactEmail,\r\n        bool _isCompany\r\n    )\r\n        public\r\n        onlyValidator()\r\n    {\r\n        address _validator = msg.sender;\r\n        _updateMetadata(\r\n            _validator,\r\n            _firstName,\r\n            _lastName,\r\n            _licenseId,\r\n            _fullAddress,\r\n            _state,\r\n            _zipcode,\r\n            _expirationDate,\r\n            _createdDate,\r\n            _updatedDate,\r\n            _minThreshold,\r\n            _contactEmail,\r\n            _isCompany\r\n        );\r\n    }\r\n\r\n    /*\r\n        TEST LOCAL NETWORK\r\n    */\r\n    // function mining(\r\n    //     address _coinbase\r\n    // )\r\n    //     public\r\n    //     payable\r\n    // {\r\n    //     // address _coinbase = block.coinbase;\r\n    //     address _validator = coinbaseValidators[_coinbase];\r\n    //     _submitProof(_validator);\r\n    // }\r\n}",
    "sourcePath": "C:/Users/bestb/Desktop/DEntwickler/Validator/core/contracts/Validator.sol",
    "compiler": {
        "name": "solc",
        "version": "0.5.11+commit.c082d0b4.Emscripten.clang"
    },
    "schemaVersion": "3.0.16",
    "updatedAt": "2019-10-29T05:08:44.129Z",
    "devdoc": {
        "methods": {
            "balanceOf(address)": {
                "details": "See {IERC20-balanceOf}.\r"
            },
            "decimals()": {
                "details": "Returns the number of decimals used to get its user representation.\r For example, if `decimals` equals `2`, a balance of `505` tokens should\r be displayed to a user as `5,05` (`505 / 10 ** 2`).\r      * Tokens usually opt for a value of 18, imitating the relationship between\r Ether and Wei.\r      * NOTE: This information is only used for _display_ purposes: it in\r no way affects any of the arithmetic of the contract, including\r {IERC20-balanceOf} and {IERC20-transfer}.\r"
            },
            "name()": {
                "details": "Returns the name of the token.\r"
            },
            "symbol()": {
                "details": "Returns the symbol of the token, usually a shorter version of the\r name.\r"
            },
            "totalSupply()": {
                "details": "See {IERC20-totalSupply}.\r"
            }
        },
        "title": "rchain validators smart contract\r"
    },
    "userdoc": {
        "methods": {
            "constructor": "contract initialize\r"
        }
    }
}