{
  "contractName": "Dex",
  "abi": [
    {
      "constant": true,
      "inputs": [
        {
          "name": "",
          "type": "bytes32"
        }
      ],
      "name": "books",
      "outputs": [
        {
          "name": "orderType",
          "type": "bool"
        },
        {
          "name": "pairedBook",
          "type": "bytes32"
        },
        {
          "name": "highestId",
          "type": "bytes32"
        },
        {
          "name": "lowestId",
          "type": "bytes32"
        }
      ],
      "payable": false,
      "stateMutability": "view",
      "type": "function"
    },
    {
      "constant": true,
      "inputs": [
        {
          "name": "",
          "type": "address"
        }
      ],
      "name": "fixedFeeOf",
      "outputs": [
        {
          "name": "",
          "type": "uint256"
        }
      ],
      "payable": false,
      "stateMutability": "view",
      "type": "function"
    },
    {
      "constant": true,
      "inputs": [
        {
          "name": "_address",
          "type": "address"
        }
      ],
      "name": "isAdmin",
      "outputs": [
        {
          "name": "",
          "type": "bool"
        }
      ],
      "payable": false,
      "stateMutability": "view",
      "type": "function"
    },
    {
      "constant": true,
      "inputs": [
        {
          "name": "",
          "type": "bytes32"
        }
      ],
      "name": "bookCreated",
      "outputs": [
        {
          "name": "",
          "type": "bool"
        }
      ],
      "payable": false,
      "stateMutability": "view",
      "type": "function"
    },
    {
      "constant": true,
      "inputs": [
        {
          "name": "",
          "type": "bytes32"
        }
      ],
      "name": "orders",
      "outputs": [
        {
          "name": "book",
          "type": "bytes32"
        },
        {
          "name": "owner",
          "type": "address"
        },
        {
          "name": "depositedAmount",
          "type": "uint256"
        },
        {
          "name": "price",
          "type": "uint256"
        },
        {
          "name": "next",
          "type": "bytes32"
        },
        {
          "name": "prev",
          "type": "bytes32"
        },
        {
          "name": "nonce",
          "type": "uint256"
        }
      ],
      "payable": false,
      "stateMutability": "view",
      "type": "function"
    },
    {
      "constant": true,
      "inputs": [],
      "name": "nonce",
      "outputs": [
        {
          "name": "",
          "type": "uint256"
        }
      ],
      "payable": false,
      "stateMutability": "view",
      "type": "function"
    },
    {
      "constant": false,
      "inputs": [
        {
          "name": "_address",
          "type": "address"
        }
      ],
      "name": "updateAdmin",
      "outputs": [],
      "payable": false,
      "stateMutability": "nonpayable",
      "type": "function"
    },
    {
      "constant": true,
      "inputs": [],
      "name": "matchingFee",
      "outputs": [
        {
          "name": "",
          "type": "uint256"
        }
      ],
      "payable": false,
      "stateMutability": "view",
      "type": "function"
    },
    {
      "constant": true,
      "inputs": [
        {
          "name": "",
          "type": "address"
        }
      ],
      "name": "feePool",
      "outputs": [
        {
          "name": "",
          "type": "uint256"
        }
      ],
      "payable": false,
      "stateMutability": "view",
      "type": "function"
    },
    {
      "inputs": [
        {
          "name": "_dexAdmins",
          "type": "address[]"
        },
        {
          "name": "wDRK",
          "type": "address"
        },
        {
          "name": "wETH",
          "type": "address"
        }
      ],
      "payable": true,
      "stateMutability": "payable",
      "type": "constructor"
    },
    {
      "payable": true,
      "stateMutability": "payable",
      "type": "fallback"
    },
    {
      "anonymous": false,
      "inputs": [
        {
          "indexed": false,
          "name": "_address",
          "type": "address"
        },
        {
          "indexed": false,
          "name": "_isAdmin",
          "type": "bool"
        }
      ],
      "name": "UpdateAdmin",
      "type": "event"
    },
    {
      "anonymous": false,
      "inputs": [
        {
          "indexed": false,
          "name": "_tokenA",
          "type": "address"
        },
        {
          "indexed": false,
          "name": "_tokenB",
          "type": "address"
        },
        {
          "indexed": false,
          "name": "_sellBookId",
          "type": "bytes32"
        },
        {
          "indexed": false,
          "name": "_buyBookId",
          "type": "bytes32"
        },
        {
          "indexed": false,
          "name": "_createdAt",
          "type": "uint256"
        }
      ],
      "name": "CreatePair",
      "type": "event"
    },
    {
      "anonymous": false,
      "inputs": [
        {
          "indexed": true,
          "name": "_orderId",
          "type": "bytes32"
        },
        {
          "indexed": true,
          "name": "_book",
          "type": "bytes32"
        },
        {
          "indexed": true,
          "name": "_owner",
          "type": "address"
        },
        {
          "indexed": false,
          "name": "_price",
          "type": "uint256"
        },
        {
          "indexed": false,
          "name": "_amount",
          "type": "uint256"
        },
        {
          "indexed": false,
          "name": "_createdAt",
          "type": "uint256"
        }
      ],
      "name": "CreateOrder",
      "type": "event"
    },
    {
      "anonymous": false,
      "inputs": [
        {
          "indexed": true,
          "name": "_orderId",
          "type": "bytes32"
        },
        {
          "indexed": true,
          "name": "_book",
          "type": "bytes32"
        },
        {
          "indexed": true,
          "name": "_owner",
          "type": "address"
        },
        {
          "indexed": false,
          "name": "_amount",
          "type": "uint256"
        },
        {
          "indexed": false,
          "name": "_createdAt",
          "type": "uint256"
        }
      ],
      "name": "UpdateOrder",
      "type": "event"
    },
    {
      "anonymous": false,
      "inputs": [
        {
          "indexed": true,
          "name": "_orderId",
          "type": "bytes32"
        },
        {
          "indexed": true,
          "name": "_book",
          "type": "bytes32"
        },
        {
          "indexed": true,
          "name": "_owner",
          "type": "address"
        },
        {
          "indexed": false,
          "name": "_createdAt",
          "type": "uint256"
        }
      ],
      "name": "RemoveOrder",
      "type": "event"
    },
    {
      "anonymous": false,
      "inputs": [
        {
          "indexed": true,
          "name": "_orderId",
          "type": "bytes32"
        },
        {
          "indexed": true,
          "name": "_book",
          "type": "bytes32"
        },
        {
          "indexed": true,
          "name": "_owner",
          "type": "address"
        },
        {
          "indexed": false,
          "name": "_createdAt",
          "type": "uint256"
        }
      ],
      "name": "CancelOrder",
      "type": "event"
    },
    {
      "anonymous": false,
      "inputs": [
        {
          "indexed": true,
          "name": "_sellBook",
          "type": "bytes32"
        },
        {
          "indexed": true,
          "name": "_buyBook",
          "type": "bytes32"
        },
        {
          "indexed": false,
          "name": "_price",
          "type": "uint256"
        },
        {
          "indexed": false,
          "name": "_amount",
          "type": "uint256"
        },
        {
          "indexed": false,
          "name": "_orderType",
          "type": "bool"
        },
        {
          "indexed": false,
          "name": "_createdAt",
          "type": "uint256"
        }
      ],
      "name": "Matching",
      "type": "event"
    },
    {
      "anonymous": false,
      "inputs": [
        {
          "indexed": true,
          "name": "_orderId",
          "type": "bytes32"
        },
        {
          "indexed": true,
          "name": "_book",
          "type": "bytes32"
        },
        {
          "indexed": true,
          "name": "_owner",
          "type": "address"
        },
        {
          "indexed": false,
          "name": "_amount",
          "type": "uint256"
        }
      ],
      "name": "TokenReceived",
      "type": "event"
    },
    {
      "anonymous": false,
      "inputs": [
        {
          "indexed": true,
          "name": "_token",
          "type": "address"
        },
        {
          "indexed": false,
          "name": "_newFee",
          "type": "uint256"
        },
        {
          "indexed": false,
          "name": "_createdAt",
          "type": "uint256"
        }
      ],
      "name": "ChangeFee",
      "type": "event"
    },
    {
      "constant": false,
      "inputs": [
        {
          "name": "token",
          "type": "address"
        },
        {
          "name": "newFee",
          "type": "uint256"
        }
      ],
      "name": "changeFee",
      "outputs": [],
      "payable": false,
      "stateMutability": "nonpayable",
      "type": "function"
    },
    {
      "constant": false,
      "inputs": [
        {
          "name": "_tokens",
          "type": "address[2]"
        }
      ],
      "name": "initBooks",
      "outputs": [],
      "payable": false,
      "stateMutability": "nonpayable",
      "type": "function"
    },
    {
      "constant": true,
      "inputs": [
        {
          "name": "_tokens",
          "type": "address[2]"
        },
        {
          "name": "_orderType",
          "type": "bool"
        }
      ],
      "name": "getBookId",
      "outputs": [
        {
          "name": "",
          "type": "bytes32"
        }
      ],
      "payable": false,
      "stateMutability": "pure",
      "type": "function"
    },
    {
      "constant": false,
      "inputs": [
        {
          "name": "_bookId",
          "type": "bytes32"
        },
        {
          "name": "_loopLimit",
          "type": "uint256"
        }
      ],
      "name": "matchingLoop",
      "outputs": [],
      "payable": false,
      "stateMutability": "nonpayable",
      "type": "function"
    },
    {
      "constant": false,
      "inputs": [
        {
          "name": "_bookId",
          "type": "bytes32"
        },
        {
          "name": "_depositedAmount",
          "type": "uint256"
        },
        {
          "name": "_price",
          "type": "uint256"
        },
        {
          "name": "_pointer",
          "type": "bytes32"
        }
      ],
      "name": "create",
      "outputs": [],
      "payable": false,
      "stateMutability": "nonpayable",
      "type": "function"
    },
    {
      "constant": false,
      "inputs": [
        {
          "name": "_tokens",
          "type": "address[2]"
        },
        {
          "name": "_bookId",
          "type": "bytes32"
        },
        {
          "name": "_depositedAmount",
          "type": "uint256"
        },
        {
          "name": "_price",
          "type": "uint256"
        },
        {
          "name": "_pointer",
          "type": "bytes32"
        }
      ],
      "name": "create1st",
      "outputs": [],
      "payable": false,
      "stateMutability": "nonpayable",
      "type": "function"
    },
    {
      "constant": false,
      "inputs": [
        {
          "name": "_id",
          "type": "bytes32"
        }
      ],
      "name": "cancel",
      "outputs": [],
      "payable": false,
      "stateMutability": "nonpayable",
      "type": "function"
    },
    {
      "constant": false,
      "inputs": [
        {
          "name": "token",
          "type": "address"
        }
      ],
      "name": "adminClaimFee",
      "outputs": [],
      "payable": false,
      "stateMutability": "nonpayable",
      "type": "function"
    },
    {
      "constant": true,
      "inputs": [
        {
          "name": "_bookId",
          "type": "bytes32"
        },
        {
          "name": "_total",
          "type": "uint256"
        }
      ],
      "name": "loadOrderbook",
      "outputs": [
        {
          "name": "",
          "type": "uint256"
        },
        {
          "name": "",
          "type": "bytes32[]"
        },
        {
          "name": "",
          "type": "uint256[]"
        },
        {
          "name": "",
          "type": "uint256[]"
        }
      ],
      "payable": false,
      "stateMutability": "view",
      "type": "function"
    }
  ],
  "bytecode": "0x6080604052600a600655604051620041a2380380620041a2833981018060405260608110156200002e57600080fd5b8101908080516401000000008111156200004757600080fd5b828101905060208101848111156200005e57600080fd5b81518560208202830111640100000000821117156200007c57600080fd5b5050929190602001805190602001909291908051906020019092919050505082737796041e39a7451025d58a94b186452ea725b5426000806101000a81548173ffffffffffffffffffffffffffffffffffffffff021916908373ffffffffffffffffffffffffffffffffffffffff16021790555060008151905060008090505b8181101562000145576200013783828151811015156200011857fe5b906020019060200201516200026d640100000000026401000000009004565b8080600101915050620000fc565b505050655af3107a4000600760008373ffffffffffffffffffffffffffffffffffffffff1673ffffffffffffffffffffffffffffffffffffffff16815260200190815260200160002081905550678ac7230489e80000600760008473ffffffffffffffffffffffffffffffffffffffff1673ffffffffffffffffffffffffffffffffffffffff168152602001908152602001600020819055506200026460408051908101604052808473ffffffffffffffffffffffffffffffffffffffff1673ffffffffffffffffffffffffffffffffffffffff1681526020018373ffffffffffffffffffffffffffffffffffffffff1673ffffffffffffffffffffffffffffffffffffffff168152506200038a640100000000026401000000009004565b50505062000a57565b6000600160008373ffffffffffffffffffffffffffffffffffffffff1673ffffffffffffffffffffffffffffffffffffffff16815260200190815260200160002060009054906101000a900460ff1690508015600160008473ffffffffffffffffffffffffffffffffffffffff1673ffffffffffffffffffffffffffffffffffffffff16815260200190815260200160002060006101000a81548160ff0219169083151502179055507fae0a768e1f5a7943e3f1bb8a4d503c6fbfea4c9bbbded6b463e48bebd28ef725828215604051808373ffffffffffffffffffffffffffffffffffffffff1673ffffffffffffffffffffffffffffffffffffffff168152602001821515151581526020019250505060405180910390a15050565b6000620003a88260016200060a640100000000026401000000009004565b90506000620003c88360006200060a640100000000026401000000009004565b90506003600083815260200190815260200160002060009054906101000a900460ff1615620003f957505062000607565b60016003600084815260200190815260200160002060006101000a81548160ff02191690831515021790555060016003600083815260200190815260200160002060006101000a81548160ff021916908315150217905550600060026000848152602001908152602001600020905060006002600084815260200190815260200160002090508482600001906002620004949291906200098f565b5060018260020160006101000a81548160ff0219169083151502179055508282600301819055508481600001906002620004d09291906200098f565b5060008160020160006101000a81548160ff0219169083151502179055508381600301819055506200051184620007ab640100000000026401000000009004565b6200052b83620007ab640100000000026401000000009004565b7f8c9b61579f9726bebf15177968d5ac918abb4f7cccf882f86182de327251a4098560006002811015156200055c57fe5b60200201518660016002811015156200057157fe5b6020020151858742604051808673ffffffffffffffffffffffffffffffffffffffff1673ffffffffffffffffffffffffffffffffffffffff1681526020018573ffffffffffffffffffffffffffffffffffffffff1673ffffffffffffffffffffffffffffffffffffffff1681526020018481526020018381526020018281526020019550505050505060405180910390a1505050505b50565b600060028360006002811015156200061e57fe5b60200201518460016002811015156200063357fe5b602002015184604051602001808473ffffffffffffffffffffffffffffffffffffffff1673ffffffffffffffffffffffffffffffffffffffff166c010000000000000000000000000281526014018373ffffffffffffffffffffffffffffffffffffffff1673ffffffffffffffffffffffffffffffffffffffff166c0100000000000000000000000002815260140182151515157f010000000000000000000000000000000000000000000000000000000000000002815260010193505050506040516020818303038152906040526040518082805190602001908083835b60208310151562000739578051825260208201915060208101905060208303925062000712565b6001836020036101000a038019825116818451168082178552505050505050905001915050602060405180830381855afa1580156200077c573d6000803e3d6000fd5b5050506040513d60208110156200079257600080fd5b8101908080519060200190929190505050905092915050565b60006002600083815260200190815260200160002090506000620007dd620008b1640100000000026401000000009004565b90506000620007fa620008b1640100000000026401000000009004565b905080836005018190555081836004018190555083600460008481526020019081526020016000206000018190555060016000036fffffffffffffffffffffffffffffffff16600460008481526020019081526020016000206003018190555080600460008481526020019081526020016000206005018190555083600460008381526020019081526020016000206000018190555081600460008381526020019081526020016000206004018190555050505050565b60006005600081548092919060010191905055506002600554604051602001808281526020019150506040516020818303038152906040526040518082805190602001908083835b602083101515620009205780518252602082019150602081019050602083039250620008f9565b6001836020036101000a038019825116818451168082178552505050505050905001915050602060405180830381855afa15801562000963573d6000803e3d6000fd5b5050506040513d60208110156200097957600080fd5b8101908080519060200190929190505050905090565b8260028101928215620009fe579160200282015b82811115620009fd5782518260006101000a81548173ffffffffffffffffffffffffffffffffffffffff021916908373ffffffffffffffffffffffffffffffffffffffff16021790555091602001919060010190620009a3565b5b50905062000a0d919062000a11565b5090565b62000a5491905b8082111562000a5057600081816101000a81549073ffffffffffffffffffffffffffffffffffffffff02191690555060010162000a18565b5090565b90565b61373b8062000a676000396000f3fe6080604052600436106100fc576000357c0100000000000000000000000000000000000000000000000000000000900463ffffffff1680630c0dee70146100fe5780630cb43c4f1461016657806324d7806c146101cb5780634270f35f14610234578063472b2efa1461028d5780635606a16a146102ff578063768c06c4146103995780638ac999c6146103ec5780639c3f1e9014610431578063affed0e0146104d6578063c4d252f514610501578063c963d1ac1461053c578063d8f5aa861461066d578063da147c85146106be578063e2f273bd14610750578063ee168f68146107a1578063efa105ef146107fc578063fd26fef114610827575b005b34801561010a57600080fd5b506101376004803603602081101561012157600080fd5b810190808035906020019092919050505061088c565b604051808515151515815260200184815260200183815260200182815260200194505050505060405180910390f35b34801561017257600080fd5b506101b56004803603602081101561018957600080fd5b81019080803573ffffffffffffffffffffffffffffffffffffffff1690602001909291905050506108c9565b6040518082815260200191505060405180910390f35b3480156101d757600080fd5b5061021a600480360360208110156101ee57600080fd5b81019080803573ffffffffffffffffffffffffffffffffffffffff1690602001909291905050506108e1565b604051808215151515815260200191505060405180910390f35b34801561024057600080fd5b5061028b6004803603608081101561025757600080fd5b8101908080359060200190929190803590602001909291908035906020019092919080359060200190929190505050610937565b005b34801561029957600080fd5b506102fd600480360360408110156102b057600080fd5b8101908080604001906002806020026040519081016040528092919082600260200280828437600081840152601f19601f8201169050808301925050505050509192919290505050610e0b565b005b34801561030b57600080fd5b50610397600480360360c081101561032257600080fd5b8101908080604001906002806020026040519081016040528092919082600260200280828437600081840152601f19601f82011690508083019250505050505091929192908035906020019092919080359060200190929190803590602001909291908035906020019092919050505061103f565b005b3480156103a557600080fd5b506103d2600480360360208110156103bc57600080fd5b810190808035906020019092919050505061105b565b604051808215151515815260200191505060405180910390f35b3480156103f857600080fd5b5061042f6004803603604081101561040f57600080fd5b81019080803590602001909291908035906020019092919050505061107b565b005b34801561043d57600080fd5b5061046a6004803603602081101561045457600080fd5b8101908080359060200190929190505050611270565b604051808881526020018773ffffffffffffffffffffffffffffffffffffffff1673ffffffffffffffffffffffffffffffffffffffff16815260200186815260200185815260200184815260200183815260200182815260200197505050505050505060405180910390f35b3480156104e257600080fd5b506104eb6112d2565b6040518082815260200191505060405180910390f35b34801561050d57600080fd5b5061053a6004803603602081101561052457600080fd5b81019080803590602001909291905050506112d8565b005b34801561054857600080fd5b5061057f6004803603604081101561055f57600080fd5b810190808035906020019092919080359060200190929190505050611602565b60405180858152602001806020018060200180602001848103845287818151815260200191508051906020019060200280838360005b838110156105d05780820151818401526020810190506105b5565b50505050905001848103835286818151815260200191508051906020019060200280838360005b838110156106125780820151818401526020810190506105f7565b50505050905001848103825285818151815260200191508051906020019060200280838360005b83811015610654578082015181840152602081019050610639565b5050505090500197505050505050505060405180910390f35b34801561067957600080fd5b506106bc6004803603602081101561069057600080fd5b81019080803573ffffffffffffffffffffffffffffffffffffffff169060200190929190505050611bbe565b005b3480156106ca57600080fd5b5061073a600480360360608110156106e157600080fd5b8101908080604001906002806020026040519081016040528092919082600260200280828437600081840152601f19601f8201169050808301925050505050509192919290803515159060200190929190505050611c8e565b6040518082815260200191505060405180910390f35b34801561075c57600080fd5b5061079f6004803603602081101561077357600080fd5b81019080803573ffffffffffffffffffffffffffffffffffffffff169060200190929190505050611e29565b005b3480156107ad57600080fd5b506107fa600480360360408110156107c457600080fd5b81019080803573ffffffffffffffffffffffffffffffffffffffff16906020019092919080359060200190929190505050611efb565b005b34801561080857600080fd5b50610811612040565b6040518082815260200191505060405180910390f35b34801561083357600080fd5b506108766004803603602081101561084a57600080fd5b81019080803573ffffffffffffffffffffffffffffffffffffffff169060200190929190505050612046565b6040518082815260200191505060405180910390f35b60026020528060005260406000206000915090508060020160009054906101000a900460ff16908060030154908060040154908060050154905084565b60076020528060005260406000206000915090505481565b6000600160008373ffffffffffffffffffffffffffffffffffffffff1673ffffffffffffffffffffffffffffffffffffffff16815260200190815260200160002060009054906101000a900460ff169050919050565b8160008111801561095d575060016000036fffffffffffffffffffffffffffffffff1681105b15156109d1576040517f08c379a000000000000000000000000000000000000000000000000000000000815260040180806020018281038252600d8152602001807f496e76616c69642050726963650000000000000000000000000000000000000081525060200191505060405180910390fd5b60003390506003600087815260200190815260200160002060009054906101000a900460ff161515610a6b576040517f08c379a00000000000000000000000000000000000000000000000000000000081526004018080602001828103825260118152602001807f626f6f6b206e6f7420637265617465642100000000000000000000000000000081525060200191505060405180910390fd5b60006002600088815260200190815260200160002090506000610a8d8261205e565b90508073ffffffffffffffffffffffffffffffffffffffff166323b872dd8430600760008673ffffffffffffffffffffffffffffffffffffffff1673ffffffffffffffffffffffffffffffffffffffff168152602001908152602001600020548b016040518463ffffffff167c0100000000000000000000000000000000000000000000000000000000028152600401808473ffffffffffffffffffffffffffffffffffffffff1673ffffffffffffffffffffffffffffffffffffffff1681526020018373ffffffffffffffffffffffffffffffffffffffff1673ffffffffffffffffffffffffffffffffffffffff1681526020018281526020019350505050602060405180830381600087803b158015610ba757600080fd5b505af1158015610bbb573d6000803e3d6000fd5b505050506040513d6020811015610bd157600080fd5b810190808051906020019092919050505050600760008273ffffffffffffffffffffffffffffffffffffffff1673ffffffffffffffffffffffffffffffffffffffff16815260200190815260200160002054600860008373ffffffffffffffffffffffffffffffffffffffff1673ffffffffffffffffffffffffffffffffffffffff168152602001908152602001600020600082825401925050819055506000859050886004600088815260200190815260200160002060000154141515610c9f57610c9c836120f2565b90505b6000610cac84898461212b565b90506000610cb86122dc565b905060006004600083815260200190815260200160002090508b8160000181905550868160010160006101000a81548173ffffffffffffffffffffffffffffffffffffffff021916908373ffffffffffffffffffffffffffffffffffffffff1602179055508a81600201819055508981600301819055506005548160060181905550610d4483836123b6565b8673ffffffffffffffffffffffffffffffffffffffff168c837fcbf62406438d9964fcd6c5b1330b08ecdf89b6a227500e66bf692ec07164870b8d8f4260405180848152602001838152602001828152602001935050505060405180910390a4610daf8c606461107b565b8673ffffffffffffffffffffffffffffffffffffffff166108fc66470de4df8200009081150290604051600060405180830381858888f19350505050158015610dfc573d6000803e3d6000fd5b50505050505050505050505050565b6000610e18826001611c8e565b90506000610e27836000611c8e565b90506003600083815260200190815260200160002060009054906101000a900460ff1615610e5657505061103c565b60016003600084815260200190815260200160002060006101000a81548160ff02191690831515021790555060016003600083815260200190815260200160002060006101000a81548160ff021916908315150217905550600060026000848152602001908152602001600020905060006002600084815260200190815260200160002090508482600001906002610eef92919061358f565b5060018260020160006101000a81548160ff0219169083151502179055508282600301819055508481600001906002610f2992919061358f565b5060008160020160006101000a81548160ff021916908315150217905550838160030181905550610f5984612442565b610f6283612442565b7f8c9b61579f9726bebf15177968d5ac918abb4f7cccf882f86182de327251a409856000600281101515610f9257fe5b6020020151866001600281101515610fa657fe5b6020020151858742604051808673ffffffffffffffffffffffffffffffffffffffff1673ffffffffffffffffffffffffffffffffffffffff1681526020018573ffffffffffffffffffffffffffffffffffffffff1673ffffffffffffffffffffffffffffffffffffffff1681526020018481526020018381526020018281526020019550505050505060405180910390a1505050505b50565b61104885610e0b565b61105484848484610937565b5050505050565b60036020528060005260406000206000915054906101000a900460ff1681565b60006002600084815260200190815260200160002090506000600260008360030154815260200190815260200160002090506000809050600115158360020160009054906101000a900460ff161515141561119e575b838110156111995760006110e484612526565b905060006110f184612526565b9050600061117586600001600280602002604051908101604052809291908260028015611169576020028201915b8160009054906101000a900473ffffffffffffffffffffffffffffffffffffffff1673ffffffffffffffffffffffffffffffffffffffff168152602001906001019080831161111f575b5050505050848461258b565b90508015156111895750505050505061126c565b83806001019450505050506110d1565b611268565b5b838110156112675760006111b284612526565b905060006111bf84612526565b9050600061124386600001600280602002604051908101604052809291908260028015611237576020028201915b8160009054906101000a900473ffffffffffffffffffffffffffffffffffffffff1673ffffffffffffffffffffffffffffffffffffffff16815260200190600101908083116111ed575b5050505050838561258b565b90508015156112575750505050505061126c565b838060010194505050505061119f565b5b5050505b5050565b60046020528060005260406000206000915090508060000154908060010160009054906101000a900473ffffffffffffffffffffffffffffffffffffffff16908060020154908060030154908060040154908060050154908060060154905087565b60055481565b600033905060006004600084815260200190815260200160002090508060010160009054906101000a900473ffffffffffffffffffffffffffffffffffffffff1673ffffffffffffffffffffffffffffffffffffffff168273ffffffffffffffffffffffffffffffffffffffff161415156113bb576040517f08c379a000000000000000000000000000000000000000000000000000000000815260040180806020018281038252601b8152602001807f6f6e6c79206f776e65722063616e2072656d6f7665206f72646572000000000081525060200191505060405180910390fd5b60008160050154905060008260040154905080600460008481526020019081526020016000206004018190555081600460008381526020019081526020016000206005018190555060008360020154905060006002600086600001548152602001908152602001600020905060006114328261205e565b90508073ffffffffffffffffffffffffffffffffffffffff1663a9059cbb88856040518363ffffffff167c0100000000000000000000000000000000000000000000000000000000028152600401808373ffffffffffffffffffffffffffffffffffffffff1673ffffffffffffffffffffffffffffffffffffffff16815260200182815260200192505050602060405180830381600087803b1580156114d757600080fd5b505af11580156114eb573d6000803e3d6000fd5b505050506040513d602081101561150157600080fd5b8101908080519060200190929190505050508560010160009054906101000a900473ffffffffffffffffffffffffffffffffffffffff1673ffffffffffffffffffffffffffffffffffffffff168660000154897f14538a500a021f7370341a47a6fbd66954bf8332276250806631de47983fee9f426040518082815260200191505060405180910390a4600460008981526020019081526020016000206000808201600090556001820160006101000a81549073ffffffffffffffffffffffffffffffffffffffff02191690556002820160009055600382016000905560048201600090556005820160009055600682016000905550505050505050505050565b6000606080606061161161360c565b6002600088815260200190815260200160002060a06040519081016040529081600082016002806020026040519081016040528092919082600280156116a2576020028201915b8160009054906101000a900473ffffffffffffffffffffffffffffffffffffffff1673ffffffffffffffffffffffffffffffffffffffff1681526020019060010190808311611658575b505050505081526020016002820160009054906101000a900460ff16151515158152602001600382015481526020016004820154815260200160058201548152505090506116ee61364d565b600080600090506060896040519080825280602002602001820160405280156117265781602001602082028038833980820191505090505b50905060608a60405190808252806020026020018201604052801561175a5781602001602082028038833980820191505090505b50905060608b60405190808252806020026020018201604052801561178e5781602001602082028038833980820191505090505b509050600015158760200151151514156119a457866080015194506004600086815260200190815260200160002060e06040519081016040529081600082015481526020016001820160009054906101000a900473ffffffffffffffffffffffffffffffffffffffff1673ffffffffffffffffffffffffffffffffffffffff1673ffffffffffffffffffffffffffffffffffffffff1681526020016002820154815260200160038201548152602001600482015481526020016005820154815260200160068201548152505095505b8b8410801561187457508660600151866080015114155b1561199f57856080015194506004600086815260200190815260200160002060e06040519081016040529081600082015481526020016001820160009054906101000a900473ffffffffffffffffffffffffffffffffffffffff1673ffffffffffffffffffffffffffffffffffffffff1673ffffffffffffffffffffffffffffffffffffffff16815260200160028201548152602001600382015481526020016004820154815260200160058201548152602001600682015481525050955084838581518110151561194257fe5b90602001906020020181815250508560600151828581518110151561196357fe5b90602001906020020181815250508560400151818581518110151561198457fe5b9060200190602002018181525050838060010194505061185d565b611ba2565b866060015194506004600086815260200190815260200160002060e06040519081016040529081600082015481526020016001820160009054906101000a900473ffffffffffffffffffffffffffffffffffffffff1673ffffffffffffffffffffffffffffffffffffffff1673ffffffffffffffffffffffffffffffffffffffff1681526020016002820154815260200160038201548152602001600482015481526020016005820154815260200160068201548152505095505b8b84108015611a76575086608001518660a0015114155b15611ba1578560a0015194506004600086815260200190815260200160002060e06040519081016040529081600082015481526020016001820160009054906101000a900473ffffffffffffffffffffffffffffffffffffffff1673ffffffffffffffffffffffffffffffffffffffff1673ffffffffffffffffffffffffffffffffffffffff168152602001600282015481526020016003820154815260200160048201548152602001600582015481526020016006820154815250509550848385815181101515611b4457fe5b906020019060200201818152505085606001518285815181101515611b6557fe5b906020019060200201818152505085604001518185815181101515611b8657fe5b90602001906020020181815250508380600101945050611a5f565b5b838383839a509a509a509a505050505050505092959194509250565b33600160008273ffffffffffffffffffffffffffffffffffffffff1673ffffffffffffffffffffffffffffffffffffffff16815260200190815260200160002060009054906101000a900460ff161515611c80576040517f08c379a000000000000000000000000000000000000000000000000000000000815260040180806020018281038252600d8152602001807f6973206e6f742061646d696e210000000000000000000000000000000000000081525060200191505060405180910390fd5b611c898261309c565b505050565b60006002836000600281101515611ca157fe5b6020020151846001600281101515611cb557fe5b602002015184604051602001808473ffffffffffffffffffffffffffffffffffffffff1673ffffffffffffffffffffffffffffffffffffffff166c010000000000000000000000000281526014018373ffffffffffffffffffffffffffffffffffffffff1673ffffffffffffffffffffffffffffffffffffffff166c0100000000000000000000000002815260140182151515157f010000000000000000000000000000000000000000000000000000000000000002815260010193505050506040516020818303038152906040526040518082805190602001908083835b602083101515611db95780518252602082019150602081019050602083039250611d94565b6001836020036101000a038019825116818451168082178552505050505050905001915050602060405180830381855afa158015611dfb573d6000803e3d6000fd5b5050506040513d6020811015611e1057600080fd5b8101908080519060200190929190505050905092915050565b336000809054906101000a900473ffffffffffffffffffffffffffffffffffffffff1673ffffffffffffffffffffffffffffffffffffffff168173ffffffffffffffffffffffffffffffffffffffff16141515611eee576040517f08c379a00000000000000000000000000000000000000000000000000000000081526004018080602001828103825260138152602001807f6973206e6f742073757065722061646d696e210000000000000000000000000081525060200191505060405180910390fd5b611ef782613282565b5050565b33600160008273ffffffffffffffffffffffffffffffffffffffff1673ffffffffffffffffffffffffffffffffffffffff16815260200190815260200160002060009054906101000a900460ff161515611fbd576040517f08c379a000000000000000000000000000000000000000000000000000000000815260040180806020018281038252600d8152602001807f6973206e6f742061646d696e210000000000000000000000000000000000000081525060200191505060405180910390fd5b611fc7838361339f565b151561203b576040517f08c379a00000000000000000000000000000000000000000000000000000000081526004018080602001828103825260158152602001807f4661696c65642d746f2d7365742d6e65772d666565000000000000000000000081525060200191505060405180910390fd5b505050565b60065481565b60086020528060005260406000206000915090505481565b6000600115158260020160009054906101000a900460ff161515146120b65781600001600060028110151561208f57fe5b0160009054906101000a900473ffffffffffffffffffffffffffffffffffffffff166120eb565b8160000160016002811015156120c857fe5b0160009054906101000a900473ffffffffffffffffffffffffffffffffffffffff165b9050919050565b6000600115158260020160009054906101000a900460ff161515141561211e5781600401549050612126565b816005015490505b919050565b600080829050600115158560020160009054906101000a900460ff1615151415612214575b600460008281526020019081526020016000206003015484111561218c5760046000828152602001908152602001600020600401549050612150565b828114151561219e57809150506122d5565b600460008281526020019081526020016000206005015490505b6004600082815260200190815260200160002060030154841115156121f557600460008281526020019081526020016000206005015490506121b8565b60046000828152602001908152602001600020600401549150506122d5565b5b6004600082815260200190815260200160002060030154841015156122525760046000828152602001908152602001600020600401549050612215565b828114151561226457809150506122d5565b600460008281526020019081526020016000206005015490505b60046000828152602001908152602001600020600301548410156122ba576004600082815260200190815260200160002060050154905061227e565b60046000828152602001908152602001600020600401549150505b9392505050565b60006005600081548092919060010191905055506002600554604051602001808281526020019150506040516020818303038152906040526040518082805190602001908083835b6020831015156123495780518252602082019150602081019050602083039250612324565b6001836020036101000a038019825116818451168082178552505050505050905001915050602060405180830381855afa15801561238b573d6000803e3d6000fd5b5050506040513d60208110156123a057600080fd5b8101908080519060200190929190505050905090565b600060046000848152602001908152602001600020600501549050816004600085815260200190815260200160002060050181905550816004600083815260200190815260200160002060040181905550806004600084815260200190815260200160002060050181905550826004600084815260200190815260200160002060040181905550505050565b600060026000838152602001908152602001600020905060006124636122dc565b9050600061246f6122dc565b905080836005018190555081836004018190555083600460008481526020019081526020016000206000018190555060016000036fffffffffffffffffffffffffffffffff16600460008481526020019081526020016000206003018190555080600460008481526020019081526020016000206005018190555083600460008381526020019081526020016000206000018190555081600460008381526020019081526020016000206004018190555050505050565b6000600115158260020160009054906101000a900460ff1615151415612568576004600083600401548152602001908152602001600020600501549050612586565b60046000836005015481526020019081526020016000206004015490505b919050565b60008060046000858152602001908152602001600020905060006004600085815260200190815260200160002090508060030154826003015410156125d557600092505050613095565b60008660006002811015156125e657fe5b6020020151905060008760016002811015156125fe57fe5b6020020151905060008360060154856006015410612620578360030154612626565b84600301545b90506000670de0b6b3a76400008286600201540281151561264357fe5b0490506000866006015486600601541161265e576000612661565b60015b90508660020154821115612b7c57600061271060065489600201540281151561268657fe5b049050600084670de0b6b3a7640000838b6002015403028115156126a657fe5b04905081600860008973ffffffffffffffffffffffffffffffffffffffff1673ffffffffffffffffffffffffffffffffffffffff1681526020019081526020016000206000828254019250508190555084670de0b6b3a76400008a600201540281151561270f57fe5b0488600201600082825403925050819055508760010160009054906101000a900473ffffffffffffffffffffffffffffffffffffffff1673ffffffffffffffffffffffffffffffffffffffff1688600001548c7f3c8edea145e604a09434aae6decadbfa4c17023e6ad5b438b23291bcbd6bbbcc8b6002015442604051808381526020018281526020019250505060405180910390a4886000015488600001547ffb960d45700594ae600f536e68c9f98e3b0acbb5e769f409cf4b59b2ee5b2d5a87848742604051808581526020018481526020018315151515815260200182815260200194505050505060405180910390a38673ffffffffffffffffffffffffffffffffffffffff1663a9059cbb8a60010160009054906101000a900473ffffffffffffffffffffffffffffffffffffffff16836040518363ffffffff167c0100000000000000000000000000000000000000000000000000000000028152600401808373ffffffffffffffffffffffffffffffffffffffff1673ffffffffffffffffffffffffffffffffffffffff16815260200182815260200192505050602060405180830381600087803b1580156128c957600080fd5b505af11580156128dd573d6000803e3d6000fd5b505050506040513d60208110156128f357600080fd5b8101908080519060200190929190505050508860010160009054906101000a900473ffffffffffffffffffffffffffffffffffffffff1673ffffffffffffffffffffffffffffffffffffffff1689600001548d7ffb228d424e4bdcc84ba852c03930ec2e769de590a64d7df3d6e0365bec5f3c7d846040518082815260200191505060405180910390a460006127106006548b600201540281151561299457fe5b0490506000818b6002015403905081600860008a73ffffffffffffffffffffffffffffffffffffffff1673ffffffffffffffffffffffffffffffffffffffff168152602001908152602001600020600082825401925050819055508773ffffffffffffffffffffffffffffffffffffffff1663a9059cbb8b60010160009054906101000a900473ffffffffffffffffffffffffffffffffffffffff16836040518363ffffffff167c0100000000000000000000000000000000000000000000000000000000028152600401808373ffffffffffffffffffffffffffffffffffffffff1673ffffffffffffffffffffffffffffffffffffffff16815260200182815260200192505050602060405180830381600087803b158015612ab657600080fd5b505af1158015612aca573d6000803e3d6000fd5b505050506040513d6020811015612ae057600080fd5b8101908080519060200190929190505050508960010160009054906101000a900473ffffffffffffffffffffffffffffffffffffffff1673ffffffffffffffffffffffffffffffffffffffff168a600001548e7ffb228d424e4bdcc84ba852c03930ec2e769de590a64d7df3d6e0365bec5f3c7d846040518082815260200191505060405180910390a4612b738e613445565b50505050613089565b6000612710600654886002015402811515612b9357fe5b0490506000670de0b6b3a764000085838a600201540302811515612bb357fe5b04905081600860008873ffffffffffffffffffffffffffffffffffffffff1673ffffffffffffffffffffffffffffffffffffffff16815260200190815260200160002060008282540192505081905550670de0b6b3a764000085896002015402811515612c1c57fe5b0489600201600082825403925050819055508860010160009054906101000a900473ffffffffffffffffffffffffffffffffffffffff1673ffffffffffffffffffffffffffffffffffffffff1689600001548d7f3c8edea145e604a09434aae6decadbfa4c17023e6ad5b438b23291bcbd6bbbcc8c6002015442604051808381526020018281526020019250505060405180910390a4886000015488600001547ffb960d45700594ae600f536e68c9f98e3b0acbb5e769f409cf4b59b2ee5b2d5a878b600201548742604051808581526020018481526020018315151515815260200182815260200194505050505060405180910390a38573ffffffffffffffffffffffffffffffffffffffff1663a9059cbb8960010160009054906101000a900473ffffffffffffffffffffffffffffffffffffffff16836040518363ffffffff167c0100000000000000000000000000000000000000000000000000000000028152600401808373ffffffffffffffffffffffffffffffffffffffff1673ffffffffffffffffffffffffffffffffffffffff16815260200182815260200192505050602060405180830381600087803b158015612dda57600080fd5b505af1158015612dee573d6000803e3d6000fd5b505050506040513d6020811015612e0457600080fd5b8101908080519060200190929190505050508760010160009054906101000a900473ffffffffffffffffffffffffffffffffffffffff1673ffffffffffffffffffffffffffffffffffffffff1688600001548c7ffb228d424e4bdcc84ba852c03930ec2e769de590a64d7df3d6e0365bec5f3c7d846040518082815260200191505060405180910390a460006127106006548a6002015402811515612ea557fe5b0490506000818a6002015403905081600860008b73ffffffffffffffffffffffffffffffffffffffff1673ffffffffffffffffffffffffffffffffffffffff168152602001908152602001600020600082825401925050819055508873ffffffffffffffffffffffffffffffffffffffff1663a9059cbb8c60010160009054906101000a900473ffffffffffffffffffffffffffffffffffffffff16836040518363ffffffff167c0100000000000000000000000000000000000000000000000000000000028152600401808373ffffffffffffffffffffffffffffffffffffffff1673ffffffffffffffffffffffffffffffffffffffff16815260200182815260200192505050602060405180830381600087803b158015612fc757600080fd5b505af1158015612fdb573d6000803e3d6000fd5b505050506040513d6020811015612ff157600080fd5b8101908080519060200190929190505050508a60010160009054906101000a900473ffffffffffffffffffffffffffffffffffffffff1673ffffffffffffffffffffffffffffffffffffffff168b600001548f7ffb228d424e4bdcc84ba852c03930ec2e769de590a64d7df3d6e0365bec5f3c7d846040518082815260200191505060405180910390a46130848d613445565b505050505b60019750505050505050505b9392505050565b600080600860008473ffffffffffffffffffffffffffffffffffffffff1673ffffffffffffffffffffffffffffffffffffffff1681526020019081526020016000205490508273ffffffffffffffffffffffffffffffffffffffff1663a9059cbb33836040518363ffffffff167c0100000000000000000000000000000000000000000000000000000000028152600401808373ffffffffffffffffffffffffffffffffffffffff1673ffffffffffffffffffffffffffffffffffffffff16815260200182815260200192505050602060405180830381600087803b15801561318457600080fd5b505af1158015613198573d6000803e3d6000fd5b505050506040513d60208110156131ae57600080fd5b81019080805190602001909291905050501515613233576040517f08c379a00000000000000000000000000000000000000000000000000000000081526004018080602001828103825260188152602001807f4661696c65642d746f2d7472616e736665722d746f6b656e000000000000000081525060200191505060405180910390fd5b6000600860008573ffffffffffffffffffffffffffffffffffffffff1673ffffffffffffffffffffffffffffffffffffffff168152602001908152602001600020819055506001915050919050565b6000600160008373ffffffffffffffffffffffffffffffffffffffff1673ffffffffffffffffffffffffffffffffffffffff16815260200190815260200160002060009054906101000a900460ff1690508015600160008473ffffffffffffffffffffffffffffffffffffffff1673ffffffffffffffffffffffffffffffffffffffff16815260200190815260200160002060006101000a81548160ff0219169083151502179055507fae0a768e1f5a7943e3f1bb8a4d503c6fbfea4c9bbbded6b463e48bebd28ef725828215604051808373ffffffffffffffffffffffffffffffffffffffff1673ffffffffffffffffffffffffffffffffffffffff168152602001821515151581526020019250505060405180910390a15050565b600081600760008573ffffffffffffffffffffffffffffffffffffffff1673ffffffffffffffffffffffffffffffffffffffff168152602001908152602001600020819055508273ffffffffffffffffffffffffffffffffffffffff167fbd8c147319e252deb42fbeb2397f1c9861e7b6e915aa183dee1092970821fe678342604051808381526020018281526020019250505060405180910390a26001905092915050565b60006004600083815260200190815260200160002090506000816005015490506000826004015490508060046000848152602001908152602001600020600401819055508160046000838152602001908152602001600020600501819055508260010160009054906101000a900473ffffffffffffffffffffffffffffffffffffffff1673ffffffffffffffffffffffffffffffffffffffff168360000154857fd2d0883123678db7c0c5b1e242fb27ad869fb470582e286f057a142d314835d0426040518082815260200191505060405180910390a4600460008581526020019081526020016000206000808201600090556001820160006101000a81549073ffffffffffffffffffffffffffffffffffffffff021916905560028201600090556003820160009055600482016000905560058201600090556006820160009055505050505050565b82600281019282156135fb579160200282015b828111156135fa5782518260006101000a81548173ffffffffffffffffffffffffffffffffffffffff021916908373ffffffffffffffffffffffffffffffffffffffff160217905550916020019190600101906135a2565b5b50905061360891906136aa565b5090565b60c0604051908101604052806136206136ed565b81526020016000151581526020016000801916815260200160008019168152602001600080191681525090565b60e06040519081016040528060008019168152602001600073ffffffffffffffffffffffffffffffffffffffff16815260200160008152602001600081526020016000801916815260200160008019168152602001600081525090565b6136ea91905b808211156136e657600081816101000a81549073ffffffffffffffffffffffffffffffffffffffff0219169055506001016136b0565b5090565b90565b604080519081016040528060029060208202803883398082019150509050509056fea165627a7a7230582071c3b37dad7f1e2bf31f1c2df5a0e51fc219a534e31600711d7ede007a657a2c0029",
  "source": "pragma solidity ^0.5.0;\r\nimport \"./Whitelist.sol\";\r\nimport \"./interfaces/IERC.sol\";\r\nimport \"./modules/Admin.sol\";\r\n/*\r\n    Define:\r\n    pair (TokenA, TokenB) != (TokenB, TokenA)\r\n    weiX = wei of TokenX\r\n    price(TokenA, TokenB) = weiB * ZOOM  / weiA\r\n    buy/sell tokenA\r\n    buy: deposit TokenB\r\n    sell: deposit TokenA\r\n*/\r\n\r\ncontract Structs {\r\n\r\n    struct Order {\r\n        bytes32 book;\r\n        address owner;\r\n        uint depositedAmount;\r\n        uint price;\r\n        bytes32 next;\r\n        bytes32 prev;\r\n        uint nonce;\r\n    }\r\n\r\n    struct OrderList {\r\n        bytes32 highestId;\r\n        bytes32 lowestId;\r\n    }\r\n\r\n    struct Book {\r\n        address[2] tokens;\r\n        bool orderType;\r\n        bytes32 pairedBook;\r\n        bytes32 highestId;\r\n        bytes32 lowestId;\r\n    }\r\n}\r\n\r\ncontract Constants {\r\n    uint constant MAX_UINT128 = uint128(0) - 1;\r\n    uint constant MAX_UINT = uint(MAX_UINT128);\r\n\r\n    uint constant ZOOM =  10**18;\r\n\r\n    bool constant BUY = true;\r\n    bool constant SELL = false;\r\n\r\n    address constant ZERO_ADDRESS = address(0x0);\r\n\r\n    uint constant LOOP_LIMIT = 100;\r\n\r\n    uint constant CASHBACK = 0.02 ether;\r\n}\r\n\r\ncontract Events {\r\n    event CreatePair(\r\n        address _tokenA,\r\n        address _tokenB,\r\n        bytes32 _sellBookId,\r\n        bytes32 _buyBookId,\r\n        uint _createdAt\r\n    );\r\n\r\n    event CreateOrder(\r\n        bytes32 indexed _orderId,\r\n        bytes32 indexed _book,\r\n        address indexed _owner,\r\n        uint _price,\r\n        uint _amount,\r\n        uint _createdAt\r\n    );\r\n\r\n    event UpdateOrder(\r\n        bytes32 indexed _orderId,\r\n        bytes32 indexed _book,\r\n        address indexed _owner,\r\n        uint _amount,\r\n        uint _createdAt\r\n    );\r\n\r\n    event RemoveOrder(\r\n        bytes32 indexed _orderId,\r\n        bytes32 indexed _book,\r\n        address indexed _owner,\r\n        uint _createdAt\r\n    );\r\n\r\n    event CancelOrder(\r\n        bytes32 indexed _orderId,\r\n        bytes32 indexed _book,\r\n        address indexed _owner,\r\n        uint _createdAt\r\n    );\r\n\r\n    event Matching(\r\n        bytes32 indexed _sellBook,\r\n        bytes32 indexed _buyBook,\r\n        uint _price,\r\n        uint _amount,\r\n        bool _orderType,\r\n        uint _createdAt\r\n    );\r\n\r\n    event TokenReceived(\r\n        bytes32 indexed _orderId,\r\n        bytes32 indexed _book,\r\n        address indexed _owner,\r\n        uint _amount\r\n    );\r\n\r\n    event ChangeFee(\r\n        address indexed _token,\r\n        uint _newFee,\r\n        uint _createdAt\r\n    );\r\n}\r\n\r\ncontract Dex is Structs, Constants, Events, Admin {\r\n    modifier validPrice(uint _price) {\r\n        require(_price > 0 && _price < MAX_UINT, \"Invalid Price\");\r\n        _;\r\n    }\r\n\r\n    mapping(bytes32 => Book) public books;\r\n    mapping(bytes32 => bool) public bookCreated;\r\n    mapping(bytes32 => Order) public orders;\r\n\r\n    uint public nonce;\r\n\r\n    uint public matchingFee = 10; // 0.01% in basis points (parts per 10000)\r\n    mapping(address => uint) public fixedFeeOf;\r\n    // Store all fee based on token address\r\n    mapping (address => uint) public feePool;\r\n\r\n    constructor(\r\n        address[] memory _dexAdmins,\r\n        address wDRK,\r\n        address wETH\r\n    )\r\n        payable\r\n        Admin(_dexAdmins)\r\n        public\r\n    {\r\n        fixedFeeOf[wETH] = 0.0001 ether; // 0.0001 ETH\r\n        fixedFeeOf[wDRK] = 10 ether; // 10 DRK\r\n\r\n        initBooks([wDRK, wETH]);\r\n    }\r\n\r\n    function() external payable {\r\n    }\r\n\r\n    function _changeFee(address _token, uint _newFee) private returns (bool) {\r\n        fixedFeeOf[_token] = _newFee;\r\n        emit ChangeFee(_token, _newFee, now);\r\n        return true;\r\n    }\r\n\r\n    function changeFee(address token, uint newFee) public onlyAdmin(msg.sender) {\r\n        require(_changeFee(token, newFee),\"Failed-to-set-new-fee\");\r\n    }\r\n\r\n    function initBooks(\r\n        address[2] memory _tokens\r\n    )\r\n        public\r\n    {\r\n        // require(\r\n        //     whitelisted(_tokens[0]) && whitelisted(_tokens[1]),\r\n        //     \"Token not listed\"\r\n        // );\r\n        bytes32 buyBookId = getBookId(_tokens, BUY);\r\n        bytes32 sellBookId = getBookId(_tokens, SELL);\r\n\r\n        if (bookCreated[buyBookId]) {\r\n            return;\r\n        }\r\n\r\n        bookCreated[buyBookId] = true;\r\n        bookCreated[sellBookId] = true;\r\n\r\n        Book storage buyBook = books[buyBookId];\r\n        Book storage sellBook = books[sellBookId];\r\n\r\n        buyBook.tokens = _tokens;\r\n        buyBook.orderType = BUY;\r\n        buyBook.pairedBook = sellBookId;\r\n\r\n        sellBook.tokens = _tokens;\r\n        sellBook.orderType = SELL;\r\n        sellBook.pairedBook = buyBookId;\r\n\r\n        _initBook(buyBookId);\r\n        _initBook(sellBookId);\r\n        emit CreatePair(\r\n            _tokens[0],\r\n            _tokens[1],\r\n            sellBookId,\r\n            buyBookId,\r\n            now\r\n        );\r\n    }\r\n\r\n    function _initBook(\r\n        bytes32 _bookId\r\n    )\r\n        internal\r\n    {\r\n        Book storage book = books[_bookId];\r\n        bytes32 highestId = _createOrderId();\r\n        bytes32 lowestId = _createOrderId();\r\n        book.lowestId = lowestId;\r\n        book.highestId = highestId;\r\n\r\n        orders[highestId].book = _bookId;\r\n        orders[highestId].price = MAX_UINT;\r\n        orders[highestId].prev = lowestId;\r\n\r\n        orders[lowestId].book = _bookId;\r\n        orders[lowestId].next = highestId;\r\n    }\r\n\r\n    function getBookId(\r\n        address[2] memory _tokens,\r\n        bool _orderType\r\n    )\r\n        public\r\n        pure\r\n        returns(bytes32)\r\n    {\r\n        return sha256(abi.encodePacked(_tokens[0], _tokens[1], _orderType));\r\n    }\r\n\r\n    function _createOrderId()\r\n        internal\r\n        returns(bytes32)\r\n    {\r\n        nonce++;\r\n        return sha256(abi.encodePacked(nonce));\r\n    }\r\n\r\n    function _defaultPointer(\r\n        Book storage _book\r\n    )\r\n        internal\r\n        view\r\n        returns(bytes32)\r\n    {\r\n        if (_book.orderType == BUY) {\r\n            return _book.highestId;\r\n        } else {\r\n            return _book.lowestId;\r\n        }\r\n    }\r\n\r\n    function _insert(\r\n        bytes32 _nextId,\r\n        bytes32 _newOrderId\r\n    )\r\n        internal\r\n    {\r\n        bytes32 _prevId = orders[_nextId].prev;\r\n        orders[_nextId].prev = _newOrderId;\r\n        orders[_prevId].next = _newOrderId;\r\n        orders[_newOrderId].prev = _prevId;\r\n        orders[_newOrderId].next = _nextId;\r\n    }\r\n\r\n    function _findNextId(\r\n        Book storage _book,\r\n        uint _price,\r\n        bytes32 _pointer\r\n    )\r\n        internal\r\n        view\r\n        returns(bytes32)\r\n    {\r\n        bytes32 pointer = _pointer;\r\n        if (_book.orderType == BUY) {\r\n            while (_price > orders[pointer].price) {\r\n                pointer = orders[pointer].next;\r\n            }\r\n            if (pointer != _pointer) return pointer;\r\n            pointer = orders[pointer].prev;\r\n            while (_price <= orders[pointer].price) {\r\n                pointer = orders[pointer].prev;\r\n            }\r\n            return orders[pointer].next;\r\n        } else {\r\n            while (_price >= orders[pointer].price) {\r\n                pointer = orders[pointer].next;\r\n            }\r\n            if (pointer != _pointer) return pointer;\r\n            pointer = orders[pointer].prev;\r\n            while (_price < orders[pointer].price) {\r\n                pointer = orders[pointer].prev;\r\n            }\r\n            return orders[pointer].next;\r\n        }\r\n    }\r\n\r\n    function getBookToken(\r\n        Book storage _book\r\n    )\r\n        internal\r\n        view\r\n        returns(address tokenAddress)\r\n    {\r\n        tokenAddress = _book.orderType == BUY\r\n            ? _book.tokens[1]\r\n            : _book.tokens[0];\r\n    }\r\n\r\n    function _leadingOrder(\r\n        Book storage book\r\n    )\r\n        internal\r\n        view\r\n        returns(bytes32)\r\n    {\r\n        if (book.orderType == BUY) {\r\n            return orders[book.highestId].prev;\r\n        } else {\r\n            return orders[book.lowestId].next;\r\n        }\r\n    }\r\n\r\n    function _matching(\r\n        address[2] memory _tokens,\r\n        bytes32 _buyOrderId,\r\n        bytes32 _sellOrderId\r\n    )\r\n        internal\r\n        returns(bool)\r\n    {\r\n        Order storage buyOrder = orders[_buyOrderId];\r\n        Order storage sellOrder = orders[_sellOrderId];\r\n        if (buyOrder.price < sellOrder.price) return false;\r\n        address tokenA = _tokens[0];\r\n        address tokenB = _tokens[1];\r\n        // price equal to order created before\r\n        uint price = buyOrder.nonce < sellOrder.nonce ? buyOrder.price : sellOrder.price;\r\n        // (A, B)\r\n        // P = wei B * ZOOM / wei A\r\n        // BA = BB / P\r\n        // BB = buyer deposited\r\n        // SA = seller deposited\r\n        // SB = SA * P\r\n        // SA * P\r\n        uint tmp = sellOrder.depositedAmount * price / ZOOM;\r\n        bool orderType = sellOrder.nonce > buyOrder.nonce ? BUY : SELL;\r\n        // BB / P < SA\r\n        // buyOrder full filled ->  remove\r\n        if (tmp > buyOrder.depositedAmount) {\r\n            // -= BB / P\r\n            // amount send to Buyer = (Buyer.deposit - matchingFee)*Zoom/price\r\n            // ammount send to seller = (Buyer.deposit - matchingFee)\r\n            uint tokenAfeeAmount = buyOrder.depositedAmount * matchingFee / 10000;\r\n            uint tokenAToBuyer = (buyOrder.depositedAmount - tokenAfeeAmount) * ZOOM / price;\r\n            feePool[tokenA] += tokenAfeeAmount;\r\n            sellOrder.depositedAmount -= buyOrder.depositedAmount * ZOOM / price;\r\n            emit UpdateOrder(_sellOrderId, sellOrder.book, sellOrder.owner, sellOrder.depositedAmount, now);\r\n            emit Matching(sellOrder.book, buyOrder.book, price, tokenAToBuyer, orderType, now);\r\n            IERC(tokenA).transfer(buyOrder.owner, tokenAToBuyer);\r\n            emit TokenReceived(_buyOrderId, buyOrder.book, buyOrder.owner, tokenAToBuyer);\r\n            uint tokenBfeeAmount = buyOrder.depositedAmount * matchingFee / 10000;\r\n            uint tokenBToSeller = buyOrder.depositedAmount - tokenBfeeAmount;\r\n            feePool[tokenB] += tokenBfeeAmount;\r\n            IERC(tokenB).transfer(sellOrder.owner, tokenBToSeller);\r\n            emit TokenReceived(_sellOrderId, sellOrder.book, sellOrder.owner, tokenBToSeller);\r\n            _remove(_buyOrderId);\r\n        } else {\r\n        // sellOrder full filled -> remove\r\n            // -= SA * P\r\n            // Charge matching fee of Seller\r\n            uint tokenBfeeAmount = sellOrder.depositedAmount * matchingFee / 10000;\r\n            uint tokenBToSeller = (sellOrder.depositedAmount - tokenBfeeAmount) * price / ZOOM;\r\n            feePool[tokenB] += tokenBfeeAmount;\r\n            buyOrder.depositedAmount -= sellOrder.depositedAmount * price / ZOOM;\r\n            emit UpdateOrder(_buyOrderId, buyOrder.book, buyOrder.owner, buyOrder.depositedAmount, now);\r\n            emit Matching(sellOrder.book, buyOrder.book, price, sellOrder.depositedAmount, orderType, now);\r\n            IERC(tokenB).transfer(sellOrder.owner, tokenBToSeller);\r\n            emit TokenReceived(_sellOrderId, sellOrder.book, sellOrder.owner, tokenBToSeller);\r\n            uint tokenAfeeAmount = sellOrder.depositedAmount * matchingFee / 10000;\r\n            uint tokenAToBuyer = sellOrder.depositedAmount - tokenAfeeAmount;\r\n            feePool[tokenA] += tokenAfeeAmount;\r\n            IERC(tokenA).transfer(buyOrder.owner, tokenAToBuyer);\r\n            emit TokenReceived(_buyOrderId, buyOrder.book, buyOrder.owner, tokenAToBuyer);\r\n            _remove(_sellOrderId);\r\n        }\r\n        return true;\r\n    }\r\n\r\n    /*\r\n        use gas used + limit to calculate loop\r\n    */\r\n    function matchingLoop(\r\n        bytes32 _bookId,\r\n        uint _loopLimit\r\n    )\r\n        public\r\n    {\r\n        Book storage book = books[_bookId];\r\n        Book storage pairedBook = books[book.pairedBook];\r\n        uint currentLoop = 0;\r\n        if (book.orderType == BUY) {\r\n            while (currentLoop < _loopLimit) {\r\n                bytes32 leaderOrder = _leadingOrder(book);\r\n                bytes32 pairedLeaderOrder = _leadingOrder(pairedBook);\r\n                bool success = _matching(book.tokens, leaderOrder, pairedLeaderOrder);\r\n                if (!success) return;\r\n                currentLoop++;\r\n            }\r\n        } else {\r\n            while (currentLoop < _loopLimit) {\r\n                bytes32 leaderOrder = _leadingOrder(book);\r\n                bytes32 pairedLeaderOrder = _leadingOrder(pairedBook);\r\n                bool success = _matching(book.tokens, pairedLeaderOrder, leaderOrder);\r\n                if (!success) return;\r\n                currentLoop++;\r\n            }\r\n        }\r\n    }\r\n\r\n    function create(\r\n        bytes32 _bookId,\r\n        uint _depositedAmount,\r\n        uint _price,\r\n        bytes32 _pointer\r\n    )\r\n        public\r\n        validPrice(_price)\r\n    {\r\n        address payable _sender = msg.sender;\r\n        require(bookCreated[_bookId], \"book not created!\");\r\n        Book storage book = books[_bookId];\r\n        address tokenAddress = getBookToken(book);\r\n        // Charge create order fee: totalAmountTransfer = _depositedAmount + fixedFeeOf[tokenAddress]\r\n        IERC(tokenAddress).transferFrom(_sender, address(this), _depositedAmount + fixedFeeOf[tokenAddress]);\r\n        feePool[tokenAddress] += fixedFeeOf[tokenAddress];\r\n        bytes32 pointer = _pointer;\r\n        if (orders[_pointer].book != _bookId) {\r\n            pointer = _defaultPointer(book);\r\n        }\r\n        bytes32 nextId = _findNextId(book, _price, pointer);\r\n        bytes32 newOrderId = _createOrderId();\r\n        Order storage newOrder = orders[newOrderId];\r\n\r\n        newOrder.book = _bookId;\r\n        newOrder.owner = _sender;\r\n        newOrder.depositedAmount = _depositedAmount;\r\n        newOrder.price = _price;\r\n        newOrder.nonce = nonce;\r\n        _insert(nextId, newOrderId);\r\n        emit CreateOrder(\r\n            newOrderId,\r\n            _bookId,\r\n            _sender,\r\n            _price,\r\n            _depositedAmount,\r\n            now\r\n        );\r\n        // try to match order after creating\r\n        matchingLoop(_bookId, LOOP_LIMIT);\r\n        _sender.transfer(CASHBACK);\r\n    }\r\n\r\n    function create1st(\r\n        address[2] memory _tokens,\r\n        bytes32 _bookId,\r\n        uint _depositedAmount,\r\n        uint _price,\r\n        bytes32 _pointer\r\n    )\r\n        public\r\n    {\r\n        initBooks(_tokens);\r\n        create(\r\n            _bookId,\r\n            _depositedAmount,\r\n            _price,\r\n            _pointer\r\n        );\r\n    }\r\n\r\n    function _remove(\r\n        bytes32 _id\r\n    )\r\n        internal\r\n    {\r\n        Order storage order = orders[_id];\r\n        bytes32 prev = order.prev;\r\n        bytes32 next = order.next;\r\n        orders[prev].next = next;\r\n        orders[next].prev = prev;\r\n        emit RemoveOrder(_id, order.book, order.owner, now);\r\n        delete orders[_id];\r\n    }\r\n\r\n    function cancel(\r\n        bytes32 _id\r\n    )\r\n        public\r\n    {\r\n        address _sender = msg.sender;\r\n        Order storage order = orders[_id];\r\n        require(_sender == order.owner, \"only owner can remove order\");\r\n        bytes32 prev = order.prev;\r\n        bytes32 next = order.next;\r\n        orders[prev].next = next;\r\n        orders[next].prev = prev;\r\n        uint depositedAmount = order.depositedAmount;\r\n        Book storage book = books[order.book];\r\n        address tokenAddress = getBookToken(book);\r\n        IERC(tokenAddress).transfer(_sender, depositedAmount);\r\n        emit CancelOrder(_id, order.book, order.owner, now);\r\n        delete orders[_id];\r\n    }\r\n\r\n    function _adminClaimFee(address _token) internal returns (bool) {\r\n        uint feeBalance = feePool[_token];\r\n        require(IERC(_token).transfer(msg.sender, feeBalance),\"Failed-to-transfer-token\");\r\n        feePool[_token] = 0;\r\n        return true;\r\n    }\r\n\r\n    function adminClaimFee(address token) onlyAdmin(msg.sender) public {\r\n        _adminClaimFee(token);\r\n    }\r\n\r\n    /*\r\n        Public Functions\r\n    */\r\n\r\n    function loadOrderbook(\r\n        bytes32 _bookId,\r\n        uint _total\r\n    )\r\n        public\r\n        view\r\n        returns(uint, bytes32[] memory, uint[] memory, uint[] memory)\r\n    {\r\n        Book memory book = books[_bookId];\r\n        Order memory order;\r\n        bytes32 cursor;\r\n        uint total = 0;\r\n        bytes32[] memory orderIds = new bytes32[](_total);\r\n        uint[] memory prices = new uint[](_total);\r\n        uint[] memory amounts = new uint[](_total);\r\n        if (book.orderType == SELL) {\r\n            cursor = book.lowestId;\r\n            order = orders[cursor];\r\n            while ((total < _total) && (order.next != book.highestId)) {\r\n                cursor = order.next;\r\n                order = orders[cursor];\r\n                orderIds[total] = cursor;\r\n                prices[total] = order.price;\r\n                amounts[total] = order.depositedAmount;\r\n                total++;\r\n            }\r\n        } else {\r\n            cursor = book.highestId;\r\n            order = orders[cursor];\r\n            while ((total < _total) && (order.prev != book.lowestId)) {\r\n                cursor = order.prev;\r\n                order = orders[cursor];\r\n                orderIds[total] = cursor;\r\n                prices[total] = order.price;\r\n                amounts[total] = order.depositedAmount;\r\n                total++;\r\n            }\r\n        }\r\n        return (total, orderIds, prices, amounts);\r\n    }\r\n}",
  "sourcePath": "C:/Users/bestb/Desktop/DEntwickler/RetDex/core/contracts/Dex.sol",
  "compiler": {
    "name": "solc",
    "version": "0.5.0+commit.1d4f565a.Emscripten.clang"
  },
  "schemaVersion": "3.0.16",
  "updatedAt": "2020-05-29T07:13:00.330Z",
  "devdoc": {
    "methods": {}
  },
  "userdoc": {
    "methods": {}
  }
}