{
  "contractName": "Frozen",
  "abi": [
    {
      "anonymous": false,
      "inputs": [
        {
          "indexed": true,
          "internalType": "address",
          "name": "_validator",
          "type": "address"
        },
        {
          "indexed": false,
          "internalType": "uint256",
          "name": "_amount",
          "type": "uint256"
        },
        {
          "indexed": false,
          "internalType": "uint256",
          "name": "_frozenBalance",
          "type": "uint256"
        }
      ],
      "name": "FrozenIncreased",
      "type": "event"
    },
    {
      "anonymous": false,
      "inputs": [
        {
          "indexed": true,
          "internalType": "address",
          "name": "_validator",
          "type": "address"
        },
        {
          "indexed": false,
          "internalType": "uint256",
          "name": "_amount",
          "type": "uint256"
        },
        {
          "indexed": false,
          "internalType": "uint256",
          "name": "_frozenBalance",
          "type": "uint256"
        }
      ],
      "name": "FrozenDecreased",
      "type": "event"
    },
    {
      "anonymous": false,
      "inputs": [
        {
          "indexed": true,
          "internalType": "address",
          "name": "_validator",
          "type": "address"
        },
        {
          "indexed": false,
          "internalType": "uint256",
          "name": "_amount",
          "type": "uint256"
        },
        {
          "indexed": false,
          "internalType": "uint256",
          "name": "_frozenBalance",
          "type": "uint256"
        }
      ],
      "name": "Cashout",
      "type": "event"
    },
    {
      "constant": true,
      "inputs": [
        {
          "internalType": "address",
          "name": "_validator",
          "type": "address"
        }
      ],
      "name": "getFrozenBalance",
      "outputs": [
        {
          "internalType": "uint256",
          "name": "",
          "type": "uint256"
        }
      ],
      "payable": false,
      "stateMutability": "view",
      "type": "function"
    }
  ],
  "bytecode": "0x608060405234801561001057600080fd5b5060ff8061001f6000396000f3fe6080604052348015600f57600080fd5b506004361060285760003560e01c80639f2cfaf114602d575b600080fd5b606c60048036036020811015604157600080fd5b81019080803573ffffffffffffffffffffffffffffffffffffffff1690602001909291905050506082565b6040518082815260200191505060405180910390f35b60008060008373ffffffffffffffffffffffffffffffffffffffff1673ffffffffffffffffffffffffffffffffffffffff16815260200190815260200160002054905091905056fea265627a7a723158201dffd4d7d00e40e72af47442c312e61fae334801c71629afe50e131d3dcc76bf64736f6c634300050b0032",
  "source": "pragma solidity ^0.5.0;\r\nimport \"./openzeppelin/SafeMath.sol\";\r\n\r\n/**\r\n * @title drkchain validator's frozen smart contract\r\n */\r\ncontract Frozen {\r\n    using SafeMath for uint;\r\n\r\n    event FrozenIncreased(address indexed _validator, uint _amount, uint _frozenBalance);\r\n    event FrozenDecreased(address indexed _validator, uint _amount, uint _frozenBalance);\r\n    event Cashout(address indexed _validator, uint _amount, uint _frozenBalance);\r\n\r\n    // validator's frozen balance\r\n    mapping(address => uint) private frozenBalances;\r\n\r\n    function _addFrozenBalance(\r\n        address _validator,\r\n        uint _amount\r\n    )\r\n        internal\r\n    {\r\n        frozenBalances[_validator] = frozenBalances[_validator].add(_amount);\r\n        emit FrozenIncreased(_validator, _amount, frozenBalances[_validator]);\r\n    }\r\n\r\n    function _reduceFrozenBalance(\r\n        address _validator,\r\n        uint _amount\r\n    )\r\n        internal\r\n    {\r\n        frozenBalances[_validator] = frozenBalances[_validator].sub(_amount);\r\n        emit FrozenDecreased(_validator, _amount, frozenBalances[_validator]);\r\n    }\r\n\r\n    function _cashout(\r\n        address payable _validator,\r\n        uint _amount\r\n    )\r\n        internal\r\n    {\r\n        _reduceFrozenBalance(_validator, _amount);\r\n        _validator.transfer(_amount);\r\n        emit Cashout(_validator, _amount, frozenBalances[_validator]);\r\n    }\r\n\r\n    function getFrozenBalance(\r\n        address _validator\r\n    )\r\n        public\r\n        view\r\n        returns(uint)\r\n    {\r\n        return frozenBalances[_validator];\r\n    }\r\n}",
  "sourcePath": "C:\\Users\\bestb\\Desktop\\DEntwickler\\Validator\\core\\contracts\\Frozen.sol",
  "compiler": {
    "name": "solc",
    "version": "0.5.11+commit.c082d0b4.Emscripten.clang"
  },
  "schemaVersion": "3.0.16",
  "updatedAt": "2019-10-29T05:08:24.834Z",
  "devdoc": {
    "methods": {},
    "title": "rchain validator's frozen smart contract\r"
  },
  "userdoc": {
    "methods": {}
  }
}