{
  "contractName": "Lock",
  "abi": [
    {
      "constant": true,
      "inputs": [
        {
          "internalType": "address",
          "name": "",
          "type": "address"
        }
      ],
      "name": "unlockedAt",
      "outputs": [
        {
          "internalType": "uint256",
          "name": "",
          "type": "uint256"
        }
      ],
      "payable": false,
      "stateMutability": "view",
      "type": "function"
    },
    {
      "constant": true,
      "inputs": [],
      "name": "SLASHED_BLOCK",
      "outputs": [
        {
          "internalType": "uint256",
          "name": "",
          "type": "uint256"
        }
      ],
      "payable": false,
      "stateMutability": "view",
      "type": "function"
    },
    {
      "anonymous": false,
      "inputs": [
        {
          "indexed": true,
          "internalType": "address",
          "name": "_validator",
          "type": "address"
        }
      ],
      "name": "Slashed",
      "type": "event"
    },
    {
      "anonymous": false,
      "inputs": [
        {
          "indexed": true,
          "internalType": "address",
          "name": "_validator",
          "type": "address"
        },
        {
          "indexed": true,
          "internalType": "uint256",
          "name": "_unlockedAt",
          "type": "uint256"
        }
      ],
      "name": "Locked",
      "type": "event"
    },
    {
      "constant": true,
      "inputs": [
        {
          "internalType": "address",
          "name": "_validator",
          "type": "address"
        }
      ],
      "name": "statusOf",
      "outputs": [
        {
          "internalType": "enum Lock.ValidatorStatus",
          "name": "",
          "type": "uint8"
        }
      ],
      "payable": false,
      "stateMutability": "view",
      "type": "function"
    }
  ],
  "bytecode": "0x608060405234801561001057600080fd5b50610225806100206000396000f3fe608060405234801561001057600080fd5b50600436106100415760003560e01c80632cf5db131461004657806397a5d5b51461009e578063e706596314610104575b600080fd5b6100886004803603602081101561005c57600080fd5b81019080803573ffffffffffffffffffffffffffffffffffffffff169060200190929190505050610122565b6040518082815260200191505060405180910390f35b6100e0600480360360208110156100b457600080fd5b81019080803573ffffffffffffffffffffffffffffffffffffffff16906020019092919050505061013a565b604051808260028111156100f057fe5b60ff16815260200191505060405180910390f35b61010c6101cc565b6040518082815260200191505060405180910390f35b60006020528060005260406000206000915090505481565b6000806000808473ffffffffffffffffffffffffffffffffffffffff1673ffffffffffffffffffffffffffffffffffffffff168152602001908152602001600020549050438110156101905760009150506101c7565b7f800000000000000000000000000000000000000000000000000000000000000081146101c15760019150506101c7565b60029150505b919050565b7f80000000000000000000000000000000000000000000000000000000000000008156fea265627a7a723158209a6696e86e4c6b9bad17c29a4e959ba7217b9223f5c3d3a258e17fb5d08c3a8964736f6c634300050b0032",
  "source": "pragma solidity ^0.5.0;\r\n\r\nimport \"./openzeppelin/SafeMath.sol\";\r\n\r\n/**\r\n * @title drkchain validators lock smart contract\r\n */\r\ncontract Lock {\r\n\r\n    modifier isNotSlashed() {\r\n        require(statusOf(msg.sender) != ValidatorStatus.SLASHED, \"validator is slashed\");\r\n        _;\r\n    }\r\n\r\n    modifier notLocked() {\r\n        require(statusOf(msg.sender) == ValidatorStatus.NOT_LOCKED, \"validator is locked or slashed\");\r\n        _;\r\n    }\r\n\r\n    enum ValidatorStatus {\r\n        // Withdrawable and joinable\r\n        NOT_LOCKED,\r\n\r\n        // unwithdrawable but joinable\r\n        LOCKED,\r\n\r\n        // unwithdrawable nor joinable\r\n        SLASHED\r\n    }\r\n\r\n    event Slashed(address indexed _validator);\r\n    event Locked(address indexed _validator, uint indexed _unlockedAt);\r\n\r\n    uint constant public SLASHED_BLOCK = 2**255;\r\n\r\n    mapping (address => uint) public unlockedAt;\r\n\r\n    function _lock(address _validator, uint _unlockedAt) internal {\r\n        require(_unlockedAt > block.number, \"invalid unlocked block\");\r\n        unlockedAt[_validator] = _unlockedAt;\r\n        emit Locked(_validator, _unlockedAt);\r\n    }\r\n\r\n    function _slash(address _validator) internal {\r\n        unlockedAt[_validator] = SLASHED_BLOCK;\r\n        emit Slashed(_validator);\r\n    }\r\n\r\n    function _unlock(address _validator) internal {\r\n        unlockedAt[_validator] = 0;\r\n    }\r\n\r\n    function statusOf(address _validator) public view returns(ValidatorStatus) {\r\n        uint unlockedBlock = unlockedAt[_validator];\r\n        if (unlockedBlock < block.number) {\r\n            return ValidatorStatus.NOT_LOCKED;\r\n        } else {\r\n            if (unlockedBlock != SLASHED_BLOCK) {\r\n                return ValidatorStatus.LOCKED;\r\n            } else {\r\n                return ValidatorStatus.SLASHED;\r\n            }\r\n        }\r\n    }\r\n}",
  "sourcePath": "C:\\Users\\bestb\\Desktop\\DEntwickler\\Validator\\core\\contracts\\Lock.sol",
  "compiler": {
    "name": "solc",
    "version": "0.5.11+commit.c082d0b4.Emscripten.clang"
  },
  "schemaVersion": "3.0.16",
  "updatedAt": "2019-10-29T05:08:24.843Z",
  "devdoc": {
    "methods": {},
    "title": "rchain validators lock smart contract\r"
  },
  "userdoc": {
    "methods": {}
  }
}