{
  "contractName": "Penalize",
  "abi": [
    {
      "constant": true,
      "inputs": [],
      "name": "ROYALTY_STACK_LIMIT",
      "outputs": [
        {
          "internalType": "uint256",
          "name": "",
          "type": "uint256"
        }
      ],
      "payable": false,
      "stateMutability": "view",
      "type": "function"
    },
    {
      "constant": true,
      "inputs": [],
      "name": "BLOCKS_PER_ROYALTY",
      "outputs": [
        {
          "internalType": "uint256",
          "name": "",
          "type": "uint256"
        }
      ],
      "payable": false,
      "stateMutability": "view",
      "type": "function"
    },
    {
      "anonymous": false,
      "inputs": [
        {
          "indexed": true,
          "internalType": "address",
          "name": "_validator",
          "type": "address"
        }
      ],
      "name": "ProofSubmitted",
      "type": "event"
    },
    {
      "anonymous": false,
      "inputs": [
        {
          "indexed": true,
          "internalType": "address",
          "name": "_validator",
          "type": "address"
        },
        {
          "indexed": false,
          "internalType": "uint256",
          "name": "_point",
          "type": "uint256"
        }
      ],
      "name": "PointUpdated",
      "type": "event"
    },
    {
      "anonymous": false,
      "inputs": [
        {
          "indexed": true,
          "internalType": "address",
          "name": "_validator",
          "type": "address"
        }
      ],
      "name": "StartTimer",
      "type": "event"
    }
  ],
  "bytecode": "0x6080604052600a600055600360015534801561001a57600080fd5b5060b0806100296000396000f3fe6080604052348015600f57600080fd5b506004361060325760003560e01c80633494e267146037578063dc49f0dc146053575b600080fd5b603d606f565b6040518082815260200191505060405180910390f35b60596075565b6040518082815260200191505060405180910390f35b60015481565b6000548156fea265627a7a723158204816c89e31381a2571ec222401af2346252b94c9d048caccbdf6b5978d1049fa64736f6c634300050b0032",
  "source": "pragma solidity ^0.5.0;\r\nimport \"./openzeppelin/SafeMath.sol\";\r\n\r\n/**\r\n * @title drkchain validator's penalize smart contract\r\n */\r\ncontract Penalize {\r\n    using SafeMath for uint;\r\n\r\n    modifier onlyCoinbase() {\r\n        require(msg.sender == block.coinbase, \"Sender is not coinbase\");\r\n        _;\r\n    }\r\n\r\n    modifier onlyValidReport(address _reportedValidator, uint _safeRange) {\r\n        require(startTimerAtBlock[_reportedValidator] > 0, \"timer not started\");\r\n        require(startTimerAtBlock[_reportedValidator] + _safeRange < block.number, \"too early too be penalized\");\r\n        // require(lastSealedBlock[_reportedValidator] + _safeRange < block.number, \"still in acceptable range from last sealed block\");\r\n        // require(lastPenalizedBlock[_reportedValidator] + _safeRange < block.number, \"too early too be penalized again\");\r\n        _;\r\n    }\r\n\r\n    event ProofSubmitted(address indexed _validator);\r\n    event PointUpdated(address indexed _validator, uint _point);\r\n    event StartTimer(address indexed _validator);\r\n\r\n    // every BLOCKS_PER_ROYALTY sealed blocks, validator received a royalty point\r\n    uint public BLOCKS_PER_ROYALTY = 10;\r\n    uint public ROYALTY_STACK_LIMIT = 3;\r\n\r\n    // mapping(address => uint) private lastSealedBlock;\r\n    // mapping(address => uint) private lastPenalizedBlock;\r\n    mapping(address => uint) private startTimerAtBlock;\r\n    mapping(address => uint) private royaltyPoint;\r\n    mapping(address => uint) private sealedBlocks;\r\n    mapping(address => uint) private penalizedTimes;\r\n\r\n    function _addRoyalty(\r\n        address _validator\r\n    )\r\n        internal\r\n    {\r\n        // points stacked full, not add anymore\r\n        if (royaltyPoint[_validator] >= penalizedTimes[_validator] + ROYALTY_STACK_LIMIT) {\r\n            return;\r\n        }\r\n        royaltyPoint[_validator]++;\r\n        emit PointUpdated(_validator, royaltyPoint[_validator]);\r\n    }\r\n\r\n    function _resetTimer(\r\n        address _validator\r\n    )\r\n        internal\r\n    {\r\n        startTimerAtBlock[_validator] = 0;\r\n        // points stacked will be lost\r\n        royaltyPoint[_validator] = penalizedTimes[_validator];\r\n    }\r\n\r\n    function _startTimer(\r\n        address _validator\r\n    )\r\n        internal\r\n    {\r\n        startTimerAtBlock[_validator] = block.number;\r\n        emit StartTimer(_validator);\r\n    }\r\n\r\n    function _submitProof(\r\n        address _validator\r\n    )\r\n        internal\r\n    {\r\n        // require(lastSealedBlock[_validator] < block.number, \"already submited\");\r\n        // lastSealedBlock[_validator] = block.number;\r\n        require(startTimerAtBlock[_validator] < block.number, \"already submited\");\r\n        _startTimer(_validator);\r\n        sealedBlocks[_validator]++;\r\n        if (sealedBlocks[_validator] % BLOCKS_PER_ROYALTY == 0) {\r\n            _addRoyalty(_validator);\r\n        }\r\n        emit ProofSubmitted(_validator);\r\n    }\r\n\r\n    // return amount to be penalized, if not reverted\r\n    function _report(\r\n        address _royalValidator,\r\n        address _reportedValidator,\r\n        uint _safeRange,\r\n        uint _penalizedBase\r\n    )\r\n        internal\r\n        // onlyCoinbase()\r\n        onlyValidReport(_reportedValidator, _safeRange)\r\n        returns(uint)\r\n    {\r\n        // self reports are welcome, and better than reported by someone else\r\n        // add royal point for reporter, which saves himself in future\r\n        _addRoyalty(_royalValidator);\r\n        // prevent to be reported again\r\n        // lastPenalizedBlock[_reportedValidator] = block.number;\r\n        _startTimer(_reportedValidator);\r\n        penalizedTimes[_reportedValidator]++;\r\n        if (royaltyPoint[_reportedValidator] >= penalizedTimes[_reportedValidator]) {\r\n            return _penalizedBase;\r\n        }\r\n        uint expo = penalizedTimes[_reportedValidator] - royaltyPoint[_reportedValidator];\r\n        return _penalizedBase * (2 ** expo);\r\n    }\r\n}",
  "sourcePath": "C:\\Users\\bestb\\Desktop\\DEntwickler\\Validator\\core\\contracts\\Penalize.sol",
  "compiler": {
    "name": "solc",
    "version": "0.5.11+commit.c082d0b4.Emscripten.clang"
  },
  "schemaVersion": "3.0.16",
  "updatedAt": "2019-10-29T05:08:24.856Z",
  "devdoc": {
    "methods": {},
    "title": "rchain validator's penalize smart contract\r"
  },
  "userdoc": {
    "methods": {}
  }
}