{
  "contractName": "Premine",
  "abi": [
    {
      "constant": true,
      "inputs": [
        {
          "internalType": "uint256",
          "name": "",
          "type": "uint256"
        }
      ],
      "name": "premineAddresses",
      "outputs": [
        {
          "internalType": "address",
          "name": "",
          "type": "address"
        }
      ],
      "payable": false,
      "stateMutability": "view",
      "type": "function"
    },
    {
      "constant": true,
      "inputs": [
        {
          "internalType": "uint256",
          "name": "",
          "type": "uint256"
        }
      ],
      "name": "premineBalances",
      "outputs": [
        {
          "internalType": "uint256",
          "name": "",
          "type": "uint256"
        }
      ],
      "payable": false,
      "stateMutability": "view",
      "type": "function"
    },
    {
      "constant": true,
      "inputs": [],
      "name": "getPremineSum",
      "outputs": [
        {
          "internalType": "uint256",
          "name": "",
          "type": "uint256"
        }
      ],
      "payable": false,
      "stateMutability": "view",
      "type": "function"
    },
    {
      "constant": true,
      "inputs": [],
      "name": "getPremineAddressesCount",
      "outputs": [
        {
          "internalType": "uint256",
          "name": "",
          "type": "uint256"
        }
      ],
      "payable": false,
      "stateMutability": "view",
      "type": "function"
    },
    {
      "constant": true,
      "inputs": [
        {
          "internalType": "uint256",
          "name": "i",
          "type": "uint256"
        }
      ],
      "name": "getPremineAccount",
      "outputs": [
        {
          "internalType": "address",
          "name": "",
          "type": "address"
        },
        {
          "internalType": "uint256",
          "name": "",
          "type": "uint256"
        }
      ],
      "payable": false,
      "stateMutability": "view",
      "type": "function"
    }
  ],
  "bytecode": "0x608060405234801561001057600080fd5b506102c1806100206000396000f3fe608060405234801561001057600080fd5b50600436106100575760003560e01c80631afa8d291461005c57806328b8f386146100ca57806386d7b2bb146100e857806393337f3a1461012a578063d091afdc14610148575b600080fd5b6100886004803603602081101561007257600080fd5b81019080803590602001909291905050506101bd565b604051808273ffffffffffffffffffffffffffffffffffffffff1673ffffffffffffffffffffffffffffffffffffffff16815260200191505060405180910390f35b6100d26101f9565b6040518082815260200191505060405180910390f35b610114600480360360208110156100fe57600080fd5b8101908080359060200190929190505050610202565b6040518082815260200191505060405180910390f35b610132610223565b6040518082815260200191505060405180910390f35b6101746004803603602081101561015e57600080fd5b8101908080359060200190929190505050610230565b604051808373ffffffffffffffffffffffffffffffffffffffff1673ffffffffffffffffffffffffffffffffffffffff1681526020018281526020019250505060405180910390f35b600181815481106101ca57fe5b906000526020600020016000915054906101000a900473ffffffffffffffffffffffffffffffffffffffff1681565b60008054905090565b6002818154811061020f57fe5b906000526020600020016000915090505481565b6000600180549050905090565b6000806001838154811061024057fe5b9060005260206000200160009054906101000a900473ffffffffffffffffffffffffffffffffffffffff166002848154811061027857fe5b90600052602060002001549150915091509156fea265627a7a72315820d07500984eb2997f7bb5c5a8803018c4758df8b5ecd714d2c1c2dc2a27f1156e64736f6c634300050b0032",
  "source": "pragma solidity ^0.5.0;\r\n\r\nimport \"./openzeppelin/SafeMath.sol\";\r\nimport \"./openzeppelin/RVSToken.sol\";\r\n\r\n// base https://github.com/OpenZeppelin/openzeppelin-contracts/blob/master/contracts/token/ERC20/ERC20.sol\r\n\r\ncontract Premine {\r\n    using SafeMath for uint;\r\n\r\n    // premine from genesis block\r\n    uint internal premineSum;\r\n    address[] public premineAddresses;\r\n    uint[] public premineBalances;\r\n\r\n    function _addPremine(\r\n        address _premineAddress,\r\n        uint _premineBalance\r\n    )\r\n        internal\r\n    {\r\n        premineAddresses.push(_premineAddress);\r\n        premineBalances.push(_premineBalance);\r\n        premineSum += _premineBalance;\r\n    }\r\n\r\n    function getPremineSum()\r\n        public\r\n        view\r\n        returns(uint)\r\n    {\r\n        return premineSum;\r\n    }\r\n\r\n    function getPremineAddressesCount()\r\n        public\r\n        view\r\n        returns(uint)\r\n    {\r\n        return premineAddresses.length;\r\n    }\r\n\r\n    function getPremineAccount(\r\n        uint i\r\n    )\r\n        public\r\n        view\r\n        returns(address, uint)\r\n    {\r\n        return (premineAddresses[i], premineBalances[i]);\r\n    }\r\n}",
  "sourcePath": "C:\\Users\\bestb\\Desktop\\DEntwickler\\Validator\\core\\contracts\\Premine.sol",
  "compiler": {
    "name": "solc",
    "version": "0.5.11+commit.c082d0b4.Emscripten.clang"
  },
  "schemaVersion": "3.0.16",
  "updatedAt": "2019-10-29T05:08:24.867Z",
  "devdoc": {
    "methods": {}
  },
  "userdoc": {
    "methods": {}
  }
}