{
  "contractName": "Staking",
  "abi": [
    {
      "constant": true,
      "inputs": [],
      "name": "name",
      "outputs": [
        {
          "internalType": "string",
          "name": "",
          "type": "string"
        }
      ],
      "payable": false,
      "stateMutability": "view",
      "type": "function"
    },
    {
      "constant": true,
      "inputs": [],
      "name": "totalSupply",
      "outputs": [
        {
          "internalType": "uint256",
          "name": "",
          "type": "uint256"
        }
      ],
      "payable": false,
      "stateMutability": "view",
      "type": "function"
    },
    {
      "constant": true,
      "inputs": [],
      "name": "decimals",
      "outputs": [
        {
          "internalType": "uint8",
          "name": "",
          "type": "uint8"
        }
      ],
      "payable": false,
      "stateMutability": "view",
      "type": "function"
    },
    {
      "constant": true,
      "inputs": [
        {
          "internalType": "address",
          "name": "account",
          "type": "address"
        }
      ],
      "name": "balanceOf",
      "outputs": [
        {
          "internalType": "uint256",
          "name": "",
          "type": "uint256"
        }
      ],
      "payable": false,
      "stateMutability": "view",
      "type": "function"
    },
    {
      "constant": true,
      "inputs": [],
      "name": "symbol",
      "outputs": [
        {
          "internalType": "string",
          "name": "",
          "type": "string"
        }
      ],
      "payable": false,
      "stateMutability": "view",
      "type": "function"
    },
    {
      "constant": true,
      "inputs": [],
      "name": "CPT_ZOOM",
      "outputs": [
        {
          "internalType": "uint256",
          "name": "",
          "type": "uint256"
        }
      ],
      "payable": false,
      "stateMutability": "view",
      "type": "function"
    },
    {
      "inputs": [
        {
          "internalType": "string",
          "name": "name",
          "type": "string"
        },
        {
          "internalType": "string",
          "name": "symbol",
          "type": "string"
        },
        {
          "internalType": "uint8",
          "name": "decimals",
          "type": "uint8"
        }
      ],
      "payable": false,
      "stateMutability": "nonpayable",
      "type": "constructor"
    },
    {
      "anonymous": false,
      "inputs": [
        {
          "indexed": true,
          "internalType": "address",
          "name": "_validator",
          "type": "address"
        },
        {
          "indexed": false,
          "internalType": "uint256",
          "name": "_amount",
          "type": "uint256"
        },
        {
          "indexed": false,
          "internalType": "uint256",
          "name": "_stake",
          "type": "uint256"
        }
      ],
      "name": "Staked",
      "type": "event"
    },
    {
      "anonymous": false,
      "inputs": [
        {
          "indexed": true,
          "internalType": "address",
          "name": "_validator",
          "type": "address"
        },
        {
          "indexed": false,
          "internalType": "uint256",
          "name": "_amount",
          "type": "uint256"
        },
        {
          "indexed": false,
          "internalType": "uint256",
          "name": "_stake",
          "type": "uint256"
        }
      ],
      "name": "Unstaked",
      "type": "event"
    },
    {
      "anonymous": false,
      "inputs": [
        {
          "indexed": true,
          "internalType": "address",
          "name": "_validator",
          "type": "address"
        },
        {
          "indexed": false,
          "internalType": "uint256",
          "name": "_amount",
          "type": "uint256"
        }
      ],
      "name": "Claimed",
      "type": "event"
    },
    {
      "anonymous": false,
      "inputs": [
        {
          "indexed": true,
          "internalType": "uint256",
          "name": "_cpt",
          "type": "uint256"
        }
      ],
      "name": "CptUpdated",
      "type": "event"
    },
    {
      "anonymous": false,
      "inputs": [
        {
          "indexed": true,
          "internalType": "address",
          "name": "_validator",
          "type": "address"
        },
        {
          "indexed": true,
          "internalType": "uint256",
          "name": "_credit",
          "type": "uint256"
        }
      ],
      "name": "CreditUpdated",
      "type": "event"
    },
    {
      "anonymous": false,
      "inputs": [
        {
          "indexed": true,
          "internalType": "uint256",
          "name": "_lastBalance",
          "type": "uint256"
        }
      ],
      "name": "LastBalanceUpdated",
      "type": "event"
    },
    {
      "anonymous": false,
      "inputs": [
        {
          "indexed": true,
          "internalType": "address",
          "name": "from",
          "type": "address"
        },
        {
          "indexed": true,
          "internalType": "address",
          "name": "to",
          "type": "address"
        },
        {
          "indexed": false,
          "internalType": "uint256",
          "name": "value",
          "type": "uint256"
        }
      ],
      "name": "Transfer",
      "type": "event"
    },
    {
      "constant": true,
      "inputs": [
        {
          "internalType": "address",
          "name": "_validator",
          "type": "address"
        }
      ],
      "name": "rewardOf",
      "outputs": [
        {
          "internalType": "uint256",
          "name": "",
          "type": "uint256"
        }
      ],
      "payable": false,
      "stateMutability": "view",
      "type": "function"
    },
    {
      "constant": true,
      "inputs": [],
      "name": "getCpt",
      "outputs": [
        {
          "internalType": "uint256",
          "name": "",
          "type": "uint256"
        }
      ],
      "payable": false,
      "stateMutability": "view",
      "type": "function"
    }
  ],
  "bytecode": "0x608060405234801561001057600080fd5b5060405161094a38038061094a8339818101604052606081101561003357600080fd5b810190808051604051939291908464010000000082111561005357600080fd5b8382019150602082018581111561006957600080fd5b825186600182028301116401000000008211171561008657600080fd5b8083526020830192505050908051906020019080838360005b838110156100ba57808201518184015260208101905061009f565b50505050905090810190601f1680156100e75780820380516001836020036101000a031916815260200191505b506040526020018051604051939291908464010000000082111561010a57600080fd5b8382019150602082018581111561012057600080fd5b825186600182028301116401000000008211171561013d57600080fd5b8083526020830192505050908051906020019080838360005b83811015610171578082015181840152602081019050610156565b50505050905090810190601f16801561019e5780820380516001836020036101000a031916815260200191505b506040526020018051906020019092919050505082828282828282600090805190602001906101ce92919061020f565b5081600190805190602001906101e592919061020f565b5080600260006101000a81548160ff021916908360ff1602179055505050505050505050506102b4565b828054600181600116156101000203166002900490600052602060002090601f016020900481019282601f1061025057805160ff191683800117855561027e565b8280016001018555821561027e579182015b8281111561027d578251825591602001919060010190610262565b5b50905061028b919061028f565b5090565b6102b191905b808211156102ad576000816000905550600101610295565b5090565b90565b610687806102c36000396000f3fe608060405234801561001057600080fd5b50600436106100885760003560e01c80633dda03471161005b5780633dda0347146101aa57806370a08231146101c857806395d89b4114610220578063cadba0d1146102a357610088565b806306fdde031461008d57806318160ddd146101105780631d62ebd91461012e578063313ce56714610186575b600080fd5b6100956102c1565b6040518080602001828103825283818151815260200191508051906020019080838360005b838110156100d55780820151818401526020810190506100ba565b50505050905090810190601f1680156101025780820380516001836020036101000a031916815260200191505b509250505060405180910390f35b610118610363565b6040518082815260200191505060405180910390f35b6101706004803603602081101561014457600080fd5b81019080803573ffffffffffffffffffffffffffffffffffffffff16906020019092919050505061036d565b6040518082815260200191505060405180910390f35b61018e610445565b604051808260ff1660ff16815260200191505060405180910390f35b6101b261045c565b6040518082815260200191505060405180910390f35b61020a600480360360208110156101de57600080fd5b81019080803573ffffffffffffffffffffffffffffffffffffffff1690602001909291905050506104b6565b6040518082815260200191505060405180910390f35b6102286104ff565b6040518080602001828103825283818151815260200191508051906020019080838360005b8381101561026857808201518184015260208101905061024d565b50505050905090810190601f1680156102955780820380516001836020036101000a031916815260200191505b509250505060405180910390f35b6102ab6105a1565b6040518082815260200191505060405180910390f35b606060008054600181600116156101000203166002900480601f0160208091040260200160405190810160405280929190818152602001828054600181600116156101000203166002900480156103595780601f1061032e57610100808354040283529160200191610359565b820191906000526020600020905b81548152906001019060200180831161033c57829003601f168201915b5050505050905090565b6000600454905090565b6000806501000000000061039961038261045c565b61038b866104b6565b6105ab90919063ffffffff16565b816103a057fe5b049050600560008473ffffffffffffffffffffffffffffffffffffffff1673ffffffffffffffffffffffffffffffffffffffff168152602001908152602001600020548110156103f4576000915050610440565b6000600560008573ffffffffffffffffffffffffffffffffffffffff1673ffffffffffffffffffffffffffffffffffffffff168152602001908152602001600020548203905080925050505b919050565b6000600260009054906101000a900460ff16905090565b6000806007543073ffffffffffffffffffffffffffffffffffffffff16310390506000610487610363565b6104a065010000000000846105ab90919063ffffffff16565b816104a757fe5b04905080600654019250505090565b6000600360008373ffffffffffffffffffffffffffffffffffffffff1673ffffffffffffffffffffffffffffffffffffffff168152602001908152602001600020549050919050565b606060018054600181600116156101000203166002900480601f0160208091040260200160405190810160405280929190818152602001828054600181600116156101000203166002900480156105975780601f1061056c57610100808354040283529160200191610597565b820191906000526020600020905b81548152906001019060200180831161057a57829003601f168201915b5050505050905090565b6501000000000081565b6000808314156105be576000905061062b565b60008284029050828482816105cf57fe5b0414610626576040517f08c379a00000000000000000000000000000000000000000000000000000000081526004018080602001828103825260218152602001806106326021913960400191505060405180910390fd5b809150505b9291505056fe536166654d6174683a206d756c7469706c69636174696f6e206f766572666c6f77a265627a7a72315820f84d3a679d1f25eda55d6015ec312546cd0f8ed533dd2e21ea433254608a506b64736f6c634300050b0032",
  "source": "pragma solidity ^0.5.0;\r\n\r\nimport \"./openzeppelin/SafeMath.sol\";\r\nimport \"./openzeppelin/RVSToken.sol\";\r\n\r\n// base https://github.com/OpenZeppelin/openzeppelin-contracts/blob/master/contracts/token/ERC20/ERC20.sol\r\n\r\ncontract Staking is RVSToken {\r\n    using SafeMath for uint;\r\n\r\n    //CPT ZOOMED\r\n    uint constant public CPT_ZOOM = 2**40;\r\n\r\n    mapping(address => uint) private credit;\r\n\r\n    // coin per token\r\n    uint private cpt;\r\n    uint private lastBalance;\r\n    uint internal _coinSupply;\r\n\r\n    event Staked(address indexed _validator, uint _amount, uint _stake);\r\n    event Unstaked(address indexed _validator, uint _amount, uint _stake);\r\n    event Claimed(address indexed _validator, uint _amount);\r\n\r\n    event CptUpdated(uint indexed _cpt);\r\n    event CreditUpdated(address indexed _validator, uint indexed _credit);\r\n    event LastBalanceUpdated(uint indexed _lastBalance);\r\n\r\n    constructor (\r\n        string memory name,\r\n        string memory symbol,\r\n        uint8 decimals\r\n    )\r\n        public\r\n        RVSToken(name, symbol, decimals)\r\n    {\r\n    }\r\n\r\n    function _setLastBalance(\r\n        uint _lastBalance\r\n    )\r\n        internal\r\n    {\r\n        lastBalance = _lastBalance;\r\n        emit LastBalanceUpdated(_lastBalance);\r\n    }\r\n\r\n    function _updateLastBalance()\r\n        internal\r\n    {\r\n        _setLastBalance(address(this).balance);\r\n    }\r\n\r\n    function _distribute()\r\n        internal\r\n    {\r\n        if (address(this).balance <= lastBalance) return;\r\n        uint _addedBalance = address(this).balance - lastBalance;\r\n        _coinSupply += _addedBalance;\r\n\r\n        uint _addedCpt = _addedBalance.mul(CPT_ZOOM) / totalSupply();\r\n        cpt = cpt.add(_addedCpt);\r\n        _updateLastBalance();\r\n        emit CptUpdated(cpt);\r\n    }\r\n\r\n    function _distributePenalize(\r\n        address _reportedValidator,\r\n        uint _penalizedAmount\r\n    )\r\n        internal\r\n    {\r\n        uint _sharedSupply = totalSupply() - balanceOf(_reportedValidator);\r\n        // this should never happen\r\n        if (_sharedSupply == 0) {\r\n            uint _addedCpt = _penalizedAmount.mul(CPT_ZOOM) / totalSupply();\r\n            cpt = cpt.add(_addedCpt);\r\n            emit CptUpdated(cpt);\r\n            return;\r\n        }\r\n        uint _addedCpt = _penalizedAmount.mul(CPT_ZOOM) / _sharedSupply;\r\n        uint _reportedValidatorReward = _rewardOf(_reportedValidator);\r\n        cpt = cpt.add(_addedCpt);\r\n        _setCredit(_reportedValidator, _reportedValidatorReward);\r\n        emit CptUpdated(cpt);\r\n    }\r\n\r\n    function _claim(\r\n        address _validator\r\n    )\r\n        internal\r\n        returns(uint)\r\n    {\r\n        _distribute();\r\n        uint _amount = _rewardOf(_validator);\r\n        _setCredit(_validator, 0);\r\n        emit Claimed(_validator, _amount);\r\n        return _amount;\r\n        // move _amount to wallet after this step\r\n    }\r\n\r\n    function _stake(\r\n        address _validator,\r\n        uint _amount\r\n    )\r\n        internal\r\n    {\r\n        // _amount is staked coin to exchange in RVS token, so wont be shared\r\n        _setLastBalance(lastBalance + _amount);\r\n        _distribute();\r\n        uint _currentReward = _rewardOf(_validator);\r\n        _mint(_validator, _amount);\r\n        _setCredit(_validator, _currentReward);\r\n        emit Staked(_validator, _amount, balanceOf(_validator));\r\n    }\r\n\r\n    function _unstake(\r\n        address _validator,\r\n        uint _amount\r\n    )\r\n        internal\r\n        returns(uint)\r\n    {\r\n        uint rewardAmount = _claim(_validator);\r\n        _burn(_validator, _amount);\r\n        _setCredit(_validator, 0);\r\n        uint toWalletAmount = rewardAmount + _amount;\r\n        emit Unstaked(_validator, _amount, balanceOf(_validator));\r\n        return toWalletAmount;\r\n    }\r\n\r\n    // claim whole reward + RVS Token\r\n    function _leave(\r\n        address _validator\r\n    )\r\n        internal\r\n        returns(uint)\r\n    {\r\n        uint RVSBalance = balanceOf(_validator);\r\n        uint toWalletAmount = _unstake(_validator, RVSBalance);\r\n        return toWalletAmount;\r\n    }\r\n\r\n    function _rewardOf(\r\n        address _validator\r\n    )\r\n        internal\r\n        view\r\n        returns(uint)\r\n    {\r\n        uint tmp = balanceOf(_validator).mul(cpt) / CPT_ZOOM;\r\n        if (tmp < credit[_validator]) {\r\n            return 0;\r\n        }\r\n        uint reward = tmp - credit[_validator];\r\n        return reward;\r\n    }\r\n\r\n    /*\r\n        credit balancing to reach target Reward\r\n    */\r\n    function _setCredit(\r\n        address _validator,\r\n        uint _targetReward\r\n    )\r\n        internal\r\n    {\r\n        uint tmp = balanceOf(_validator).mul(cpt) / CPT_ZOOM;\r\n        credit[_validator] = tmp.sub(_targetReward);\r\n        emit CreditUpdated(_validator, credit[_validator]);\r\n    }\r\n\r\n    function rewardOf(\r\n        address _validator\r\n    )\r\n        public\r\n        view\r\n        returns(uint)\r\n    {\r\n        uint tmp = balanceOf(_validator).mul(getCpt()) / CPT_ZOOM;\r\n        if (tmp < credit[_validator]) {\r\n            return 0;\r\n        }\r\n        uint reward = tmp - credit[_validator];\r\n        return reward;\r\n    }\r\n\r\n    function getCpt()\r\n        public\r\n        view\r\n        returns(uint)\r\n    {\r\n        uint _addedBalance = address(this).balance - lastBalance;\r\n        uint _addedCpt = _addedBalance.mul(CPT_ZOOM) / totalSupply();\r\n        return cpt + _addedCpt;\r\n    }\r\n\r\n    /*\r\n        RET COIN SUPPLY EXCLUDED PREMINE AMOUNT FROM GENESIS\r\n    */\r\n    function _coinSupplyExcludedPremine()\r\n        internal\r\n        view\r\n        returns(uint)\r\n    {\r\n        uint _toAdded = address(this).balance > lastBalance ? address(this).balance - lastBalance : 0;\r\n        return _coinSupply + _toAdded;\r\n    }\r\n}",
  "sourcePath": "C:\\Users\\bestb\\Desktop\\DEntwickler\\Validator\\core\\contracts\\Staking.sol",
  "compiler": {
    "name": "solc",
    "version": "0.5.11+commit.c082d0b4.Emscripten.clang"
  },
  "schemaVersion": "3.0.16",
  "updatedAt": "2019-10-29T05:08:24.879Z",
  "devdoc": {
    "methods": {
      "balanceOf(address)": {
        "details": "See {IERC20-balanceOf}.\r"
      },
      "decimals()": {
        "details": "Returns the number of decimals used to get its user representation.\r For example, if `decimals` equals `2`, a balance of `505` tokens should\r be displayed to a user as `5,05` (`505 / 10 ** 2`).\r      * Tokens usually opt for a value of 18, imitating the relationship between\r Ether and Wei.\r      * NOTE: This information is only used for _display_ purposes: it in\r no way affects any of the arithmetic of the contract, including\r {IERC20-balanceOf} and {IERC20-transfer}.\r"
      },
      "name()": {
        "details": "Returns the name of the token.\r"
      },
      "symbol()": {
        "details": "Returns the symbol of the token, usually a shorter version of the\r name.\r"
      },
      "totalSupply()": {
        "details": "See {IERC20-totalSupply}.\r"
      }
    }
  },
  "userdoc": {
    "methods": {}
  }
}