{
  "contractName": "ValidatorMetadata",
  "abi": [
    {
      "anonymous": false,
      "inputs": [
        {
          "indexed": true,
          "internalType": "address",
          "name": "_validator",
          "type": "address"
        }
      ],
      "name": "MetadataUpdated",
      "type": "event"
    },
    {
      "constant": true,
      "inputs": [
        {
          "internalType": "address",
          "name": "_miningKey",
          "type": "address"
        },
        {
          "internalType": "address",
          "name": "_voterMiningKey",
          "type": "address"
        }
      ],
      "name": "isValidatorAlreadyVoted",
      "outputs": [
        {
          "internalType": "bool",
          "name": "",
          "type": "bool"
        }
      ],
      "payable": false,
      "stateMutability": "view",
      "type": "function"
    },
    {
      "constant": true,
      "inputs": [],
      "name": "getTime",
      "outputs": [
        {
          "internalType": "uint256",
          "name": "",
          "type": "uint256"
        }
      ],
      "payable": false,
      "stateMutability": "view",
      "type": "function"
    },
    {
      "constant": true,
      "inputs": [],
      "name": "getMinThreshold",
      "outputs": [
        {
          "internalType": "uint256",
          "name": "",
          "type": "uint256"
        }
      ],
      "payable": false,
      "stateMutability": "view",
      "type": "function"
    }
  ],
  "bytecode": "0x608060405234801561001057600080fd5b50610150806100206000396000f3fe608060405234801561001057600080fd5b50600436106100415760003560e01c8063557ed1ba14610046578063e6bbe9dd14610064578063f73294b814610082575b600080fd5b61004e6100fe565b6040518082815260200191505060405180910390f35b61006c610106565b6040518082815260200191505060405180910390f35b6100e46004803603604081101561009857600080fd5b81019080803573ffffffffffffffffffffffffffffffffffffffff169060200190929190803573ffffffffffffffffffffffffffffffffffffffff16906020019092919050505061010f565b604051808215151515815260200191505060405180910390f35b600042905090565b60006008905090565b6000600190509291505056fea265627a7a72315820b9c0b65c8d9c23abc06e7b3dfef66ee874e16e56188099e8a95c7d1d1cf0530864736f6c634300050b0032",
  "source": "pragma solidity ^0.5.0;\r\n\r\n/**\r\n * @title drkchain validator's metadata smart contract\r\n */\r\n\r\ncontract ValidatorMetadata {\r\n    struct ValidatorProfile {\r\n        bytes32 firstName;\r\n        bytes32 lastName;\r\n        bytes32 licenseId;\r\n        string fullAddress;\r\n        bytes32 state;\r\n        bytes32 zipcode;\r\n        uint expirationDate;\r\n        uint createdDate;\r\n        uint updatedDate;\r\n        uint minThreshold;\r\n        bytes32 contactEmail;\r\n        bool isCompany;\r\n    }\r\n\r\n    event MetadataUpdated(address indexed _validator);\r\n\r\n    mapping(address => ValidatorProfile) validatorProfiles;\r\n\r\n    function _getValidatorName(address _validator) internal view returns (\r\n        bytes32 firstName,\r\n        bytes32 lastName\r\n    ) {\r\n        ValidatorProfile storage profile = validatorProfiles[_validator];\r\n        firstName = profile.firstName;\r\n        lastName = profile.lastName;\r\n    }\r\n\r\n    function _updateMetadata(\r\n        address _validator,\r\n        bytes32 _firstName,\r\n        bytes32 _lastName,\r\n        bytes32 _licenseId,\r\n        string memory _fullAddress,\r\n        bytes32 _state,\r\n        bytes32 _zipcode,\r\n        uint _expirationDate,\r\n        uint _createdDate,\r\n        uint _updatedDate,\r\n        uint _minThreshold,\r\n        bytes32 _contactEmail,\r\n        bool _isCompany\r\n    ) internal {\r\n        validatorProfiles[_validator] = ValidatorProfile(\r\n            _firstName,\r\n            _lastName,\r\n            _licenseId,\r\n            _fullAddress,\r\n            _state,\r\n            _zipcode,\r\n            _expirationDate,\r\n            _createdDate,\r\n            _updatedDate,\r\n            _minThreshold,\r\n            _contactEmail,\r\n            _isCompany\r\n        );\r\n        emit MetadataUpdated(_validator);\r\n    }\r\n\r\n    function isValidatorAlreadyVoted(address _miningKey, address _voterMiningKey)\r\n        public\r\n        view\r\n        returns(bool)\r\n    {\r\n        return true;\r\n    }\r\n\r\n    function getTime() public view returns(uint) {\r\n        return now;\r\n    }\r\n\r\n    function getMinThreshold() public view returns(uint) {\r\n        return 8;\r\n    }\r\n\r\n    function _validators(address _validator) internal view returns (\r\n        bytes32 firstName,\r\n        bytes32 lastName,\r\n        bytes32 licenseId,\r\n        string memory fullAddress,\r\n        bytes32 state,\r\n        bytes32 zipcode,\r\n        uint expirationDate,\r\n        uint createdDate,\r\n        uint updatedDate,\r\n        uint minThreshold,\r\n        bytes32 contactEmail,\r\n        bool isCompany\r\n    ) {\r\n        ValidatorProfile storage profile = validatorProfiles[_validator];\r\n        firstName = profile.firstName;\r\n        lastName = profile.lastName;\r\n        licenseId = profile.licenseId;\r\n        fullAddress = profile.fullAddress;\r\n        state = profile.state;\r\n        zipcode = profile.zipcode;\r\n        expirationDate = profile.expirationDate;\r\n        createdDate = profile.createdDate;\r\n        updatedDate = profile.updatedDate;\r\n        minThreshold = profile.minThreshold;\r\n        contactEmail = profile.contactEmail;\r\n        isCompany = profile.isCompany;\r\n    }\r\n\r\n}",
  "sourcePath": "C:\\Users\\bestb\\Desktop\\DEntwickler\\Validator\\core\\contracts\\ValidatorMetadata.sol",
  "compiler": {
    "name": "solc",
    "version": "0.5.11+commit.c082d0b4.Emscripten.clang"
  },
  "schemaVersion": "3.0.16",
  "updatedAt": "2019-10-29T05:08:24.892Z",
  "devdoc": {
    "methods": {},
    "title": "rchain validator's metadata smart contract\r"
  },
  "userdoc": {
    "methods": {}
  }
}